00100000                                                                                                                                                                                                                                        
0010001300001A91643639660790823465PADARIA SAO JOSE              000000918906                                                                                                                                                                    
0010001300002A87930731417232604113MERCADO CENTRAL LTDA          000000092975ERRO_LAYOUT                                                                                                                                                         
0010001300003A35134599746092414743RESTAURANTE SABOR             000000877453ERRO_LAYOUT                                                                                                                                                         
0010001300004A73318030533298433979MARIA OLIVEIRA                000000669154                                                                                                                                                                    
0010001300005A95597788643661807484ACADEMIA CORPO ATIVO          000000440130                                                                                                                                                                    
0010001300006A62320431007254649352OFICINA MECANICA              000000087229                                                                                                                                                                    
0010001300007A37403537857719399758HOTEL PRAIA AZUL              000000519120                                                                                                                                                                    
0010001300008A76243815569871398022POSTO COMBUSTIVEL             000000109115                                                                                                                                                                    
0010001300009A92786441098206259588CLINICA MEDICA VIDA           000000878190                                                                                                                                                                    
0010001300010A90719674792915794498ATACADO BRASIL                000000912773                                                                                                                                                                    
0010001300011A77654485997738834727MARIA OLIVEIRA                000000630988                                                                                                                                                                    
0010001300012A20618416795574096665MERCADO CENTRAL LTDA          000000801244                                                                                                                                                                    
0010001300013A90440732114633479150CLINICA MEDICA VIDA           000000442420                                                                                                                                                                    
0010001300014A47628866197564626419MATERIAL DE CONSTRUCAO        000000893731                                                                                                                                                                    
0010001300015A87772202365015843177PADARIA SAO JOSE              000000025417                                                                                                                                                                    
0010001300016A64343181314399262617MERCADO CENTRAL LTDA          000000306574                                                                                                                                                                    
0010001300017A78788966944739135072POSTO COMBUSTIVEL             000000376107                                                                                                                                                                    
0010001300018A59492830123123054580OFICINA MECANICA              000000260881                                                                                                                                                                    
0010001300019A71326429412250128399POSTO COMBUSTIVEL             000000806047                                                                                                                                                                    
0010001300020A31409145697350717179PAPELARIA ESCOLAR             000000808351                                                                                                                                                                    
0010001300021A79003823621285006726OFICINA MECANICA              000000819004                                                                                                                                                                    
0010001300022A25802336250762184540ACADEMIA CORPO ATIVO          000000368993                                                                                                                                                                    
0010001300023A89559411534952391871RESTAURANTE SABOR             000000670638                                                                                                                                                                    
0010001300024A79296383594471246301AUTO PECAS BRASIL             000000277637                                                                                                                                                                    
0010001300025A78389386783329173041OFICINA MECANICA              000000353471                                                                                                                                                                    
0010001300026A42369808737743460974PADARIA SAO JOSE              000000338538                                                                                                                                                                    
0010001300027A30503198312300793929HOTEL PRAIA AZUL              000000325711                                                                                                                                                                    
0010001300028A57232616832820987810PAPELARIA ESCOLAR             000000564500                                                                                                                                                                    
0010001300029A91128249708654584502EMPRESA TESTE LTDA            000000208367                                                                                                                                                                    
0010001300030A56722425289998400523CONSTRUTORA PARAIBA           000000139594                                                                                                                                                                    
0010001300031A17106426649668195829LOJA DE INFORMATICA           000000643317                                                                                                                                                                    
0010001300032A27907089638803276933ACADEMIA CORPO ATIVO          000000235845                                                                                                                                                                    
0010001300033A25239483170082130656FARMACIA POPULAR              000000574706                                                                                                                                                                    
0010001300034A65826473437049060718FARMACIA POPULAR              000000873823                                                                                                                                                                    
0010001300035A46584732078300509225FARMACIA POPULAR              000000917746                                                                                                                                                                    
0010001300036A32430652266612531132JOAO DA SILVA                 000000311310                                                                                                                                                                    
0010001300037A27793553783249294169CLINICA MEDICA VIDA           000000506848                                                                                                                                                                    
0010001300038A73437428562004713652PAPELARIA ESCOLAR             000000578102ERRO_LAYOUT                                                                                                                                                         
0010001300039A36052771344865989906ATACADO BRASIL                000000609213                                                                                                                                                                    
0010001300040A95357790712224893434CONSTRUTORA PARAIBA           000000783168                                                                                                                                                                    
0010001300041A70202007020345089763OFICINA MECANICA              000000382321                                                                                                                                                                    
0010001300042A89692788569612856863OFICINA MECANICA              000000080882                                                                                                                                                                    
0010001300043A41234009870148924714ACADEMIA CORPO ATIVO          000000901817                                                                                                                                                                    
0010001300044A98462414109314680995HOTEL PRAIA AZUL              000000135119                                                                                                                                                                    
0010001300045A92562788029250317996ACADEMIA CORPO ATIVO          000000109998ERRO_LAYOUT                                                                                                                                                         
0010001300046A60177103751839658883PAPELARIA ESCOLAR             000000861062                                                                                                                                                                    
0010001300047A69471635140819419905POSTO COMBUSTIVEL             000000602254                                                                                                                                                                    
0010001300048@66321625826586807268CLINICA MEDICA VIDA           000000459240                                                                                                                                                                    
0010001300049A18046179348179314280PADARIA SAO JOSE              000000023289                                                                                                                                                                    
0010001300050A92059755793843582091MARIA OLIVEIRA                000000939458                                                                                                                                                                    
0010001300051A12727906841380039402OFICINA MECANICA              000000068690                                                                                                                                                                    
0010001300052A60154276849892030127HOTEL PRAIA AZUL              000000264353                                                                                                                                                                    
0010001300053A96950797752910432450RESTAURANTE SABOR             000000451858                                                                                                                                                                    
0010001300054A83532532872198728596AUTO PECAS BRASIL             000000694048                                                                                                                                                                    
0010001300055A89502243888352827407LOJA DE INFORMATICA           000000346689                                                                                                                                                                    
0010001300056A20836496896470338352EMPRESA TESTE LTDA            000000643768                                                                                                                                                                    
0010001300057A75112800330531862788PADARIA SAO JOSE              000000768240                                                                                                                                                                    
0010001300058A16120447397972119287MERCADO CENTRAL LTDA          000000992207                                                                                                                                                                    
0010001300059A77982764663400275809TRANSPORTES EXPRESS           000000399912ERRO_LAYOUT                                                                                                                                                         
0010001300060A13375562288577786905LOJA DE INFORMATICA           000000372509                                                                                                                                                                    
0010001300061A78386930939589742036POSTO COMBUSTIVEL             000000524054                                                                                                                                                                    
0010001300062A50298136971347910717CONSTRUTORA PARAIBA           000000210451                                                                                                                                                                    
0010001300063A48398159629381846202MATERIAL DE CONSTRUCAO        000000788435                                                                                                                                                                    
0010001300064A56557133704482928175JOAO DA SILVA                 000000922114                                                                                                                                                                    
0010001300065A30208229627917143947JOAO DA SILVA                 000000554923                                                                                                                                                                    
0010001300066A46979468986102601700CONSTRUTORA PARAIBA           000000321240                                                                                                                                                                    
0010001300067A57285732602857495106EMPRESA TESTE LTDA            000000180867                                                                                                                                                                    
0010001300068A95527992341043895492RESTAURANTE SABOR             000000190717                                                                                                                                                                    
0010001300069A45281512569690715272CLINICA MEDICA VIDA           000000392443ERRO_LAYOUT                                                                                                                                                         
0010001300070A81784338139028073491PADARIA SAO JOSE              000000532072                                                                                                                                                                    
0010001300071A84346681290709958415MARIA OLIVEIRA                000000980825                                                                                                                                                                    
0010001300072A27352926210177137437LOJA DE INFORMATICA           000000980552                                                                                                                                                                    
0010001300073A48881584606833489904PADARIA SAO JOSE              000000618871                                                                                                                                                                    
0010001300074A37626785611872426562CLINICA MEDICA VIDA           000000162894                                                                                                                                                                    
0010001300075A82639925664081748261PAPELARIA ESCOLAR             000000872274                                                                                                                                                                    
0010001300076A79803635313356793516MERCADO CENTRAL LTDA          000000701288                                                                                                                                                                    
0010001300077A48101078171404285498FARMACIA POPULAR              000000383557                                                                                                                                                                    
0010001300078A37499818564845389968CONSTRUTORA PARAIBA           000000043710                                                                                                                                                                    
0010001300079A82331982889755017415HOTEL PRAIA AZUL              000000103678                                                                                                                                                                    
0010001300080A19589425613438433855ACADEMIA CORPO ATIVO          000000956261                                                                                                                                                                    
0010001300081A94172432219282839282PAPELARIA ESCOLAR             000000547113                                                                                                                                                                    
0010001300082A97749749821449784682AUTO PECAS BRASIL             000000296387                                                                                                                                                                    
0010001300083A67839317183438537162AUTO PECAS BRASIL             000000307289                                                                                                                                                                    
0010001300084A76894152575974256782CONSTRUTORA PARAIBA           000000456376                                                                                                                                                                    
0010001300085A66860039033599260069JOAO DA SILVA                 000000515201                                                                                                                                                                    
0010001300086A89717872015580110341RESTAURANTE SABOR             000000639378                                                                                                                                                                    
0010001300087A70983046636665632476LOJA DE INFORMATICA           000000808387                                                                                                                                                                    
0010001300088A22892460041241497293ATACADO BRASIL                000000871736                                                                                                                                                                    
0010001300089A38459397592964338318ACADEMIA CORPO ATIVO          000000775267                                                                                                                                                                    
0010001300090A19855950256528087230MARIA OLIVEIRA                000000317761                                                                                                                                                                    
0010001300091A50365884983579567578PAPELARIA ESCOLAR             000000055082                                                                                                                                                                    
0010001300092A56278187798151588805MARIA OLIVEIRA                000000954998                                                                                                                                                                    
0010001300093A67160017072320218679PADARIA SAO JOSE              000000935803                                                                                                                                                                    
0010001300094A60035143804095864772EMPRESA TESTE LTDA            000000748819                                                                                                                                                                    
0010001300095A37582959117490170698HOTEL PRAIA AZUL              000000671630                                                                                                                                                                    
0010001300096A10287634778489794420CONSTRUTORA PARAIBA           000000216137                                                                                                                                                                    
0010001300097A22716992091049913043LOJA DE INFORMATICA           000000005068                                                                                                                                                                    
0010001300098A46605755215800177614CONSTRUTORA PARAIBA           000000866823                                                                                                                                                                    
0010001300099A17414829937094900404SUPERMERCADO IDEAL            000000148651                                                                                                                                                                    
0010001300100A88328069597704997258POSTO COMBUSTIVEL             000000924886                                                                                                                                                                    
0010001300101A58444662467498293771AUTO PECAS BRASIL             000000986047                                                                                                                                                                    
0010001300102A70369090199352417609JOAO DA SILVA                 000000436189                                                                                                                                                                    
0010001300103A72970540718942355143POSTO COMBUSTIVEL             000000883666                                                                                                                                                                    
0010001300104A55899492811893067775CLINICA MEDICA VIDA           000000011036                                                                                                                                                                    
0010001300105@78115029339536669738MARIA OLIVEIRA                000000729910                                                                                                                                                                    
0010001300106A30573255259455490115RESTAURANTE SABOR             000000069830                                                                                                                                                                    
0010001300107A34485812657943011690POSTO COMBUSTIVEL             000000714081                                                                                                                                                                    
0010001300108A89040734194578799513LOJA DE INFORMATICA           000000298634                                                                                                                                                                    
0010001300109A57410130658168837140MERCADO CENTRAL LTDA          000000798055                                                                                                                                                                    
0010001300110A44754155775624915010EMPRESA TESTE LTDA            000000581797                                                                                                                                                                    
0010001300111A37632617871429941917SUPERMERCADO IDEAL            000000543498                                                                                                                                                                    
0010001300112A65998692188380523365RESTAURANTE SABOR             000000114755                                                                                                                                                                    
0010001300113A14217757309348422928CONSTRUTORA PARAIBA           000000193539                                                                                                                                                                    
0010001300114A29690061582365152247TRANSPORTES EXPRESS           000000645310                                                                                                                                                                    
0010001300115A91940876556201874858MARIA OLIVEIRA                000000695176                                                                                                                                                                    
0010001300116A60265720386054181959MARIA OLIVEIRA                000000596531                                                                                                                                                                    
0010001300117@45945130283004811082ACADEMIA CORPO ATIVO          000000901338                                                                                                                                                                    
0010001300118A50131426874430435584MATERIAL DE CONSTRUCAO        000000210496                                                                                                                                                                    
0010001300119A21882196752478818817CONSTRUTORA PARAIBA           000000398594                                                                                                                                                                    
0010001300120A64359258139441849868ATACADO BRASIL                000000066841                                                                                                                                                                    
0010001300121A18095751977232716498MATERIAL DE CONSTRUCAO        000000072853                                                                                                                                                                    
0010001300122A88320745438270621221ATACADO BRASIL                000000301887                                                                                                                                                                    
0010001300123A31418477689605320005PAPELARIA ESCOLAR             000000333079                                                                                                                                                                    
0010001300124A22631644761003030543TRANSPORTES EXPRESS           000000543311                                                                                                                                                                    
0010001300125A84109089807721704057PADARIA SAO JOSE              000000759352                                                                                                                                                                    
0010001300126A52826998828197741703MARIA OLIVEIRA                000000150556                                                                                                                                                                    
0010001300127A65449097621472363864JOAO DA SILVA                 000000590145                                                                                                                                                                    
0010001300128A80350459784876290978HOTEL PRAIA AZUL              000000125553                                                                                                                                                                    
0010001300129A84436213548388934640PAPELARIA ESCOLAR             000000077614                                                                                                                                                                    
0010001300130A77234511191934847622LOJA DE INFORMATICA           000000719014                                                                                                                                                                    
0010001300131A72474826647992624309FARMACIA POPULAR              000000716152                                                                                                                                                                    
0010001300132A58194120436191428167OFICINA MECANICA              000000667725                                                                                                                                                                    
0010001300133A68165128182316474434PAPELARIA ESCOLAR             000000922264                                                                                                                                                                    
0010001300134A32575860307178148133LOJA DE INFORMATICA           000000668140                                                                                                                                                                    
0010001300135A44715619230402253733OFICINA MECANICA              000000776052                                                                                                                                                                    
0010001300136A12656031850425972931MATERIAL DE CONSTRUCAO        000000430405                                                                                                                                                                    
0010001300137A34957363281033579592CONSTRUTORA PARAIBA           000000441697                                                                                                                                                                    
0010001300138A73045909904822176168MATERIAL DE CONSTRUCAO        000000465555                                                                                                                                                                    
0010001300139A72505738134656830127OFICINA MECANICA              000000354310                                                                                                                                                                    
0010001300140A77614205519825564848SUPERMERCADO IDEAL            000000758543ERRO_LAYOUT                                                                                                                                                         
0010001300141A32984774410372045274AUTO PECAS BRASIL             000000596096                                                                                                                                                                    
0010001300142A98251543809696568918OFICINA MECANICA              000000944189                                                                                                                                                                    
0010001300143A79951497960793831430OFICINA MECANICA              000000675382                                                                                                                                                                    
0010001300144A69278864554551996039SUPERMERCADO IDEAL            000000493174                                                                                                                                                                    
0010001300145A76843549696176133843MARIA OLIVEIRA                000000209196                                                                                                                                                                    
0010001300146A90016131007708724352PADARIA SAO JOSE              000000691794                                                                                                                                                                    
0010001300147A90906878517291654992PADARIA SAO JOSE              000000286696                                                                                                                                                                    
0010001300148A42636718102536036225CONSTRUTORA PARAIBA           000000603103                                                                                                                                                                    
0010001300149A43219575608269858752SUPERMERCADO IDEAL            000000431368                                                                                                                                                                    
0010001300150A37090515124346521769SUPERMERCADO IDEAL            000000799765                                                                                                                                                                    
0010001300151A55871241621479526354CLINICA MEDICA VIDA           000000978442                                                                                                                                                                    
0010001300152A95082376902298940140MARIA OLIVEIRA                000000709135                                                                                                                                                                    
0010001300153A24516891462628096491EMPRESA TESTE LTDA            000000022608                                                                                                                                                                    
0010001300154A47866603895045041437EMPRESA TESTE LTDA            000000328612                                                                                                                                                                    
0010001300155A63528831305639977915AUTO PECAS BRASIL             000000779804                                                                                                                                                                    
0010001300156A46117924029158779380LOJA DE INFORMATICA           000000881615                                                                                                                                                                    
0010001300157A90482038742818153347ACADEMIA CORPO ATIVO          000000611890                                                                                                                                                                    
0010001300158A80618831197957934576RESTAURANTE SABOR             000000355169                                                                                                                                                                    
0010001300159A50125689656179119905LOJA DE INFORMATICA           000000106529                                                                                                                                                                    
0010001300160@38811740055037403944SUPERMERCADO IDEAL            000000171287                                                                                                                                                                    
0010001300161A36004004153418329669PAPELARIA ESCOLAR             000000579250                                                                                                                                                                    
0010001300162A45116174149321895492MERCADO CENTRAL LTDA          000000696217                                                                                                                                                                    
0010001300163A74062094251454226971RESTAURANTE SABOR             000000178838                                                                                                                                                                    
0010001300164A84155064856645151130OFICINA MECANICA              000000976263                                                                                                                                                                    
0010001300165A94576314613961930548PADARIA SAO JOSE              000000469163                                                                                                                                                                    
0010001300166A28221976002638879266OFICINA MECANICA              000000072336                                                                                                                                                                    
0010001300167A86276242626287455699LOJA DE INFORMATICA           000000710377                                                                                                                                                                    
0010001300168A45358055134839177315MERCADO CENTRAL LTDA          000000980548ERRO_LAYOUT                                                                                                                                                         
0010001300169A90330254998082699421RESTAURANTE SABOR             000000016830                                                                                                                                                                    
0010001300170A46740413564868684733OFICINA MECANICA              000000892703                                                                                                                                                                    
0010001300171A87329178108611394336POSTO COMBUSTIVEL             000000545812                                                                                                                                                                    
0010001300172A26895835226708566697RESTAURANTE SABOR             000000334142                                                                                                                                                                    
0010001300173A13078428121219963320FARMACIA POPULAR              000000734643                                                                                                                                                                    
0010001300174A70193817554967311487TRANSPORTES EXPRESS           000000354013                                                                                                                                                                    
0010001300175A22163977163884017990ACADEMIA CORPO ATIVO          000000578152                                                                                                                                                                    
0010001300176A97338715750153832725JOAO DA SILVA                 000000317514                                                                                                                                                                    
0010001300177A72350307389311932678MARIA OLIVEIRA                000000729162                                                                                                                                                                    
0010001300178A53084859531153984947ATACADO BRASIL                000000895192                                                                                                                                                                    
0010001300179A79804699699044682770TRANSPORTES EXPRESS           000000741737                                                                                                                                                                    
0010001300180A60158857464259485713PAPELARIA ESCOLAR             000000202373                                                                                                                                                                    
0010001300181A52088850164658994586EMPRESA TESTE LTDA            000000957824                                                                                                                                                                    
0010001300182A26524946523914511661JOAO DA SILVA                 000000850238                                                                                                                                                                    
0010001300183A14481839966299069028PADARIA SAO JOSE              000000391626                                                                                                                                                                    
0010001300184A86627887850485000715FARMACIA POPULAR              000000816811                                                                                                                                                                    
0010001300185A25932275820196724689JOAO DA SILVA                 000000758332                                                                                                                                                                    
0010001300186A29745077136203048732HOTEL PRAIA AZUL              000000656641                                                                                                                                                                    
0010001300187A21299833191274633912MARIA OLIVEIRA                000000738452                                                                                                                                                                    
0010001300188A27092050879961239074PADARIA SAO JOSE              000000096258                                                                                                                                                                    
0010001300189A27550083286257075500JOAO DA SILVA                 000000454101                                                                                                                                                                    
0010001300190A41093850213093593642AUTO PECAS BRASIL             000000052527                                                                                                                                                                    
0010001300191A66805124274702250653ACADEMIA CORPO ATIVO          000000655933ERRO_LAYOUT                                                                                                                                                         
0010001300192A55548893387727434428HOTEL PRAIA AZUL              000000907126                                                                                                                                                                    
0010001300193A66470396810855440222PADARIA SAO JOSE              000000532340                                                                                                                                                                    
0010001300194A33303063424347262878PAPELARIA ESCOLAR             000000603486                                                                                                                                                                    
0010001300195A31918393949305064822ACADEMIA CORPO ATIVO          000000793123                                                                                                                                                                    
0010001300196A32647354460055170479CONSTRUTORA PARAIBA           000000666257                                                                                                                                                                    
0010001300197A57819645954283716198CLINICA MEDICA VIDA           000000432408ERRO_LAYOUT                                                                                                                                                         
0010001300198A33711500488088094811TRANSPORTES EXPRESS           000000263239                                                                                                                                                                    
0010001300199A19786935729251886562POSTO COMBUSTIVEL             000000295220                                                                                                                                                                    
0010001300200A12974798917723069763MARIA OLIVEIRA                000000065932                                                                                                                                                                    
0010001300201A84901232935036273553TRANSPORTES EXPRESS           000000083935ERRO_LAYOUT                                                                                                                                                         
0010001300202A22442349663607612587ACADEMIA CORPO ATIVO          000000616808                                                                                                                                                                    
0010001300203A57393395778565009158ACADEMIA CORPO ATIVO          000000472784                                                                                                                                                                    
0010001300204A72173706623431651710LOJA DE INFORMATICA           000000800596                                                                                                                                                                    
0010001300205A89569563390592734700AUTO PECAS BRASIL             000000239292                                                                                                                                                                    
0010001300206A13146146491250550244OFICINA MECANICA              000000429735                                                                                                                                                                    
0010001300207A81572899485853327252ACADEMIA CORPO ATIVO          000000968403                                                                                                                                                                    
0010001300208A72778728326250304907MATERIAL DE CONSTRUCAO        000000474241                                                                                                                                                                    
0010001300209A72452635737962851937JOAO DA SILVA                 000000915886                                                                                                                                                                    
0010001300210A61434416484895543588CONSTRUTORA PARAIBA           000000912623                                                                                                                                                                    
0010001300211A68095879323947329328OFICINA MECANICA              000000014727                                                                                                                                                                    
0010001300212A45147730952578000124SUPERMERCADO IDEAL            000000621839                                                                                                                                                                    
0010001300213A31839277760642539192MERCADO CENTRAL LTDA          000000017285                                                                                                                                                                    
0010001300214A37158924088153190525POSTO COMBUSTIVEL             000000353800                                                                                                                                                                    
0010001300215A65740169973034658643CONSTRUTORA PARAIBA           000000166106                                                                                                                                                                    
0010001300216A57026812892942145766FARMACIA POPULAR              000000199272                                                                                                                                                                    
0010001300217A73325020577694445418PADARIA SAO JOSE              000000511115                                                                                                                                                                    
0010001300218A22281643138092035722OFICINA MECANICA              000000111261                                                                                                                                                                    
0010001300219A64472318780862153143RESTAURANTE SABOR             000000637443                                                                                                                                                                    
0010001300220A31056548722931990362ATACADO BRASIL                000000989261                                                                                                                                                                    
0010001300221A43270954316521666071TRANSPORTES EXPRESS           000000514433                                                                                                                                                                    
0010001300222A64544379162102192128PADARIA SAO JOSE              000000355127                                                                                                                                                                    
0010001300223A91700582058680956863MERCADO CENTRAL LTDA          000000628318                                                                                                                                                                    
0010001300224A56663561246178161375ACADEMIA CORPO ATIVO          000000760062                                                                                                                                                                    
0010001300225A49257134376401862413HOTEL PRAIA AZUL              000000496624                                                                                                                                                                    
0010001300226A65666920112676992436OFICINA MECANICA              000000437356                                                                                                                                                                    
0010001300227A41143301876130374197ACADEMIA CORPO ATIVO          000000664762                                                                                                                                                                    
0010001300228A61407499651419959193PAPELARIA ESCOLAR             000000357409                                                                                                                                                                    
0010001300229A61536845980702125362AUTO PECAS BRASIL             000000945764                                                                                                                                                                    
0010001300230A64703338053996103461HOTEL PRAIA AZUL              000000955752                                                                                                                                                                    
0010001300231A96849205851486089398CLINICA MEDICA VIDA           000000248631                                                                                                                                                                    
0010001300232A43566746752767614233RESTAURANTE SABOR             000000590760                                                                                                                                                                    
0010001300233A26427878123963528157ACADEMIA CORPO ATIVO          000000535880                                                                                                                                                                    
0010001300234A67103421049876735665SUPERMERCADO IDEAL            000000653999                                                                                                                                                                    
0010001300235A85286838090697013853RESTAURANTE SABOR             000000485264                                                                                                                                                                    
0010001300236A66574788762978553433CONSTRUTORA PARAIBA           000000815297                                                                                                                                                                    
0010001300237A41579121798102759670OFICINA MECANICA              000000889054                                                                                                                                                                    
0010001300238A66428982197504654183FARMACIA POPULAR              000000234281                                                                                                                                                                    
0010001300239A46949810332623232293OFICINA MECANICA              000000865004                                                                                                                                                                    
0010001300240A92688510255727580515SUPERMERCADO IDEAL            000000821852                                                                                                                                                                    
0010001300241A64540891031298338954RESTAURANTE SABOR             000000329529                                                                                                                                                                    
0010001300242A94810514217704109102MERCADO CENTRAL LTDA          000000310079                                                                                                                                                                    
0010001300243A87383041467983881687ATACADO BRASIL                000000296276                                                                                                                                                                    
0010001300244A72276372363366624461JOAO DA SILVA                 000000312761                                                                                                                                                                    
0010001300245A32214307631902759435LOJA DE INFORMATICA           000000026611                                                                                                                                                                    
0010001300246A17773886492592237339OFICINA MECANICA              000000487624                                                                                                                                                                    
0010001300247A38689563764262700773CLINICA MEDICA VIDA           000000465813                                                                                                                                                                    
0010001300248A15793882817950288282POSTO COMBUSTIVEL             000000478191                                                                                                                                                                    
0010001300249A55256014969709157892PADARIA SAO JOSE              000000615069                                                                                                                                                                    
0010001300250A12285827233326513717ACADEMIA CORPO ATIVO          000000579517                                                                                                                                                                    
0010001300251A35250309092547973941ACADEMIA CORPO ATIVO          000000872310ERRO_LAYOUT                                                                                                                                                         
0010001300252A20148054282268698461TRANSPORTES EXPRESS           000000677824                                                                                                                                                                    
0010001300253A35743126824982549432ACADEMIA CORPO ATIVO          000000642963                                                                                                                                                                    
0010001300254A24029330068305143468LOJA DE INFORMATICA           000000339853                                                                                                                                                                    
0010001300255A97741779118798947503MARIA OLIVEIRA                000000926264                                                                                                                                                                    
0010001300256A41611523608803739009RESTAURANTE SABOR             000000067080                                                                                                                                                                    
0010001300257A29699179484919661349SUPERMERCADO IDEAL            000000107320                                                                                                                                                                    
0010001300258A14335235731317268305OFICINA MECANICA              000000374526                                                                                                                                                                    
0010001300259A66837346414809941689ACADEMIA CORPO ATIVO          000000787424                                                                                                                                                                    
0010001300260A91176001882251957163MARIA OLIVEIRA                000000550266                                                                                                                                                                    
0010001300261A41259605454752291980PAPELARIA ESCOLAR             000000862916                                                                                                                                                                    
0010001300262A43469111238098665459MATERIAL DE CONSTRUCAO        000000166886                                                                                                                                                                    
0010001300263A33256819110625989956FARMACIA POPULAR              000000059359                                                                                                                                                                    
0010001300264A96395730578956543463JOAO DA SILVA                 000000055132                                                                                                                                                                    
0010001300265A18830331604812147594MARIA OLIVEIRA                000000229739                                                                                                                                                                    
0010001300266A56127630743072836503ACADEMIA CORPO ATIVO          000000406449                                                                                                                                                                    
0010001300267A84142181804293208427LOJA DE INFORMATICA           000000516237                                                                                                                                                                    
0010001300268A91441244572112307305EMPRESA TESTE LTDA            000000042179                                                                                                                                                                    
0010001300269A20877466919539792477AUTO PECAS BRASIL             000000240754                                                                                                                                                                    
0010001300270A19065929992964039998OFICINA MECANICA              000000736016                                                                                                                                                                    
0010001300271A68368803524128259956AUTO PECAS BRASIL             000000159751                                                                                                                                                                    
0010001300272A97516037373154533223LOJA DE INFORMATICA           000000278650ERRO_LAYOUT                                                                                                                                                         
0010001300273A74764297975275071932PADARIA SAO JOSE              000000875474                                                                                                                                                                    
0010001300274A97698984389515616885POSTO COMBUSTIVEL             000000350833                                                                                                                                                                    
0010001300275A63457338522974950415CONSTRUTORA PARAIBA           000000125056                                                                                                                                                                    
0010001300276A70604595985344411707JOAO DA SILVA                 000000467286                                                                                                                                                                    
0010001300277A32220764561803008657MERCADO CENTRAL LTDA          000000043783                                                                                                                                                                    
0010001300278A24842910989521784545AUTO PECAS BRASIL             000000209964                                                                                                                                                                    
0010001300279A40883655732960653749HOTEL PRAIA AZUL              000000857688                                                                                                                                                                    
0010001300280A71998369105412469302MARIA OLIVEIRA                000000679399                                                                                                                                                                    
0010001300281A88026223385068519129POSTO COMBUSTIVEL             000000227437                                                                                                                                                                    
0010001300282A47332751755104446662JOAO DA SILVA                 000000227036                                                                                                                                                                    
0010001300283A69146767715878605208CONSTRUTORA PARAIBA           000000755042                                                                                                                                                                    
0010001300284A82326343705855151400RESTAURANTE SABOR             000000588172                                                                                                                                                                    
0010001300285A14584356243607736208CLINICA MEDICA VIDA           000000112571                                                                                                                                                                    
0010001300286A21423639574631200768JOAO DA SILVA                 000000992878                                                                                                                                                                    
0010001300287A27158413036100519431LOJA DE INFORMATICA           000000466779                                                                                                                                                                    
0010001300288A97230008342778006809PADARIA SAO JOSE              000000102055                                                                                                                                                                    
0010001300289A35236063946928334842AUTO PECAS BRASIL             000000443821ERRO_LAYOUT                                                                                                                                                         
0010001300290A16877332952173161756POSTO COMBUSTIVEL             000000437866                                                                                                                                                                    
0010001300291A47306594339732064311MARIA OLIVEIRA                000000942268                                                                                                                                                                    
0010001300292A34018585278807365046POSTO COMBUSTIVEL             000000479223                                                                                                                                                                    
0010001300293A24623887462784324089RESTAURANTE SABOR             000000183161                                                                                                                                                                    
0010001300294A12076859400574471451FARMACIA POPULAR              000000477458                                                                                                                                                                    
0010001300295A57176529971819982609POSTO COMBUSTIVEL             000000023754                                                                                                                                                                    
0010001300296A75730003866905197225EMPRESA TESTE LTDA            000000767064                                                                                                                                                                    
0010001300297A31274535035240310668EMPRESA TESTE LTDA            000000416949                                                                                                                                                                    
0010001300298A16962262880172551103MARIA OLIVEIRA                000000521686                                                                                                                                                                    
0010001300299A80659353276065480843TRANSPORTES EXPRESS           000000183624                                                                                                                                                                    
0010001300300A84031747361389179104MARIA OLIVEIRA                000000688605                                                                                                                                                                    
0010001300301A78601058536033935694AUTO PECAS BRASIL             000000840996                                                                                                                                                                    
0010001300302A24948391619885230677MARIA OLIVEIRA                000000916053                                                                                                                                                                    
0010001300303A47765918273259843209OFICINA MECANICA              000000092810                                                                                                                                                                    
0010001300304A72115668829650140817RESTAURANTE SABOR             000000571144                                                                                                                                                                    
0010001300305A38422134821689485749ACADEMIA CORPO ATIVO          000000771007                                                                                                                                                                    
0010001300306A71737337049192208441PADARIA SAO JOSE              000000608496                                                                                                                                                                    
0010001300307@72204448568774426718OFICINA MECANICA              000000804686                                                                                                                                                                    
0010001300308A81747302891906186559PAPELARIA ESCOLAR             000000427736                                                                                                                                                                    
0010001300309A83074681448090206953EMPRESA TESTE LTDA            000000631502                                                                                                                                                                    
0010001300310A44767913167338191921ACADEMIA CORPO ATIVO          000000969738                                                                                                                                                                    
0010001300311A77246944039010940444MATERIAL DE CONSTRUCAO        000000790415                                                                                                                                                                    
0010001300312A26412822905069371488ACADEMIA CORPO ATIVO          000000531049                                                                                                                                                                    
0010001300313A86462685642406763989ACADEMIA CORPO ATIVO          000000566552                                                                                                                                                                    
0010001300314A43061689861837573229CONSTRUTORA PARAIBA           000000085814                                                                                                                                                                    
0010001300315A84561341458781265610MERCADO CENTRAL LTDA          000000603518                                                                                                                                                                    
0010001300316A42092008435421931346ACADEMIA CORPO ATIVO          000000513042                                                                                                                                                                    
0010001300317A61593938011418710393PAPELARIA ESCOLAR             000000982540                                                                                                                                                                    
0010001300318A35692620172078195419HOTEL PRAIA AZUL              000000368291                                                                                                                                                                    
0010001300319A28224471590859872484FARMACIA POPULAR              000000671680                                                                                                                                                                    
0010001300320A36815185005997115244AUTO PECAS BRASIL             000000751092                                                                                                                                                                    
0010001300321A37581625581272880766EMPRESA TESTE LTDA            000000728794                                                                                                                                                                    
0010001300322A34101702876758962888CONSTRUTORA PARAIBA           000000317669                                                                                                                                                                    
0010001300323A87646847275400586953MERCADO CENTRAL LTDA          000000997873                                                                                                                                                                    
0010001300324A13523449409151087540JOAO DA SILVA                 000000032708                                                                                                                                                                    
0010001300325A30680193533518840151PADARIA SAO JOSE              000000867960                                                                                                                                                                    
0010001300326A22552668484312261095EMPRESA TESTE LTDA            000000265844                                                                                                                                                                    
0010001300327A27543087161348033841TRANSPORTES EXPRESS           000000990872                                                                                                                                                                    
0010001300328A77544322330425953913JOAO DA SILVA                 000000731815                                                                                                                                                                    
0010001300329A52431486274995601332CONSTRUTORA PARAIBA           000000393227                                                                                                                                                                    
0010001300330A70944106108743376895CLINICA MEDICA VIDA           000000618435                                                                                                                                                                    
0010001300331A20945120881095196070RESTAURANTE SABOR             000000033149                                                                                                                                                                    
0010001300332A52789655107902351747JOAO DA SILVA                 000000268307                                                                                                                                                                    
0010001300333A24200071153237428661TRANSPORTES EXPRESS           000000722140                                                                                                                                                                    
0010001300334A17009159517908695530RESTAURANTE SABOR             000000796021                                                                                                                                                                    
0010001300335A66941937632639153030POSTO COMBUSTIVEL             000000570247                                                                                                                                                                    
0010001300336A29977172360553857867MERCADO CENTRAL LTDA          000000476873                                                                                                                                                                    
0010001300337@60711062805514939450FARMACIA POPULAR              000000633029                                                                                                                                                                    
0010001300338A52849434702701045160PAPELARIA ESCOLAR             000000815015                                                                                                                                                                    
0010001300339A81105597995579340940AUTO PECAS BRASIL             000000643629                                                                                                                                                                    
0010001300340A11751587836594588650SUPERMERCADO IDEAL            000000622355ERRO_LAYOUT                                                                                                                                                         
0010001300341A18198285966790395076ATACADO BRASIL                000000190136                                                                                                                                                                    
0010001300342A47792119042566111353HOTEL PRAIA AZUL              000000123484                                                                                                                                                                    
0010001300343A74872334949829464591PADARIA SAO JOSE              000000946190                                                                                                                                                                    
0010001300344A47627972871934032880CLINICA MEDICA VIDA           000000347614                                                                                                                                                                    
0010001300345A69013404663791387824RESTAURANTE SABOR             000000261240                                                                                                                                                                    
0010001300346A47702833134915072580PADARIA SAO JOSE              000000234375                                                                                                                                                                    
0010001300347A80937663103046046913FARMACIA POPULAR              000000748602                                                                                                                                                                    
0010001300348A26817070191022363378MERCADO CENTRAL LTDA          000000172520                                                                                                                                                                    
0010001300349A65777018019453189785RESTAURANTE SABOR             000000384587                                                                                                                                                                    
0010001300350A78233052743743942993JOAO DA SILVA                 000000742920                                                                                                                                                                    
0010001300351A95497559676730483802MERCADO CENTRAL LTDA          000000439059                                                                                                                                                                    
0010001300352A47512134122077791908TRANSPORTES EXPRESS           000000584452                                                                                                                                                                    
0010001300353A17789234295972390626EMPRESA TESTE LTDA            000000091580                                                                                                                                                                    
0010001300354A71937573557126688332CONSTRUTORA PARAIBA           000000531847                                                                                                                                                                    
0010001300355A44597476837727190490MERCADO CENTRAL LTDA          000000025380                                                                                                                                                                    
0010001300356A85380360457420834445PADARIA SAO JOSE              000000697026                                                                                                                                                                    
0010001300357A56963914291506050720PAPELARIA ESCOLAR             000000275882                                                                                                                                                                    
0010001300358A40552654178825359820HOTEL PRAIA AZUL              000000433430                                                                                                                                                                    
0010001300359A20324026281047905667FARMACIA POPULAR              000000212381                                                                                                                                                                    
0010001300360A33987096455611100026CONSTRUTORA PARAIBA           000000011837                                                                                                                                                                    
0010001300361A84893669985703567213JOAO DA SILVA                 000000118329                                                                                                                                                                    
0010001300362A59177381554407195843HOTEL PRAIA AZUL              000000556389                                                                                                                                                                    
0010001300363A49421832013901722851FARMACIA POPULAR              000000902489                                                                                                                                                                    
0010001300364A43226742051966208206AUTO PECAS BRASIL             000000696392                                                                                                                                                                    
0010001300365A74162856851795990414AUTO PECAS BRASIL             000000103958                                                                                                                                                                    
0010001300366A90941684979356898694PAPELARIA ESCOLAR             000000900504                                                                                                                                                                    
0010001300367A29754960243298823151SUPERMERCADO IDEAL            000000899616                                                                                                                                                                    
0010001300368A66594500478852747044ATACADO BRASIL                000000076216                                                                                                                                                                    
0010001300369A31485526394038366502TRANSPORTES EXPRESS           000000880663                                                                                                                                                                    
0010001300370A62166942858612311078TRANSPORTES EXPRESS           000000062671                                                                                                                                                                    
0010001300371A17966614564317651428ACADEMIA CORPO ATIVO          000000818651                                                                                                                                                                    
0010001300372A28957077681562608960OFICINA MECANICA              000000409858                                                                                                                                                                    
0010001300373A67688988838064713752CLINICA MEDICA VIDA           000000995605                                                                                                                                                                    
0010001300374A40166780710347857691FARMACIA POPULAR              000000628174                                                                                                                                                                    
0010001300375A70646026330248393299EMPRESA TESTE LTDA            000000453862                                                                                                                                                                    
0010001300376A65910495076207160227EMPRESA TESTE LTDA            000000589071                                                                                                                                                                    
0010001300377A47630408816231369824POSTO COMBUSTIVEL             000000412470                                                                                                                                                                    
0010001300378@58059226135070299129LOJA DE INFORMATICA           000000897029                                                                                                                                                                    
0010001300379A74338323574713334445HOTEL PRAIA AZUL              000000729122                                                                                                                                                                    
0010001300380A39034955900545875395RESTAURANTE SABOR             000000353549                                                                                                                                                                    
0010001300381A78094755184633903141ACADEMIA CORPO ATIVO          000000558717                                                                                                                                                                    
0010001300382A64125714598817006671LOJA DE INFORMATICA           000000623409                                                                                                                                                                    
0010001300383A51096435474955102457ACADEMIA CORPO ATIVO          000000951386                                                                                                                                                                    
0010001300384A38887876521264040366OFICINA MECANICA              000000321328                                                                                                                                                                    
0010001300385A62125614398223735508ATACADO BRASIL                000000709042                                                                                                                                                                    
0010001300386A52031314782429815514CLINICA MEDICA VIDA           000000444536                                                                                                                                                                    
0010001300387A40605198477495399301CLINICA MEDICA VIDA           000000933909                                                                                                                                                                    
0010001300388A59590975687611171339AUTO PECAS BRASIL             000000720580ERRO_LAYOUT                                                                                                                                                         
0010001300389A96932514164464838758PAPELARIA ESCOLAR             000000336842                                                                                                                                                                    
0010001300390A92322108254325029999ATACADO BRASIL                000000181939                                                                                                                                                                    
0010001300391A87582095521328999305ACADEMIA CORPO ATIVO          000000192071                                                                                                                                                                    
0010001300392A35364247703048453346CONSTRUTORA PARAIBA           000000507970                                                                                                                                                                    
0010001300393A92255493207497694219ACADEMIA CORPO ATIVO          000000153548                                                                                                                                                                    
0010001300394A21178427291228550211POSTO COMBUSTIVEL             000000130573                                                                                                                                                                    
0010001300395A83489385456441857699JOAO DA SILVA                 000000069878                                                                                                                                                                    
0010001300396A64124997629376898929RESTAURANTE SABOR             000000476951ERRO_LAYOUT                                                                                                                                                         
0010001300397A62041184014405844015ATACADO BRASIL                000000595118                                                                                                                                                                    
0010001300398A50567895386065563958MARIA OLIVEIRA                000000448583                                                                                                                                                                    
0010001300399A83449339327735398090CLINICA MEDICA VIDA           000000113429                                                                                                                                                                    
0010001300400A73404636493736788851ACADEMIA CORPO ATIVO          000000125346                                                                                                                                                                    
0010001300401A13340792663426542641OFICINA MECANICA              000000797148                                                                                                                                                                    
0010001300402A28339568103196851078MARIA OLIVEIRA                000000888427                                                                                                                                                                    
0010001300403A15116315577605807715PAPELARIA ESCOLAR             000000561321                                                                                                                                                                    
0010001300404A36254584614618999136MARIA OLIVEIRA                000000934707                                                                                                                                                                    
0010001300405A20451322839092508809JOAO DA SILVA                 000000116944                                                                                                                                                                    
0010001300406A52006442391918468648TRANSPORTES EXPRESS           000000252471                                                                                                                                                                    
0010001300407A87853332434101291155CLINICA MEDICA VIDA           000000598435                                                                                                                                                                    
0010001300408A12798424558774926825PAPELARIA ESCOLAR             000000612594                                                                                                                                                                    
0010001300409A42509642015031716551PADARIA SAO JOSE              000000844948                                                                                                                                                                    
0010001300410A80560998076308650144AUTO PECAS BRASIL             000000568125                                                                                                                                                                    
0010001300411@85468908887622529725CLINICA MEDICA VIDA           000000282931                                                                                                                                                                    
0010001300412A30211796086087704849TRANSPORTES EXPRESS           000000231807                                                                                                                                                                    
0010001300413A92263377176914383211PADARIA SAO JOSE              000000935309                                                                                                                                                                    
