00100000                                                                                                                                                                                                                                        
0010001300001A83993451846167893870AUTO PECAS BRASIL             000000469386                                                                                                                                                                    
0010001300002A17324871008727449489CONSTRUTORA PARAIBA           000000856810                                                                                                                                                                    
0010001300003A31564392880298677375PAPELARIA ESCOLAR             000000961410                                                                                                                                                                    
0010001300004A96960270118015828020CLINICA MEDICA VIDA           000000000808                                                                                                                                                                    
0010001300005A89162983300705521998HOTEL PRAIA AZUL              000000253684                                                                                                                                                                    
0010001300006A89652876811089794953PAPELARIA ESCOLAR             000000111429                                                                                                                                                                    
0010001300007A52860250676327698231CLINICA MEDICA VIDA           000000499873                                                                                                                                                                    
0010001300008A37021771776885727044TRANSPORTES EXPRESS           000000338492                                                                                                                                                                    
0010001300009A53906606793964009637JOAO DA SILVA                 000000575815                                                                                                                                                                    
0010001300010A19817377325727555527ACADEMIA CORPO ATIVO          000000030850                                                                                                                                                                    
0010001300011A79741761205140016786ACADEMIA CORPO ATIVO          000000506400ERRO_LAYOUT                                                                                                                                                         
0010001300012A87263652564247552721EMPRESA TESTE LTDA            000000999809                                                                                                                                                                    
0010001300013A86352459366349001382OFICINA MECANICA              000000909637                                                                                                                                                                    
0010001300014A93644606407757697096MATERIAL DE CONSTRUCAO        000000084278                                                                                                                                                                    
0010001300015A89475396221838582386TRANSPORTES EXPRESS           000000041390                                                                                                                                                                    
0010001300016A58911326027181941255MARIA OLIVEIRA                000000004674ERRO_LAYOUT                                                                                                                                                         
0010001300017A50280968425899881152POSTO COMBUSTIVEL             000000623337                                                                                                                                                                    
0010001300018A40226778272220953800ATACADO BRASIL                000000994039                                                                                                                                                                    
0010001300019A55955917923740882410MATERIAL DE CONSTRUCAO        000000052308                                                                                                                                                                    
0010001300020A42723443574477412776HOTEL PRAIA AZUL              000000205806                                                                                                                                                                    
0010001300021A12278010470161764704SUPERMERCADO IDEAL            000000356506                                                                                                                                                                    
0010001300022A10243363471166860577ATACADO BRASIL                000000410538                                                                                                                                                                    
0010001300023A21539620247882088090RESTAURANTE SABOR             000000288706                                                                                                                                                                    
0010001300024A65763727442469122964CLINICA MEDICA VIDA           000000361470                                                                                                                                                                    
0010001300025A46809806199265706372PADARIA SAO JOSE              000000238191                                                                                                                                                                    
0010001300026A68827268017232672272CLINICA MEDICA VIDA           000000221161                                                                                                                                                                    
0010001300027A65629427227868801332PADARIA SAO JOSE              000000929595                                                                                                                                                                    
0010001300028A61879369165397003343PADARIA SAO JOSE              000000948745                                                                                                                                                                    
0010001300029A49455608506929435608HOTEL PRAIA AZUL              000000473251                                                                                                                                                                    
0010001300030A69753025873371793198LOJA DE INFORMATICA           000000026191                                                                                                                                                                    
0010001300031A61816396108205218032RESTAURANTE SABOR             000000927177                                                                                                                                                                    
0010001300032A22735254944318897844POSTO COMBUSTIVEL             000000319994                                                                                                                                                                    
0010001300033A57916552442926735904TRANSPORTES EXPRESS           000000711337                                                                                                                                                                    
0010001300034A82095726783848493140POSTO COMBUSTIVEL             000000052213                                                                                                                                                                    
0010001300035A90804660282128963018RESTAURANTE SABOR             000000827411                                                                                                                                                                    
0010001300036A58809000924535365784POSTO COMBUSTIVEL             000000985493                                                                                                                                                                    
0010001300037A50930923459285339721ACADEMIA CORPO ATIVO          000000759849                                                                                                                                                                    
0010001300038A54619594748305202262ATACADO BRASIL                000000208375                                                                                                                                                                    
0010001300039A37793276214482166626LOJA DE INFORMATICA           000000588942                                                                                                                                                                    
0010001300040A44239917283366207657OFICINA MECANICA              000000686827                                                                                                                                                                    
0010001300041A82766870767809483848PADARIA SAO JOSE              000000896292                                                                                                                                                                    
0010001300042A80690229104397985299AUTO PECAS BRASIL             000000455367                                                                                                                                                                    
0010001300043A56441249835543299821FARMACIA POPULAR              000000161850                                                                                                                                                                    
0010001300044A73839074558880001263OFICINA MECANICA              000000550104                                                                                                                                                                    
0010001300045A32942274416557236567TRANSPORTES EXPRESS           000000809027                                                                                                                                                                    
0010001300046A95041040071338155300AUTO PECAS BRASIL             000000688896                                                                                                                                                                    
0010001300047A58862250416409231828LOJA DE INFORMATICA           000000255800                                                                                                                                                                    
0010001300048A47477765974429744746JOAO DA SILVA                 000000800330                                                                                                                                                                    
0010001300049A61474635308490553948ACADEMIA CORPO ATIVO          000000838656                                                                                                                                                                    
0010001300050A84375078666467136290PADARIA SAO JOSE              000000557954                                                                                                                                                                    
0010001300051A72735403411862608554PADARIA SAO JOSE              000000768513                                                                                                                                                                    
0010001300052A10151089020202290176MATERIAL DE CONSTRUCAO        000000206746                                                                                                                                                                    
0010001300053A97772528122915595786AUTO PECAS BRASIL             000000594794                                                                                                                                                                    
0010001300054A73962988612600650466FARMACIA POPULAR              000000959209                                                                                                                                                                    
0010001300055A52699274028421302038OFICINA MECANICA              000000699452ERRO_LAYOUT                                                                                                                                                         
0010001300056A22647550574773976741FARMACIA POPULAR              000000589638                                                                                                                                                                    
0010001300057A10527159092975072007TRANSPORTES EXPRESS           000000144496                                                                                                                                                                    
0010001300058A48921498872043136002MARIA OLIVEIRA                000000709549                                                                                                                                                                    
0010001300059A46983242048830346715ACADEMIA CORPO ATIVO          000000024384                                                                                                                                                                    
0010001300060A48631416257792223544AUTO PECAS BRASIL             000000360199                                                                                                                                                                    
0010001300061A26320173043355424441SUPERMERCADO IDEAL            000000953104                                                                                                                                                                    
0010001300062A57899277682895512544FARMACIA POPULAR              000000864508                                                                                                                                                                    
0010001300063A79186299098890420523CLINICA MEDICA VIDA           000000900273                                                                                                                                                                    
0010001300064A60884097307418722887AUTO PECAS BRASIL             000000082590                                                                                                                                                                    
0010001300065A11855195936097601044SUPERMERCADO IDEAL            000000250710                                                                                                                                                                    
0010001300066A90291166163883614476JOAO DA SILVA                 000000288218                                                                                                                                                                    
0010001300067A44475807368066562145CONSTRUTORA PARAIBA           000000375458                                                                                                                                                                    
0010001300068A81664111610625344138POSTO COMBUSTIVEL             000000156324                                                                                                                                                                    
0010001300069A56551697525537355376RESTAURANTE SABOR             000000234398                                                                                                                                                                    
0010001300070A87336846499025107249OFICINA MECANICA              000000365593                                                                                                                                                                    
0010001300071A98510915245663683921EMPRESA TESTE LTDA            000000613097                                                                                                                                                                    
0010001300072A15980045965521728503EMPRESA TESTE LTDA            000000499889ERRO_LAYOUT                                                                                                                                                         
0010001300073A63922775773304941233OFICINA MECANICA              000000869156                                                                                                                                                                    
0010001300074A22885744876064952712TRANSPORTES EXPRESS           000000142404                                                                                                                                                                    
0010001300075A87226869360050695291MERCADO CENTRAL LTDA          000000436027                                                                                                                                                                    
0010001300076A32132336051590791473MATERIAL DE CONSTRUCAO        000000262432                                                                                                                                                                    
0010001300077A59212237643085843235RESTAURANTE SABOR             000000392846                                                                                                                                                                    
0010001300078A84317271373212280731POSTO COMBUSTIVEL             000000551356                                                                                                                                                                    
0010001300079A77422899784276890249CONSTRUTORA PARAIBA           000000167645                                                                                                                                                                    
0010001300080A94654976006147085451MARIA OLIVEIRA                000000444587                                                                                                                                                                    
0010001300081A14317301519233735878CLINICA MEDICA VIDA           000000872785                                                                                                                                                                    
0010001300082A14436422449473909921FARMACIA POPULAR              000000967880                                                                                                                                                                    
0010001300083A57919344844507697492EMPRESA TESTE LTDA            000000457097                                                                                                                                                                    
0010001300084A52626084377507879554MARIA OLIVEIRA                000000746976                                                                                                                                                                    
0010001300085A97088989447944293680HOTEL PRAIA AZUL              000000566176                                                                                                                                                                    
0010001300086A78687834336269088361MATERIAL DE CONSTRUCAO        000000238718ERRO_LAYOUT                                                                                                                                                         
0010001300087A27658509803558071138LOJA DE INFORMATICA           000000526570                                                                                                                                                                    
0010001300088A59023526392251798663SUPERMERCADO IDEAL            000000060062                                                                                                                                                                    
0010001300089A54285796905543717452OFICINA MECANICA              000000048542                                                                                                                                                                    
0010001300090A40981710446940704013PAPELARIA ESCOLAR             000000184339                                                                                                                                                                    
0010001300091A41771782793259001870MERCADO CENTRAL LTDA          000000258381                                                                                                                                                                    
0010001300092A67784695545730611901OFICINA MECANICA              000000804471                                                                                                                                                                    
0010001300093A73485639580782130309MATERIAL DE CONSTRUCAO        000000193882                                                                                                                                                                    
0010001300094@21245760182233046920MERCADO CENTRAL LTDA          000000753329                                                                                                                                                                    
0010001300095A20892250377759309310LOJA DE INFORMATICA           000000659351                                                                                                                                                                    
0010001300096A69928520246854772101CLINICA MEDICA VIDA           000000390707                                                                                                                                                                    
0010001300097A26354858189308919136PADARIA SAO JOSE              000000696849                                                                                                                                                                    
0010001300098A76136295494991212817RESTAURANTE SABOR             000000124568                                                                                                                                                                    
0010001300099@21852343486111990117ACADEMIA CORPO ATIVO          000000016667                                                                                                                                                                    
0010001300100A96392004284667845880MERCADO CENTRAL LTDA          000000994908                                                                                                                                                                    
0010001300101@82608739160663217632CLINICA MEDICA VIDA           000000132752                                                                                                                                                                    
0010001300102A24921531727174741389MATERIAL DE CONSTRUCAO        000000224106                                                                                                                                                                    
0010001300103A97274392133974825621RESTAURANTE SABOR             000000239791                                                                                                                                                                    
0010001300104A39857035245560389489PADARIA SAO JOSE              000000102808                                                                                                                                                                    
0010001300105A38591437068266961722CONSTRUTORA PARAIBA           000000594852                                                                                                                                                                    
0010001300106A36612261505120326665MATERIAL DE CONSTRUCAO        000000456387                                                                                                                                                                    
0010001300107A18929079785857740192JOAO DA SILVA                 000000376522                                                                                                                                                                    
0010001300108A94207173941775333361MATERIAL DE CONSTRUCAO        000000511096                                                                                                                                                                    
0010001300109A97446515295738956272EMPRESA TESTE LTDA            000000391386                                                                                                                                                                    
0010001300110A13624725313726385053POSTO COMBUSTIVEL             000000287581                                                                                                                                                                    
0010001300111A10942968845819909255PADARIA SAO JOSE              000000006263                                                                                                                                                                    
0010001300112A88288642514852211392RESTAURANTE SABOR             000000582008                                                                                                                                                                    
0010001300113A58661610733477763211MARIA OLIVEIRA                000000178463                                                                                                                                                                    
0010001300114A89619991065924047306CONSTRUTORA PARAIBA           000000474674                                                                                                                                                                    
0010001300115A17315993895947477288FARMACIA POPULAR              000000680179                                                                                                                                                                    
0010001300116A47770152789048285281JOAO DA SILVA                 000000634055                                                                                                                                                                    
0010001300117A70378822119757825145MATERIAL DE CONSTRUCAO        000000712523                                                                                                                                                                    
0010001300118A31143577840389583030TRANSPORTES EXPRESS           000000568117ERRO_LAYOUT                                                                                                                                                         
0010001300119A10823711789335470538FARMACIA POPULAR              000000870527                                                                                                                                                                    
0010001300120A40714396770644357706MATERIAL DE CONSTRUCAO        000000181003                                                                                                                                                                    
0010001300121A15784383887854957366FARMACIA POPULAR              000000256547                                                                                                                                                                    
0010001300122A16923006907445912617MERCADO CENTRAL LTDA          000000572089                                                                                                                                                                    
0010001300123A31392377086390122261JOAO DA SILVA                 000000103426                                                                                                                                                                    
0010001300124A50012075809042986445FARMACIA POPULAR              000000182355                                                                                                                                                                    
0010001300125A98008461117746715445AUTO PECAS BRASIL             000000718522                                                                                                                                                                    
0010001300126A77738627923902737375ATACADO BRASIL                000000127563ERRO_LAYOUT                                                                                                                                                         
0010001300127A77094034580787476819FARMACIA POPULAR              000000435611                                                                                                                                                                    
0010001300128A28613458262322975548PAPELARIA ESCOLAR             000000592902                                                                                                                                                                    
0010001300129A78959082581562441808CLINICA MEDICA VIDA           000000013343                                                                                                                                                                    
0010001300130A97605177236844601677HOTEL PRAIA AZUL              000000740846                                                                                                                                                                    
0010001300131A77294018400768414756TRANSPORTES EXPRESS           000000505663                                                                                                                                                                    
0010001300132A10851741115654006106JOAO DA SILVA                 000000370864                                                                                                                                                                    
0010001300133A48383846837683516881MERCADO CENTRAL LTDA          000000818559                                                                                                                                                                    
0010001300134A83169445738321805738JOAO DA SILVA                 000000479039                                                                                                                                                                    
0010001300135A51347347296540889473PAPELARIA ESCOLAR             000000383023                                                                                                                                                                    
0010001300136A24651825525779172455PAPELARIA ESCOLAR             000000878754                                                                                                                                                                    
0010001300137A15914782629102473514PADARIA SAO JOSE              000000227317                                                                                                                                                                    
0010001300138A83905400008427075162OFICINA MECANICA              000000084958                                                                                                                                                                    
0010001300139A58371343472396590435LOJA DE INFORMATICA           000000379482                                                                                                                                                                    
0010001300140A64136400069390324554TRANSPORTES EXPRESS           000000635021                                                                                                                                                                    
0010001300141@86402136047511472127CONSTRUTORA PARAIBA           000000360932                                                                                                                                                                    
0010001300142A25176184096464654084CLINICA MEDICA VIDA           000000195202                                                                                                                                                                    
0010001300143A73231492983113767685EMPRESA TESTE LTDA            000000247907                                                                                                                                                                    
0010001300144A24958116157003000109ATACADO BRASIL                000000524887                                                                                                                                                                    
0010001300145A42283343487163654226TRANSPORTES EXPRESS           000000252301                                                                                                                                                                    
0010001300146A71877304526986012590MERCADO CENTRAL LTDA          000000141104                                                                                                                                                                    
0010001300147A91914967989048810803FARMACIA POPULAR              000000985714                                                                                                                                                                    
0010001300148A53760386043394090624RESTAURANTE SABOR             000000217651                                                                                                                                                                    
0010001300149A30262744578726147799PAPELARIA ESCOLAR             000000887265ERRO_LAYOUT                                                                                                                                                         
0010001300150A60681317365682201846MARIA OLIVEIRA                000000174030                                                                                                                                                                    
0010001300151A31025411839718882635LOJA DE INFORMATICA           000000699727                                                                                                                                                                    
0010001300152A27734972555929508081LOJA DE INFORMATICA           000000311652                                                                                                                                                                    
0010001300153A68585176016003168205TRANSPORTES EXPRESS           000000214841ERRO_LAYOUT                                                                                                                                                         
0010001300154A46909139747918176053MERCADO CENTRAL LTDA          000000075197                                                                                                                                                                    
0010001300155@73771847926851541947MERCADO CENTRAL LTDA          000000717533                                                                                                                                                                    
0010001300156A35356770158995971181LOJA DE INFORMATICA           000000536298                                                                                                                                                                    
0010001300157A85865825589032990809CONSTRUTORA PARAIBA           000000557800                                                                                                                                                                    
0010001300158A36222013631561991805TRANSPORTES EXPRESS           000000274755                                                                                                                                                                    
0010001300159A54056324611203170978CONSTRUTORA PARAIBA           000000564913                                                                                                                                                                    
0010001300160A75769589357583917325HOTEL PRAIA AZUL              000000535412                                                                                                                                                                    
0010001300161A69333041309454158847PAPELARIA ESCOLAR             000000585973                                                                                                                                                                    
0010001300162@46179436579242599646JOAO DA SILVA                 000000029781                                                                                                                                                                    
0010001300163A69396474280680198558CLINICA MEDICA VIDA           000000965349                                                                                                                                                                    
0010001300164A69543089359192633067FARMACIA POPULAR              000000723717                                                                                                                                                                    
0010001300165A68433145423371914007MARIA OLIVEIRA                000000402021                                                                                                                                                                    
0010001300166A39483617652730480232POSTO COMBUSTIVEL             000000067642                                                                                                                                                                    
0010001300167A63640232638836813241MARIA OLIVEIRA                000000395539                                                                                                                                                                    
0010001300168A20680838738057678600EMPRESA TESTE LTDA            000000569703                                                                                                                                                                    
0010001300169A31588941719906298186ATACADO BRASIL                000000164598                                                                                                                                                                    
0010001300170A18851010476715295927ATACADO BRASIL                000000202034                                                                                                                                                                    
0010001300171A85401160704254436500MERCADO CENTRAL LTDA          000000468131                                                                                                                                                                    
0010001300172A82790856783370953943MARIA OLIVEIRA                000000889273                                                                                                                                                                    
0010001300173A55756382551882032449MATERIAL DE CONSTRUCAO        000000551462                                                                                                                                                                    
0010001300174A97201059582257764538POSTO COMBUSTIVEL             000000873176                                                                                                                                                                    
0010001300175A94516253670365236422MATERIAL DE CONSTRUCAO        000000654707                                                                                                                                                                    
0010001300176A47942743111312285828PADARIA SAO JOSE              000000975127                                                                                                                                                                    
0010001300177A12487024606301752751RESTAURANTE SABOR             000000130373                                                                                                                                                                    
0010001300178A88936557395051137487TRANSPORTES EXPRESS           000000829028                                                                                                                                                                    
0010001300179A83562751640192405991OFICINA MECANICA              000000541987                                                                                                                                                                    
0010001300180A85537956416440398855CLINICA MEDICA VIDA           000000560602ERRO_LAYOUT                                                                                                                                                         
0010001300181A27854614666063502554TRANSPORTES EXPRESS           000000080808                                                                                                                                                                    
0010001300182A86889035326929511525MATERIAL DE CONSTRUCAO        000000384427                                                                                                                                                                    
0010001300183A71840848291592574088PADARIA SAO JOSE              000000781128                                                                                                                                                                    
0010001300184A79236062504003717164MERCADO CENTRAL LTDA          000000438984ERRO_LAYOUT                                                                                                                                                         
0010001300185A76570654760321041466AUTO PECAS BRASIL             000000511808                                                                                                                                                                    
0010001300186A94127367182100362921EMPRESA TESTE LTDA            000000093087                                                                                                                                                                    
0010001300187A96893892351070234067HOTEL PRAIA AZUL              000000930249                                                                                                                                                                    
0010001300188A66328091739857536627ATACADO BRASIL                000000993897                                                                                                                                                                    
0010001300189A22870282112098118783MERCADO CENTRAL LTDA          000000800802                                                                                                                                                                    
0010001300190A19215828957647200215TRANSPORTES EXPRESS           000000517836                                                                                                                                                                    
0010001300191A41278434747230626629MERCADO CENTRAL LTDA          000000408014                                                                                                                                                                    
0010001300192A68927569775083707234MERCADO CENTRAL LTDA          000000841404                                                                                                                                                                    
0010001300193A14465531003656178846RESTAURANTE SABOR             000000643842                                                                                                                                                                    
0010001300194A56612771487223471870POSTO COMBUSTIVEL             000000606591                                                                                                                                                                    
0010001300195A25399227839322523777FARMACIA POPULAR              000000499454                                                                                                                                                                    
0010001300196A86800107945650853607OFICINA MECANICA              000000786254                                                                                                                                                                    
0010001300197A90641261062732975807ACADEMIA CORPO ATIVO          000000528081                                                                                                                                                                    
0010001300198A44450673785641177862CLINICA MEDICA VIDA           000000961716                                                                                                                                                                    
0010001300199A30727911885195940405RESTAURANTE SABOR             000000892030                                                                                                                                                                    
0010001300200A16309261598210427998MATERIAL DE CONSTRUCAO        000000848106                                                                                                                                                                    
0010001300201A89739210474306889914EMPRESA TESTE LTDA            000000660021                                                                                                                                                                    
0010001300202A80689240939099726008TRANSPORTES EXPRESS           000000941753                                                                                                                                                                    
0010001300203@35736251133034267416HOTEL PRAIA AZUL              000000627393                                                                                                                                                                    
0010001300204A14763096957317439787AUTO PECAS BRASIL             000000758564ERRO_LAYOUT                                                                                                                                                         
0010001300205A34319062668869546694MERCADO CENTRAL LTDA          000000329301                                                                                                                                                                    
0010001300206@39572118300237702174JOAO DA SILVA                 000000938319                                                                                                                                                                    
0010001300207A91164619145628251377ACADEMIA CORPO ATIVO          000000812924                                                                                                                                                                    
0010001300208A21469491631556336528HOTEL PRAIA AZUL              000000449571ERRO_LAYOUT                                                                                                                                                         
0010001300209A52535495763111099624HOTEL PRAIA AZUL              000000564631                                                                                                                                                                    
0010001300210A95063082676488987788PADARIA SAO JOSE              000000736848                                                                                                                                                                    
0010001300211A73842378094377461578AUTO PECAS BRASIL             000000344685                                                                                                                                                                    
0010001300212A67054813904453802018CONSTRUTORA PARAIBA           000000533009                                                                                                                                                                    
0010001300213A37125356806600637446TRANSPORTES EXPRESS           000000474917                                                                                                                                                                    
0010001300214A67572728755858079434FARMACIA POPULAR              000000741036                                                                                                                                                                    
0010001300215A27978583688995285765PADARIA SAO JOSE              000000320576                                                                                                                                                                    
0010001300216A14987498529924699899CLINICA MEDICA VIDA           000000550823                                                                                                                                                                    
0010001300217A66471587809360307996FARMACIA POPULAR              000000193905                                                                                                                                                                    
0010001300218A69669470571867402654ACADEMIA CORPO ATIVO          000000323628                                                                                                                                                                    
0010001300219A10265928710800771675PAPELARIA ESCOLAR             000000104829                                                                                                                                                                    
0010001300220A61483067256682357867LOJA DE INFORMATICA           000000281595                                                                                                                                                                    
0010001300221A33441221405403685973JOAO DA SILVA                 000000165084                                                                                                                                                                    
0010001300222A33602804409469290937OFICINA MECANICA              000000007778                                                                                                                                                                    
0010001300223A57978560478080984896MATERIAL DE CONSTRUCAO        000000431434                                                                                                                                                                    
0010001300224A11676095881597645698ATACADO BRASIL                000000446580                                                                                                                                                                    
0010001300225A83935737801186379908HOTEL PRAIA AZUL              000000298951                                                                                                                                                                    
0010001300226A71038972040254684852OFICINA MECANICA              000000201851                                                                                                                                                                    
0010001300227A93732569801264573338EMPRESA TESTE LTDA            000000940939                                                                                                                                                                    
0010001300228A18623080010796303477ACADEMIA CORPO ATIVO          000000326255                                                                                                                                                                    
0010001300229A40184176543696190846LOJA DE INFORMATICA           000000879614                                                                                                                                                                    
0010001300230A28264458589251128665CLINICA MEDICA VIDA           000000058613                                                                                                                                                                    
0010001300231A24386643945379730776JOAO DA SILVA                 000000674338                                                                                                                                                                    
0010001300232A71211942506962040519ACADEMIA CORPO ATIVO          000000646550                                                                                                                                                                    
0010001300233A31665692169180120037RESTAURANTE SABOR             000000400898ERRO_LAYOUT                                                                                                                                                         
0010001300234A91770399336630376479TRANSPORTES EXPRESS           000000629191                                                                                                                                                                    
0010001300235A86883833282646409211OFICINA MECANICA              000000245181                                                                                                                                                                    
0010001300236A75250919994092521419EMPRESA TESTE LTDA            000000596405                                                                                                                                                                    
0010001300237A99204297381458770290FARMACIA POPULAR              000000821598                                                                                                                                                                    
0010001300238A34083031450661881347POSTO COMBUSTIVEL             000000685559                                                                                                                                                                    
0010001300239@44286257682208022381LOJA DE INFORMATICA           000000002407                                                                                                                                                                    
0010001300240A40867813976878953113ATACADO BRASIL                000000780953                                                                                                                                                                    
0010001300241A70323784424475132910AUTO PECAS BRASIL             000000211463                                                                                                                                                                    
0010001300242A93726044280913122006FARMACIA POPULAR              000000998629                                                                                                                                                                    
0010001300243A33194092467769447969RESTAURANTE SABOR             000000389045                                                                                                                                                                    
0010001300244A75058164118878544711TRANSPORTES EXPRESS           000000946471                                                                                                                                                                    
0010001300245A74706203932649281635OFICINA MECANICA              000000851475                                                                                                                                                                    
0010001300246A50135095220455368898FARMACIA POPULAR              000000762895                                                                                                                                                                    
0010001300247A68597835961165449975CLINICA MEDICA VIDA           000000990704                                                                                                                                                                    
0010001300248A57121932409566683712ACADEMIA CORPO ATIVO          000000021935                                                                                                                                                                    
0010001300249A33408707294355253939ACADEMIA CORPO ATIVO          000000861182                                                                                                                                                                    
0010001300250A84187434251615899824OFICINA MECANICA              000000171111                                                                                                                                                                    
0010001300251A65131713842204652397CLINICA MEDICA VIDA           000000285291                                                                                                                                                                    
0010001300252A28599054007269448081HOTEL PRAIA AZUL              000000447758                                                                                                                                                                    
0010001300253A83052165741375511313LOJA DE INFORMATICA           000000342731                                                                                                                                                                    
0010001300254A89740034579855291908MERCADO CENTRAL LTDA          000000880386                                                                                                                                                                    
0010001300255A74016180533434556873ACADEMIA CORPO ATIVO          000000047077                                                                                                                                                                    
0010001300256A18446890037302561654PAPELARIA ESCOLAR             000000548540                                                                                                                                                                    
0010001300257A10083567853853183209HOTEL PRAIA AZUL              000000837041                                                                                                                                                                    
0010001300258A53169493967172877388SUPERMERCADO IDEAL            000000577318                                                                                                                                                                    
0010001300259A82856152804037195154AUTO PECAS BRASIL             000000980058                                                                                                                                                                    
0010001300260A65081149585876807662CLINICA MEDICA VIDA           000000676490                                                                                                                                                                    
0010001300261A77643509652515663932ATACADO BRASIL                000000454802                                                                                                                                                                    
0010001300262A92087529319562791180PAPELARIA ESCOLAR             000000641084                                                                                                                                                                    
0010001300263A70103441797734396826JOAO DA SILVA                 000000428530                                                                                                                                                                    
0010001300264A67304657674423984527JOAO DA SILVA                 000000914649                                                                                                                                                                    
0010001300265@20777363795650555351EMPRESA TESTE LTDA            000000887488                                                                                                                                                                    
0010001300266A11490378446910539491AUTO PECAS BRASIL             000000837304                                                                                                                                                                    
0010001300267A82778483467679562221MERCADO CENTRAL LTDA          000000353178                                                                                                                                                                    
0010001300268A73066306573406465700ACADEMIA CORPO ATIVO          000000000154                                                                                                                                                                    
0010001300269A16248032264237747710PAPELARIA ESCOLAR             000000763433                                                                                                                                                                    
0010001300270A22658616605473695562CONSTRUTORA PARAIBA           000000515364                                                                                                                                                                    
0010001300271A52289735870420683737HOTEL PRAIA AZUL              000000929996ERRO_LAYOUT                                                                                                                                                         
0010001300272A31780107412415383201LOJA DE INFORMATICA           000000728120                                                                                                                                                                    
0010001300273A83480441711416104670HOTEL PRAIA AZUL              000000542342                                                                                                                                                                    
0010001300274A79757097603012143904TRANSPORTES EXPRESS           000000898595ERRO_LAYOUT                                                                                                                                                         
0010001300275A55830429340274597456LOJA DE INFORMATICA           000000047874                                                                                                                                                                    
0010001300276A63517710058275210516PADARIA SAO JOSE              000000834142                                                                                                                                                                    
0010001300277A18017573122102070197RESTAURANTE SABOR             000000871926                                                                                                                                                                    
0010001300278A93693973421608686488PADARIA SAO JOSE              000000943303                                                                                                                                                                    
0010001300279A80125985562295083899MERCADO CENTRAL LTDA          000000315367                                                                                                                                                                    
0010001300280A16095512823646595183FARMACIA POPULAR              000000565195                                                                                                                                                                    
0010001300281A74388403453824462812PADARIA SAO JOSE              000000792372                                                                                                                                                                    
0010001300282A39016179418079104103TRANSPORTES EXPRESS           000000901300                                                                                                                                                                    
0010001300283A26014953925491653132CONSTRUTORA PARAIBA           000000205476                                                                                                                                                                    
0010001300284A56340968388006060137FARMACIA POPULAR              000000019965ERRO_LAYOUT                                                                                                                                                         
0010001300285A11560228087415936594EMPRESA TESTE LTDA            000000891550                                                                                                                                                                    
0010001300286A67946797041120040716PAPELARIA ESCOLAR             000000606287                                                                                                                                                                    
0010001300287A57981497336687459354EMPRESA TESTE LTDA            000000845789                                                                                                                                                                    
0010001300288A40409866259426607900JOAO DA SILVA                 000000796065                                                                                                                                                                    
0010001300289A62751312540983851212SUPERMERCADO IDEAL            000000950687                                                                                                                                                                    
0010001300290A55372837645866936129ATACADO BRASIL                000000394414                                                                                                                                                                    
0010001300291A18759402232254624650AUTO PECAS BRASIL             000000406204                                                                                                                                                                    
0010001300292A36101292381264031208MARIA OLIVEIRA                000000991376                                                                                                                                                                    
0010001300293A79126552513083725790AUTO PECAS BRASIL             000000266154                                                                                                                                                                    
0010001300294A59437326202713267625AUTO PECAS BRASIL             000000659515                                                                                                                                                                    
0010001300295A70102535503867980375ATACADO BRASIL                000000818915                                                                                                                                                                    
0010001300296A41704987685009404015FARMACIA POPULAR              000000110149                                                                                                                                                                    
0010001300297A31223702444894547378FARMACIA POPULAR              000000388894                                                                                                                                                                    
0010001300298A77877147459739391790EMPRESA TESTE LTDA            000000500037                                                                                                                                                                    
0010001300299A66222303256449451945FARMACIA POPULAR              000000879014                                                                                                                                                                    
0010001300300A81682365238552857999LOJA DE INFORMATICA           000000293638                                                                                                                                                                    
0010001300301A71931771173140138307MATERIAL DE CONSTRUCAO        000000929287                                                                                                                                                                    
0010001300302@44867891627196258165CONSTRUTORA PARAIBA           000000257004                                                                                                                                                                    
0010001300303A56821207996361244825MARIA OLIVEIRA                000000534286                                                                                                                                                                    
0010001300304A90692215698156625505POSTO COMBUSTIVEL             000000717471                                                                                                                                                                    
0010001300305A40438294242842331361LOJA DE INFORMATICA           000000880181                                                                                                                                                                    
0010001300306A60043473585135131471SUPERMERCADO IDEAL            000000616068                                                                                                                                                                    
0010001300307A44097729971302237705MATERIAL DE CONSTRUCAO        000000786431                                                                                                                                                                    
0010001300308A61414977004727869365JOAO DA SILVA                 000000789926                                                                                                                                                                    
0010001300309A69767932946453152321CONSTRUTORA PARAIBA           000000488454                                                                                                                                                                    
0010001300310A75625632204732105601LOJA DE INFORMATICA           000000026337                                                                                                                                                                    
0010001300311A44534506124625845376JOAO DA SILVA                 000000908771                                                                                                                                                                    
0010001300312@73110931125220048261OFICINA MECANICA              000000084528                                                                                                                                                                    
0010001300313A55105096111012846189AUTO PECAS BRASIL             000000312625                                                                                                                                                                    
0010001300314A48296019098515581069RESTAURANTE SABOR             000000803865                                                                                                                                                                    
0010001300315A84882620137953619292HOTEL PRAIA AZUL              000000061115                                                                                                                                                                    
0010001300316A84644958253667478053POSTO COMBUSTIVEL             000000774446                                                                                                                                                                    
0010001300317A80029535971531506879OFICINA MECANICA              000000417882                                                                                                                                                                    
0010001300318A97178805649535980713SUPERMERCADO IDEAL            000000254031                                                                                                                                                                    
0010001300319A34781453307499356429ATACADO BRASIL                000000839474                                                                                                                                                                    
0010001300320A35188235755346189828ACADEMIA CORPO ATIVO          000000189151                                                                                                                                                                    
0010001300321A47572681794253097548MATERIAL DE CONSTRUCAO        000000030407                                                                                                                                                                    
0010001300322A11451415163543684499MARIA OLIVEIRA                000000771445                                                                                                                                                                    
0010001300323A61926344000572362651HOTEL PRAIA AZUL              000000790164                                                                                                                                                                    
0010001300324A11435094535572151933CLINICA MEDICA VIDA           000000723024                                                                                                                                                                    
0010001300325A94815437812913416241HOTEL PRAIA AZUL              000000620405                                                                                                                                                                    
0010001300326A28329025043020498680EMPRESA TESTE LTDA            000000574319                                                                                                                                                                    
0010001300327A37714064012600338057MATERIAL DE CONSTRUCAO        000000825911                                                                                                                                                                    
0010001300328A70444110990178301390TRANSPORTES EXPRESS           000000080316                                                                                                                                                                    
0010001300329A60362677812908559048RESTAURANTE SABOR             000000470572                                                                                                                                                                    
0010001300330A27032189028865152851ATACADO BRASIL                000000674162                                                                                                                                                                    
0010001300331A77292058153891202814ATACADO BRASIL                000000510610                                                                                                                                                                    
0010001300332A46894593584679811101MATERIAL DE CONSTRUCAO        000000768787                                                                                                                                                                    
0010001300333A72933073343071620772CONSTRUTORA PARAIBA           000000574258                                                                                                                                                                    
0010001300334A41581098896518284018OFICINA MECANICA              000000423846                                                                                                                                                                    
0010001300335A16916187011792439476ATACADO BRASIL                000000673184                                                                                                                                                                    
0010001300336A48144166537724642002PADARIA SAO JOSE              000000735554                                                                                                                                                                    
0010001300337A41205534736371960452JOAO DA SILVA                 000000765555                                                                                                                                                                    
0010001300338A74496819527373913420LOJA DE INFORMATICA           000000897015                                                                                                                                                                    
0010001300339@40998076761796675315CLINICA MEDICA VIDA           000000561119                                                                                                                                                                    
0010001300340A45318611713325756887EMPRESA TESTE LTDA            000000265784                                                                                                                                                                    
0010001300341A16540354612078513664AUTO PECAS BRASIL             000000918307                                                                                                                                                                    
0010001300342A75152684857237101563CONSTRUTORA PARAIBA           000000033897                                                                                                                                                                    
0010001300343A55831922254066123904MATERIAL DE CONSTRUCAO        000000909860                                                                                                                                                                    
0010001300344A87720080962130210207HOTEL PRAIA AZUL              000000878815                                                                                                                                                                    
0010001300345A70013354057736202416ATACADO BRASIL                000000356179                                                                                                                                                                    
0010001300346A70157602282756357526LOJA DE INFORMATICA           000000906849                                                                                                                                                                    
0010001300347A43713524298681750147JOAO DA SILVA                 000000197208                                                                                                                                                                    
0010001300348A58066821796724924365LOJA DE INFORMATICA           000000108220                                                                                                                                                                    
0010001300349A98232456462070615801RESTAURANTE SABOR             000000676578                                                                                                                                                                    
0010001300350A62357443611881955322EMPRESA TESTE LTDA            000000563469                                                                                                                                                                    
0010001300351A54523426722202415387RESTAURANTE SABOR             000000502437                                                                                                                                                                    
0010001300352A30208630219213184898EMPRESA TESTE LTDA            000000213543                                                                                                                                                                    
0010001300353A16760157736189438854ATACADO BRASIL                000000707171                                                                                                                                                                    
0010001300354A49501013662450562982ATACADO BRASIL                000000392150                                                                                                                                                                    
0010001300355A34889486908319259478CLINICA MEDICA VIDA           000000981215                                                                                                                                                                    
0010001300356A98098332958357220728OFICINA MECANICA              000000668772                                                                                                                                                                    
0010001300357A22797732443661803434RESTAURANTE SABOR             000000577212                                                                                                                                                                    
0010001300358A52941591771166112125CLINICA MEDICA VIDA           000000846018                                                                                                                                                                    
0010001300359A56532178851352301740EMPRESA TESTE LTDA            000000961302                                                                                                                                                                    
0010001300360A83403396938425105179ACADEMIA CORPO ATIVO          000000378642ERRO_LAYOUT                                                                                                                                                         
0010001300361A67380480529558119028MATERIAL DE CONSTRUCAO        000000362028                                                                                                                                                                    
0010001300362A39899103758467834121AUTO PECAS BRASIL             000000564272                                                                                                                                                                    
0010001300363@25750099065112974024HOTEL PRAIA AZUL              000000231142                                                                                                                                                                    
0010001300364A85478540078673470352MARIA OLIVEIRA                000000768013                                                                                                                                                                    
0010001300365A46759796037755103260PAPELARIA ESCOLAR             000000068289                                                                                                                                                                    
0010001300366A50381372631355170667SUPERMERCADO IDEAL            000000737854ERRO_LAYOUT                                                                                                                                                         
0010001300367A43507223905543539391LOJA DE INFORMATICA           000000959261                                                                                                                                                                    
0010001300368A96499317289363496034OFICINA MECANICA              000000602227                                                                                                                                                                    
0010001300369A13198460333291390611ATACADO BRASIL                000000329766                                                                                                                                                                    
0010001300370A15445331680987776821EMPRESA TESTE LTDA            000000310187                                                                                                                                                                    
0010001300371A17407795652052537105AUTO PECAS BRASIL             000000261676                                                                                                                                                                    
0010001300372A53467141488842899626AUTO PECAS BRASIL             000000890314                                                                                                                                                                    
0010001300373A27566279291544615586ACADEMIA CORPO ATIVO          000000234411                                                                                                                                                                    
0010001300374A13501363824990836720LOJA DE INFORMATICA           000000311351                                                                                                                                                                    
0010001300375A91921087933790866556EMPRESA TESTE LTDA            000000704448                                                                                                                                                                    
0010001300376A78998239281468403020OFICINA MECANICA              000000643832ERRO_LAYOUT                                                                                                                                                         
0010001300377A71238886215980661454TRANSPORTES EXPRESS           000000777537                                                                                                                                                                    
0010001300378A78399058998069007967FARMACIA POPULAR              000000785810                                                                                                                                                                    
0010001300379A52527617827317954853LOJA DE INFORMATICA           000000125592                                                                                                                                                                    
0010001300380A87176788059251271733HOTEL PRAIA AZUL              000000103154                                                                                                                                                                    
0010001300381A51816936648906330912SUPERMERCADO IDEAL            000000057851                                                                                                                                                                    
0010001300382A65762807048732725605MERCADO CENTRAL LTDA          000000962397                                                                                                                                                                    
0010001300383A79142326873549488124CONSTRUTORA PARAIBA           000000723640                                                                                                                                                                    
0010001300384A11720775879533590400MARIA OLIVEIRA                000000938755                                                                                                                                                                    
0010001300385A40187141895184222057PADARIA SAO JOSE              000000696515                                                                                                                                                                    
0010001300386A67618366325025154055PAPELARIA ESCOLAR             000000148363                                                                                                                                                                    
0010001300387A98991277820027793476SUPERMERCADO IDEAL            000000159425                                                                                                                                                                    
0010001300388A56102496610231540099CONSTRUTORA PARAIBA           000000178881ERRO_LAYOUT                                                                                                                                                         
0010001300389A46056069878248326191JOAO DA SILVA                 000000554878                                                                                                                                                                    
0010001300390A58541263992703462450RESTAURANTE SABOR             000000600866                                                                                                                                                                    
0010001300391A23756757468952333698JOAO DA SILVA                 000000362134                                                                                                                                                                    
0010001300392A32696773498701252151OFICINA MECANICA              000000516289                                                                                                                                                                    
0010001300393A42467438480166179416PAPELARIA ESCOLAR             000000657868                                                                                                                                                                    
0010001300394A31359496916541653077JOAO DA SILVA                 000000048991ERRO_LAYOUT                                                                                                                                                         
0010001300395A88718369597827095603ACADEMIA CORPO ATIVO          000000645692                                                                                                                                                                    
0010001300396A42005397376177793172POSTO COMBUSTIVEL             000000844268                                                                                                                                                                    
0010001300397A75605865591728368876MERCADO CENTRAL LTDA          000000151879                                                                                                                                                                    
0010001300398A16449870171911546900LOJA DE INFORMATICA           000000351034                                                                                                                                                                    
0010001300399A47717982190809647981ATACADO BRASIL                000000927653                                                                                                                                                                    
0010001300400A74858907856636616099JOAO DA SILVA                 000000845266                                                                                                                                                                    
0010001300401A47703628936534979552PAPELARIA ESCOLAR             000000030173                                                                                                                                                                    
0010001300402A50249483464742390945JOAO DA SILVA                 000000438938                                                                                                                                                                    
0010001300403@81691590025903431177POSTO COMBUSTIVEL             000000473170                                                                                                                                                                    
0010001300404A16291545962239120516HOTEL PRAIA AZUL              000000024525                                                                                                                                                                    
0010001300405A26060190396656272241ATACADO BRASIL                000000764173                                                                                                                                                                    
0010001300406A56210190693709433294TRANSPORTES EXPRESS           000000411291                                                                                                                                                                    
0010001300407A59581356159993054814AUTO PECAS BRASIL             000000037090                                                                                                                                                                    
0010001300408A81953001985421161457ACADEMIA CORPO ATIVO          000000657562                                                                                                                                                                    
0010001300409A71878111367758323434SUPERMERCADO IDEAL            000000231371                                                                                                                                                                    
0010001300410A75649453416613377598ATACADO BRASIL                000000533467                                                                                                                                                                    
0010001300411A74756380381531290367CONSTRUTORA PARAIBA           000000364579                                                                                                                                                                    
0010001300412A43749940185301895420EMPRESA TESTE LTDA            000000216110                                                                                                                                                                    
0010001300413A99343962159305417112JOAO DA SILVA                 000000927797                                                                                                                                                                    
