00100000                                                                                                                                                                                                                                        
0010001300001A31302241567738068857LOJA DE INFORMATICA           000000228375                                                                                                                                                                    
0010001300002A84865802634132805190PAPELARIA ESCOLAR             000000064018                                                                                                                                                                    
0010001300003@15784987773131510683MARIA OLIVEIRA                000000612654                                                                                                                                                                    
0010001300004A12904121257064129019ATACADO BRASIL                000000084102                                                                                                                                                                    
0010001300005A13427865586446734800CLINICA MEDICA VIDA           000000071362                                                                                                                                                                    
0010001300006A44344502352374577868CONSTRUTORA PARAIBA           000000125810                                                                                                                                                                    
0010001300007A94466147920299161620MARIA OLIVEIRA                000000649568                                                                                                                                                                    
0010001300008A94213572714820766732ACADEMIA CORPO ATIVO          000000980210                                                                                                                                                                    
0010001300009A34242413464729442445POSTO COMBUSTIVEL             000000415111                                                                                                                                                                    
0010001300010A58800875994498196476MATERIAL DE CONSTRUCAO        000000331635                                                                                                                                                                    
0010001300011A65512072089131691907CLINICA MEDICA VIDA           000000590441                                                                                                                                                                    
0010001300012A11844328595485371725PAPELARIA ESCOLAR             000000223608                                                                                                                                                                    
0010001300013A33338828301244410060OFICINA MECANICA              000000923753                                                                                                                                                                    
0010001300014A44666417188056616611OFICINA MECANICA              000000298930                                                                                                                                                                    
0010001300015A99166856100357397792LOJA DE INFORMATICA           000000641490                                                                                                                                                                    
0010001300016A19757233652762869222PAPELARIA ESCOLAR             000000314021                                                                                                                                                                    
0010001300017A22237361866196095070SUPERMERCADO IDEAL            000000277412                                                                                                                                                                    
0010001300018A26412302689830747052PAPELARIA ESCOLAR             000000163098                                                                                                                                                                    
0010001300019A88984462159591283929AUTO PECAS BRASIL             000000752570                                                                                                                                                                    
0010001300020A62626952579532548905ATACADO BRASIL                000000512362                                                                                                                                                                    
0010001300021A10937074245993382080TRANSPORTES EXPRESS           000000869734                                                                                                                                                                    
0010001300022A10813257268481262579ACADEMIA CORPO ATIVO          000000808677                                                                                                                                                                    
0010001300023A20346905452913943497MERCADO CENTRAL LTDA          000000078998                                                                                                                                                                    
0010001300024A86536542597011201258MARIA OLIVEIRA                000000875236                                                                                                                                                                    
0010001300025A94532381182729711704SUPERMERCADO IDEAL            000000450764                                                                                                                                                                    
0010001300026A47665094475985208578OFICINA MECANICA              000000942750                                                                                                                                                                    
0010001300027A22302750038813126215OFICINA MECANICA              000000818111ERRO_LAYOUT                                                                                                                                                         
0010001300028A81475833931138770652CLINICA MEDICA VIDA           000000785984                                                                                                                                                                    
0010001300029A44395904141132747084PADARIA SAO JOSE              000000924331                                                                                                                                                                    
0010001300030@28903971836952584303ACADEMIA CORPO ATIVO          000000820491                                                                                                                                                                    
0010001300031A43402429236491107085POSTO COMBUSTIVEL             000000167031                                                                                                                                                                    
0010001300032A22936299266796773439CONSTRUTORA PARAIBA           000000914633                                                                                                                                                                    
0010001300033A81178482226230319882FARMACIA POPULAR              000000209367                                                                                                                                                                    
0010001300034A82282679404674142672OFICINA MECANICA              000000320115                                                                                                                                                                    
0010001300035A14112213719818416826AUTO PECAS BRASIL             000000417921                                                                                                                                                                    
0010001300036A99349777844998021157ACADEMIA CORPO ATIVO          000000984961                                                                                                                                                                    
0010001300037A33265313980848811170HOTEL PRAIA AZUL              000000278461                                                                                                                                                                    
0010001300038A85786650378677467458TRANSPORTES EXPRESS           000000362579                                                                                                                                                                    
0010001300039A61400527455998569945TRANSPORTES EXPRESS           000000635756                                                                                                                                                                    
0010001300040A19434090339283951983CONSTRUTORA PARAIBA           000000943299                                                                                                                                                                    
0010001300041A50399822677809514029MARIA OLIVEIRA                000000743315                                                                                                                                                                    
0010001300042A83818174814595151669PAPELARIA ESCOLAR             000000720321                                                                                                                                                                    
0010001300043A40817656452489838721OFICINA MECANICA              000000452348                                                                                                                                                                    
0010001300044A89878091835579016069ACADEMIA CORPO ATIVO          000000695712                                                                                                                                                                    
0010001300045A89326944319054116915LOJA DE INFORMATICA           000000699387                                                                                                                                                                    
0010001300046A71357244751880679445LOJA DE INFORMATICA           000000581443                                                                                                                                                                    
0010001300047A68879057356844822262CONSTRUTORA PARAIBA           000000710319                                                                                                                                                                    
0010001300048@45100566929229070094CLINICA MEDICA VIDA           000000596850                                                                                                                                                                    
0010001300049A52498991626336770699AUTO PECAS BRASIL             000000450870                                                                                                                                                                    
0010001300050A94485807065967066523ACADEMIA CORPO ATIVO          000000487675                                                                                                                                                                    
0010001300051A74769728114622538394PADARIA SAO JOSE              000000690955                                                                                                                                                                    
0010001300052A89021911477583161608CLINICA MEDICA VIDA           000000351570                                                                                                                                                                    
0010001300053A12718200874537725416MARIA OLIVEIRA                000000256836                                                                                                                                                                    
0010001300054A92551694769858493220EMPRESA TESTE LTDA            000000477638                                                                                                                                                                    
0010001300055A72423384768471385511CONSTRUTORA PARAIBA           000000255936                                                                                                                                                                    
0010001300056A79699554295918710293FARMACIA POPULAR              000000184530                                                                                                                                                                    
0010001300057A18569432920024473875PAPELARIA ESCOLAR             000000261403                                                                                                                                                                    
0010001300058A25649043505347514501MATERIAL DE CONSTRUCAO        000000139916                                                                                                                                                                    
0010001300059A81784138150654775442CLINICA MEDICA VIDA           000000854696                                                                                                                                                                    
0010001300060A55195809848459281288FARMACIA POPULAR              000000880760                                                                                                                                                                    
0010001300061@74956516472381092537FARMACIA POPULAR              000000288036                                                                                                                                                                    
0010001300062A60056067690142233335FARMACIA POPULAR              000000285013                                                                                                                                                                    
0010001300063A29933139533126134407SUPERMERCADO IDEAL            000000242595                                                                                                                                                                    
0010001300064A41247858714847123923AUTO PECAS BRASIL             000000067448                                                                                                                                                                    
0010001300065A54412369472238962772PAPELARIA ESCOLAR             000000488657                                                                                                                                                                    
0010001300066A29595343795030339119TRANSPORTES EXPRESS           000000408496                                                                                                                                                                    
0010001300067A97987201952505364097JOAO DA SILVA                 000000898448                                                                                                                                                                    
0010001300068A97909703442253395749CONSTRUTORA PARAIBA           000000500249                                                                                                                                                                    
0010001300069A64284002250130089924LOJA DE INFORMATICA           000000790175                                                                                                                                                                    
0010001300070A80756705154517697201PAPELARIA ESCOLAR             000000783926                                                                                                                                                                    
0010001300071A45008440223704990453RESTAURANTE SABOR             000000230180                                                                                                                                                                    
0010001300072A73379986992651507382JOAO DA SILVA                 000000407846                                                                                                                                                                    
0010001300073A80844825050978213650SUPERMERCADO IDEAL            000000652583                                                                                                                                                                    
0010001300074A94705470873125946086JOAO DA SILVA                 000000088125                                                                                                                                                                    
0010001300075A36353254135071718846MATERIAL DE CONSTRUCAO        000000190656                                                                                                                                                                    
0010001300076A70139269128449913899ACADEMIA CORPO ATIVO          000000222041                                                                                                                                                                    
0010001300077A52922729124571589849CONSTRUTORA PARAIBA           000000291873                                                                                                                                                                    
0010001300078A18675629862900715149PAPELARIA ESCOLAR             000000054715                                                                                                                                                                    
0010001300079A64453307163673228677FARMACIA POPULAR              000000681825                                                                                                                                                                    
0010001300080A45963988664135030009AUTO PECAS BRASIL             000000880095                                                                                                                                                                    
0010001300081A31257702224880982669SUPERMERCADO IDEAL            000000496664                                                                                                                                                                    
0010001300082A85897089130328336305AUTO PECAS BRASIL             000000487723                                                                                                                                                                    
0010001300083A86882139697986398727CLINICA MEDICA VIDA           000000784356                                                                                                                                                                    
0010001300084A85781046276456464166JOAO DA SILVA                 000000974108                                                                                                                                                                    
0010001300085A83015401306800809687CONSTRUTORA PARAIBA           000000987303                                                                                                                                                                    
0010001300086A13658538671487530016HOTEL PRAIA AZUL              000000724261                                                                                                                                                                    
0010001300087@40017324030682486695MERCADO CENTRAL LTDA          000000731159                                                                                                                                                                    
0010001300088A96409327677499298136MERCADO CENTRAL LTDA          000000835004                                                                                                                                                                    
0010001300089A90191755256227660222TRANSPORTES EXPRESS           000000693755                                                                                                                                                                    
0010001300090A85059003536281811903ACADEMIA CORPO ATIVO          000000013366                                                                                                                                                                    
0010001300091A67287080713134136301OFICINA MECANICA              000000666559                                                                                                                                                                    
0010001300092A80627183848436155016SUPERMERCADO IDEAL            000000456741                                                                                                                                                                    
0010001300093A97323110408101253065POSTO COMBUSTIVEL             000000645930                                                                                                                                                                    
0010001300094A74259187008118646499TRANSPORTES EXPRESS           000000865945                                                                                                                                                                    
0010001300095A57822715816067238051ACADEMIA CORPO ATIVO          000000893185                                                                                                                                                                    
0010001300096A94298846863315378773CONSTRUTORA PARAIBA           000000352837                                                                                                                                                                    
0010001300097A68694585492968841446AUTO PECAS BRASIL             000000372160                                                                                                                                                                    
0010001300098A51659248987076476382POSTO COMBUSTIVEL             000000923182                                                                                                                                                                    
0010001300099A20252534863172831633ATACADO BRASIL                000000994215                                                                                                                                                                    
0010001300100A30026024470055031538TRANSPORTES EXPRESS           000000512411                                                                                                                                                                    
0010001300101A42432413410242594596RESTAURANTE SABOR             000000677378                                                                                                                                                                    
0010001300102A74394287738175311299JOAO DA SILVA                 000000097673                                                                                                                                                                    
0010001300103A69427964374243018213FARMACIA POPULAR              000000321180ERRO_LAYOUT                                                                                                                                                         
0010001300104A72147458068675351482PAPELARIA ESCOLAR             000000556811                                                                                                                                                                    
0010001300105A57046363459056148454OFICINA MECANICA              000000737096                                                                                                                                                                    
0010001300106A51891014109609633366POSTO COMBUSTIVEL             000000241836                                                                                                                                                                    
0010001300107A41752091645251898820ACADEMIA CORPO ATIVO          000000125462                                                                                                                                                                    
0010001300108A41178014538128612284AUTO PECAS BRASIL             000000226995                                                                                                                                                                    
0010001300109A55825375540344074696HOTEL PRAIA AZUL              000000797235ERRO_LAYOUT                                                                                                                                                         
0010001300110A43806026404332835902LOJA DE INFORMATICA           000000238633                                                                                                                                                                    
0010001300111A50203600421586121634JOAO DA SILVA                 000000742511                                                                                                                                                                    
0010001300112A49228531627960112081MARIA OLIVEIRA                000000057274                                                                                                                                                                    
0010001300113A79226796773494978826MERCADO CENTRAL LTDA          000000915212                                                                                                                                                                    
0010001300114A57483103965677343554RESTAURANTE SABOR             000000502068                                                                                                                                                                    
0010001300115A34731659317150912575MARIA OLIVEIRA                000000264842                                                                                                                                                                    
0010001300116A81236215201973504827MERCADO CENTRAL LTDA          000000862150                                                                                                                                                                    
0010001300117A72731979802361354467EMPRESA TESTE LTDA            000000605150                                                                                                                                                                    
0010001300118A22662786359910685324SUPERMERCADO IDEAL            000000156545                                                                                                                                                                    
0010001300119A85972021941168599362TRANSPORTES EXPRESS           000000635870                                                                                                                                                                    
0010001300120A98373569933453018330FARMACIA POPULAR              000000813473                                                                                                                                                                    
0010001300121A72356968368417230923MATERIAL DE CONSTRUCAO        000000311897                                                                                                                                                                    
0010001300122A89420247452129151687CLINICA MEDICA VIDA           000000063256                                                                                                                                                                    
0010001300123A39985459768717842061POSTO COMBUSTIVEL             000000692609                                                                                                                                                                    
0010001300124A32871475633909982400PAPELARIA ESCOLAR             000000078811                                                                                                                                                                    
0010001300125A65389590647391552922MATERIAL DE CONSTRUCAO        000000722958                                                                                                                                                                    
0010001300126A55561843385891029666MARIA OLIVEIRA                000000242820                                                                                                                                                                    
0010001300127A59934521482369646055MATERIAL DE CONSTRUCAO        000000074737                                                                                                                                                                    
0010001300128A45669887277167592250TRANSPORTES EXPRESS           000000120451                                                                                                                                                                    
0010001300129A63650721662390512448SUPERMERCADO IDEAL            000000074978                                                                                                                                                                    
0010001300130A61514904442719300200CLINICA MEDICA VIDA           000000785439                                                                                                                                                                    
0010001300131@18100951355409195581MATERIAL DE CONSTRUCAO        000000722231                                                                                                                                                                    
0010001300132A93019058500768754981RESTAURANTE SABOR             000000459123                                                                                                                                                                    
0010001300133A60443247525836713534CLINICA MEDICA VIDA           000000262629                                                                                                                                                                    
0010001300134A30131427802922554609HOTEL PRAIA AZUL              000000615743                                                                                                                                                                    
0010001300135A20629880691086503086PADARIA SAO JOSE              000000493455                                                                                                                                                                    
0010001300136A77358461108898418794POSTO COMBUSTIVEL             000000190405                                                                                                                                                                    
0010001300137A76137657961763819932RESTAURANTE SABOR             000000095774                                                                                                                                                                    
0010001300138A71758980801713838580ACADEMIA CORPO ATIVO          000000336753                                                                                                                                                                    
0010001300139A71424036053525451094RESTAURANTE SABOR             000000302318                                                                                                                                                                    
0010001300140A82775975622231921432PAPELARIA ESCOLAR             000000038579                                                                                                                                                                    
0010001300141A48517904588139362449POSTO COMBUSTIVEL             000000339077                                                                                                                                                                    
0010001300142A99741760519575438395JOAO DA SILVA                 000000689706                                                                                                                                                                    
0010001300143A75349317388344942091TRANSPORTES EXPRESS           000000056937                                                                                                                                                                    
0010001300144A56457007004918835410CLINICA MEDICA VIDA           000000793288                                                                                                                                                                    
0010001300145A76876987247635021412MARIA OLIVEIRA                000000213546                                                                                                                                                                    
0010001300146A38578058265211817016LOJA DE INFORMATICA           000000459498                                                                                                                                                                    
0010001300147A78220671830869879265MERCADO CENTRAL LTDA          000000030371                                                                                                                                                                    
0010001300148A95408835928554743372FARMACIA POPULAR              000000744361                                                                                                                                                                    
0010001300149A89519304596702591157JOAO DA SILVA                 000000579177                                                                                                                                                                    
0010001300150A30166150459078349817MERCADO CENTRAL LTDA          000000483963                                                                                                                                                                    
0010001300151A68180498143406675417LOJA DE INFORMATICA           000000533690                                                                                                                                                                    
0010001300152A70384031272988957518RESTAURANTE SABOR             000000495258                                                                                                                                                                    
0010001300153A92213199400420058627SUPERMERCADO IDEAL            000000402319                                                                                                                                                                    
0010001300154A25938483761842370034POSTO COMBUSTIVEL             000000810308                                                                                                                                                                    
0010001300155A81101358730083424345ACADEMIA CORPO ATIVO          000000979730                                                                                                                                                                    
0010001300156A56259595157927614751JOAO DA SILVA                 000000296678                                                                                                                                                                    
0010001300157A92024321800783681890RESTAURANTE SABOR             000000361988                                                                                                                                                                    
0010001300158A72298529591778491293ACADEMIA CORPO ATIVO          000000911943                                                                                                                                                                    
0010001300159A75888037057719327792FARMACIA POPULAR              000000897694                                                                                                                                                                    
0010001300160A17577463134098167087ACADEMIA CORPO ATIVO          000000780979                                                                                                                                                                    
0010001300161A72372705658111295087SUPERMERCADO IDEAL            000000519489                                                                                                                                                                    
0010001300162A29129635425421802510ATACADO BRASIL                000000618949                                                                                                                                                                    
0010001300163A26043139187833936595MATERIAL DE CONSTRUCAO        000000104655                                                                                                                                                                    
0010001300164A82134916916237351652JOAO DA SILVA                 000000757637                                                                                                                                                                    
0010001300165A46339288879143042991EMPRESA TESTE LTDA            000000492396                                                                                                                                                                    
0010001300166A64772139447158966926ACADEMIA CORPO ATIVO          000000653634                                                                                                                                                                    
0010001300167A62605784594611932020PAPELARIA ESCOLAR             000000398568                                                                                                                                                                    
0010001300168A99879602547498033221MARIA OLIVEIRA                000000647553                                                                                                                                                                    
0010001300169A63881631570518134629FARMACIA POPULAR              000000783141                                                                                                                                                                    
0010001300170A26096245897405542512MATERIAL DE CONSTRUCAO        000000174546                                                                                                                                                                    
0010001300171A47741871757622056543MARIA OLIVEIRA                000000307718                                                                                                                                                                    
0010001300172A72254829857820393713SUPERMERCADO IDEAL            000000256159                                                                                                                                                                    
0010001300173A91387989390700741658PADARIA SAO JOSE              000000178340                                                                                                                                                                    
0010001300174A85243685205024790634CONSTRUTORA PARAIBA           000000649913                                                                                                                                                                    
0010001300175A69782757790146226283HOTEL PRAIA AZUL              000000150169                                                                                                                                                                    
0010001300176A55371067499853162677JOAO DA SILVA                 000000942673                                                                                                                                                                    
0010001300177A96286690875424782985PADARIA SAO JOSE              000000077549                                                                                                                                                                    
0010001300178A64330007970286744563HOTEL PRAIA AZUL              000000313785ERRO_LAYOUT                                                                                                                                                         
0010001300179A81081493048604705185MERCADO CENTRAL LTDA          000000248828                                                                                                                                                                    
0010001300180A57443599738542298921HOTEL PRAIA AZUL              000000310344                                                                                                                                                                    
0010001300181A59792910430757261520JOAO DA SILVA                 000000870457                                                                                                                                                                    
0010001300182A54194815442572918739JOAO DA SILVA                 000000593519                                                                                                                                                                    
0010001300183A27959802078119501310CLINICA MEDICA VIDA           000000781469                                                                                                                                                                    
0010001300184A88031911408569030874OFICINA MECANICA              000000229742                                                                                                                                                                    
0010001300185A87294292474621682595POSTO COMBUSTIVEL             000000710787                                                                                                                                                                    
0010001300186A21589132095292962502MARIA OLIVEIRA                000000324039                                                                                                                                                                    
0010001300187A18131752672570269812HOTEL PRAIA AZUL              000000382684                                                                                                                                                                    
0010001300188A12424120016484691459LOJA DE INFORMATICA           000000342689ERRO_LAYOUT                                                                                                                                                         
0010001300189A31686731566665853216SUPERMERCADO IDEAL            000000824818                                                                                                                                                                    
0010001300190A93579474234908923602POSTO COMBUSTIVEL             000000870913                                                                                                                                                                    
0010001300191A82757423288354791194LOJA DE INFORMATICA           000000782924                                                                                                                                                                    
0010001300192A98628998606055192001OFICINA MECANICA              000000094789                                                                                                                                                                    
0010001300193A17278615942453142052POSTO COMBUSTIVEL             000000562736                                                                                                                                                                    
0010001300194A59295986836732066171HOTEL PRAIA AZUL              000000399634                                                                                                                                                                    
0010001300195A18697213156547346590CLINICA MEDICA VIDA           000000927287                                                                                                                                                                    
0010001300196A57249626425023760470CLINICA MEDICA VIDA           000000232220                                                                                                                                                                    
0010001300197A30599035239271371739MARIA OLIVEIRA                000000992327                                                                                                                                                                    
0010001300198A12142044808474830241FARMACIA POPULAR              000000930458                                                                                                                                                                    
0010001300199A67842792216640923522MATERIAL DE CONSTRUCAO        000000389133                                                                                                                                                                    
0010001300200A22081176713991937881RESTAURANTE SABOR             000000645658                                                                                                                                                                    
0010001300201A69348150490502991164MATERIAL DE CONSTRUCAO        000000996829                                                                                                                                                                    
0010001300202A62673758920961024190MERCADO CENTRAL LTDA          000000719087                                                                                                                                                                    
0010001300203A58788443233722295117MARIA OLIVEIRA                000000417579                                                                                                                                                                    
0010001300204A18388055017910579166AUTO PECAS BRASIL             000000672975                                                                                                                                                                    
0010001300205A98304159922740562981AUTO PECAS BRASIL             000000072042                                                                                                                                                                    
0010001300206A97901638532835242244AUTO PECAS BRASIL             000000614967                                                                                                                                                                    
0010001300207A46945794817215053996SUPERMERCADO IDEAL            000000136406                                                                                                                                                                    
0010001300208A28922303957618362214JOAO DA SILVA                 000000375744                                                                                                                                                                    
0010001300209A15972529404918567083PADARIA SAO JOSE              000000278358                                                                                                                                                                    
0010001300210A19704565107761353278EMPRESA TESTE LTDA            000000499480                                                                                                                                                                    
0010001300211A61245369321685395990ATACADO BRASIL                000000622603                                                                                                                                                                    
0010001300212A92125004643010016940FARMACIA POPULAR              000000991440                                                                                                                                                                    
0010001300213A56512565295134924598MATERIAL DE CONSTRUCAO        000000674691                                                                                                                                                                    
0010001300214A10574627892035218315RESTAURANTE SABOR             000000888556                                                                                                                                                                    
0010001300215A18182280785779369795EMPRESA TESTE LTDA            000000337858                                                                                                                                                                    
0010001300216A12736276246160302421SUPERMERCADO IDEAL            000000288475                                                                                                                                                                    
0010001300217A95465180636645115257PAPELARIA ESCOLAR             000000746846                                                                                                                                                                    
0010001300218A56680534331876617259MATERIAL DE CONSTRUCAO        000000530208                                                                                                                                                                    
0010001300219A17935776891774779413MERCADO CENTRAL LTDA          000000894317                                                                                                                                                                    
0010001300220A69306707653110065054MATERIAL DE CONSTRUCAO        000000931330                                                                                                                                                                    
0010001300221A54527001216560827924MATERIAL DE CONSTRUCAO        000000418198                                                                                                                                                                    
0010001300222@23458975297403505718ACADEMIA CORPO ATIVO          000000447594                                                                                                                                                                    
0010001300223A51595374993089528409SUPERMERCADO IDEAL            000000720284                                                                                                                                                                    
0010001300224A18748698379888410453EMPRESA TESTE LTDA            000000872276                                                                                                                                                                    
0010001300225A67060023992527253596MERCADO CENTRAL LTDA          000000780858                                                                                                                                                                    
0010001300226A20263228575197904658HOTEL PRAIA AZUL              000000588966                                                                                                                                                                    
0010001300227A54471569921505660065TRANSPORTES EXPRESS           000000910360                                                                                                                                                                    
0010001300228A23301221820783180568LOJA DE INFORMATICA           000000629675                                                                                                                                                                    
0010001300229A16486727252095313585HOTEL PRAIA AZUL              000000532160                                                                                                                                                                    
0010001300230A16780304635944462849POSTO COMBUSTIVEL             000000602087                                                                                                                                                                    
0010001300231A95255756185289911353PAPELARIA ESCOLAR             000000027629                                                                                                                                                                    
0010001300232A59685773664858376921JOAO DA SILVA                 000000189279                                                                                                                                                                    
0010001300233A63892854936925478592OFICINA MECANICA              000000006502                                                                                                                                                                    
0010001300234A44492878837376915512HOTEL PRAIA AZUL              000000689375                                                                                                                                                                    
0010001300235A29730368590270549401JOAO DA SILVA                 000000096314                                                                                                                                                                    
0010001300236A38232422444866022962CONSTRUTORA PARAIBA           000000440326                                                                                                                                                                    
0010001300237A34735165079967900007OFICINA MECANICA              000000326875                                                                                                                                                                    
0010001300238A94257229353819050919EMPRESA TESTE LTDA            000000926351                                                                                                                                                                    
0010001300239A70359643715858499301TRANSPORTES EXPRESS           000000509353                                                                                                                                                                    
0010001300240A73494508178160833869POSTO COMBUSTIVEL             000000226140                                                                                                                                                                    
0010001300241A19451121266607256614OFICINA MECANICA              000000450897                                                                                                                                                                    
0010001300242A92763766135698990432LOJA DE INFORMATICA           000000047723                                                                                                                                                                    
0010001300243A28588545803656507597LOJA DE INFORMATICA           000000991344                                                                                                                                                                    
0010001300244A42601844401099206165POSTO COMBUSTIVEL             000000303607                                                                                                                                                                    
0010001300245A12213320576024433570RESTAURANTE SABOR             000000783401                                                                                                                                                                    
0010001300246A31687741171808299066CONSTRUTORA PARAIBA           000000558553                                                                                                                                                                    
0010001300247A88031769742958906590PAPELARIA ESCOLAR             000000873935                                                                                                                                                                    
0010001300248A61765256709875250303EMPRESA TESTE LTDA            000000416459                                                                                                                                                                    
0010001300249@23688246477554226910TRANSPORTES EXPRESS           000000019751                                                                                                                                                                    
0010001300250A75961114118398459334HOTEL PRAIA AZUL              000000424168                                                                                                                                                                    
0010001300251A77148761745261181257LOJA DE INFORMATICA           000000120868                                                                                                                                                                    
0010001300252A76742630755465615856OFICINA MECANICA              000000092510                                                                                                                                                                    
0010001300253A25577986851373078493FARMACIA POPULAR              000000456939                                                                                                                                                                    
0010001300254A91173971531366155472EMPRESA TESTE LTDA            000000415091                                                                                                                                                                    
0010001300255A50980771227537397683PADARIA SAO JOSE              000000080189                                                                                                                                                                    
0010001300256A21680933389307676764ATACADO BRASIL                000000534823                                                                                                                                                                    
0010001300257A31171140655965422590MERCADO CENTRAL LTDA          000000153657                                                                                                                                                                    
0010001300258A32085766514911683115CLINICA MEDICA VIDA           000000160395                                                                                                                                                                    
0010001300259A76923842537399082833MATERIAL DE CONSTRUCAO        000000791193                                                                                                                                                                    
0010001300260A97804235549661788143MATERIAL DE CONSTRUCAO        000000714320                                                                                                                                                                    
0010001300261A58463607091795439811SUPERMERCADO IDEAL            000000461224                                                                                                                                                                    
0010001300262A61583178003653698514HOTEL PRAIA AZUL              000000059000                                                                                                                                                                    
0010001300263@19358713712063079075LOJA DE INFORMATICA           000000484272                                                                                                                                                                    
0010001300264A47942924399465242870LOJA DE INFORMATICA           000000080558                                                                                                                                                                    
0010001300265A85452652821643821479CLINICA MEDICA VIDA           000000531799                                                                                                                                                                    
0010001300266A92322499833307165085PAPELARIA ESCOLAR             000000830381                                                                                                                                                                    
0010001300267A26526009507833834985MATERIAL DE CONSTRUCAO        000000953307                                                                                                                                                                    
0010001300268A89718098253342864947RESTAURANTE SABOR             000000525821                                                                                                                                                                    
0010001300269A27666859317134808265MATERIAL DE CONSTRUCAO        000000108629                                                                                                                                                                    
0010001300270A29168788893645197867MATERIAL DE CONSTRUCAO        000000460867                                                                                                                                                                    
0010001300271A93429975460625865565PADARIA SAO JOSE              000000381674                                                                                                                                                                    
0010001300272@63826433242197342782CONSTRUTORA PARAIBA           000000428725                                                                                                                                                                    
0010001300273A21029047600351034799ACADEMIA CORPO ATIVO          000000069213                                                                                                                                                                    
0010001300274A85530303259707612441CONSTRUTORA PARAIBA           000000298049                                                                                                                                                                    
0010001300275A44555910585221552562ACADEMIA CORPO ATIVO          000000085561                                                                                                                                                                    
0010001300276A40688226779138517691OFICINA MECANICA              000000325401                                                                                                                                                                    
0010001300277A35677092700691738776CLINICA MEDICA VIDA           000000743366                                                                                                                                                                    
0010001300278A75650524593460396591ACADEMIA CORPO ATIVO          000000852786                                                                                                                                                                    
0010001300279A91597445196749144523OFICINA MECANICA              000000019216                                                                                                                                                                    
0010001300280A34144317518271689577AUTO PECAS BRASIL             000000358432                                                                                                                                                                    
0010001300281A79473319770547446585AUTO PECAS BRASIL             000000237647                                                                                                                                                                    
0010001300282A30984377040435050440EMPRESA TESTE LTDA            000000310260                                                                                                                                                                    
0010001300283A24538251171424662885ATACADO BRASIL                000000808420                                                                                                                                                                    
0010001300284A19712794301447601811ACADEMIA CORPO ATIVO          000000919064ERRO_LAYOUT                                                                                                                                                         
0010001300285A76357484524671888924SUPERMERCADO IDEAL            000000170228                                                                                                                                                                    
0010001300286A78643710434117994066MARIA OLIVEIRA                000000430916                                                                                                                                                                    
0010001300287A83225985057977452396CLINICA MEDICA VIDA           000000298868                                                                                                                                                                    
0010001300288A88103568735921828206FARMACIA POPULAR              000000324600                                                                                                                                                                    
0010001300289A79694087159785599264ATACADO BRASIL                000000553181                                                                                                                                                                    
0010001300290A46271245515144649481AUTO PECAS BRASIL             000000840281                                                                                                                                                                    
0010001300291A63018099734465215793PAPELARIA ESCOLAR             000000979777                                                                                                                                                                    
0010001300292A99390934625651417051MERCADO CENTRAL LTDA          000000299010                                                                                                                                                                    
0010001300293A42523764961717573385POSTO COMBUSTIVEL             000000471245ERRO_LAYOUT                                                                                                                                                         
0010001300294A80670338340895106095EMPRESA TESTE LTDA            000000992486                                                                                                                                                                    
0010001300295A63212027158544588726JOAO DA SILVA                 000000435150                                                                                                                                                                    
0010001300296A91100261102763261532OFICINA MECANICA              000000247331                                                                                                                                                                    
0010001300297A28345754632436566096OFICINA MECANICA              000000235545                                                                                                                                                                    
0010001300298A12538264482164210883LOJA DE INFORMATICA           000000962059                                                                                                                                                                    
0010001300299A73993786753670317260CLINICA MEDICA VIDA           000000005606                                                                                                                                                                    
0010001300300A11461457626736248519POSTO COMBUSTIVEL             000000226230                                                                                                                                                                    
0010001300301A86545126475403109453CLINICA MEDICA VIDA           000000553508                                                                                                                                                                    
0010001300302A51277176682874209897MERCADO CENTRAL LTDA          000000050168                                                                                                                                                                    
0010001300303A76829059356660398282EMPRESA TESTE LTDA            000000116342                                                                                                                                                                    
0010001300304A82037245130718128768CLINICA MEDICA VIDA           000000562193                                                                                                                                                                    
0010001300305A95444487348458167140HOTEL PRAIA AZUL              000000253790                                                                                                                                                                    
0010001300306A49542013444781933938TRANSPORTES EXPRESS           000000001740                                                                                                                                                                    
0010001300307A34955051257138260274HOTEL PRAIA AZUL              000000436902                                                                                                                                                                    
0010001300308A93823516991775036647ATACADO BRASIL                000000581170                                                                                                                                                                    
0010001300309A64990471307637466983POSTO COMBUSTIVEL             000000783718                                                                                                                                                                    
0010001300310A24545627032633114882OFICINA MECANICA              000000252938                                                                                                                                                                    
0010001300311A98018664671861651230ACADEMIA CORPO ATIVO          000000139990                                                                                                                                                                    
0010001300312A90285746595425260898ACADEMIA CORPO ATIVO          000000853125                                                                                                                                                                    
0010001300313A77970396273549632405RESTAURANTE SABOR             000000662523                                                                                                                                                                    
0010001300314A43416234148064511298EMPRESA TESTE LTDA            000000750927                                                                                                                                                                    
0010001300315A82746675012229163503MARIA OLIVEIRA                000000307796                                                                                                                                                                    
0010001300316A26339948584496559221ACADEMIA CORPO ATIVO          000000978810                                                                                                                                                                    
0010001300317A74847381368561279511PAPELARIA ESCOLAR             000000496495                                                                                                                                                                    
0010001300318A50418724283720353151OFICINA MECANICA              000000904117                                                                                                                                                                    
0010001300319A53016417892762518220MERCADO CENTRAL LTDA          000000838271                                                                                                                                                                    
0010001300320A79051839225686119355CONSTRUTORA PARAIBA           000000355605                                                                                                                                                                    
0010001300321A68786401558557225725RESTAURANTE SABOR             000000385291                                                                                                                                                                    
0010001300322A98494397148834536532POSTO COMBUSTIVEL             000000840164                                                                                                                                                                    
0010001300323A78752515295537923864EMPRESA TESTE LTDA            000000451624ERRO_LAYOUT                                                                                                                                                         
0010001300324A43616263238230393051PAPELARIA ESCOLAR             000000308136                                                                                                                                                                    
0010001300325A11892597423629068691ACADEMIA CORPO ATIVO          000000693124                                                                                                                                                                    
0010001300326A70994082889739997022CLINICA MEDICA VIDA           000000752624                                                                                                                                                                    
0010001300327@71825129521367743186MARIA OLIVEIRA                000000762220                                                                                                                                                                    
0010001300328A83752860861145737237POSTO COMBUSTIVEL             000000670632                                                                                                                                                                    
0010001300329A54386744298147939722ATACADO BRASIL                000000840110                                                                                                                                                                    
0010001300330A40979657658262966397JOAO DA SILVA                 000000149815                                                                                                                                                                    
0010001300331A18082861964591894455SUPERMERCADO IDEAL            000000070599                                                                                                                                                                    
0010001300332A72020731402665309158HOTEL PRAIA AZUL              000000034058                                                                                                                                                                    
0010001300333A64396193046986104854OFICINA MECANICA              000000465604                                                                                                                                                                    
0010001300334A85205262142357471498SUPERMERCADO IDEAL            000000555278                                                                                                                                                                    
0010001300335A54235920369993674380POSTO COMBUSTIVEL             000000261836                                                                                                                                                                    
0010001300336A12092757621221401713PADARIA SAO JOSE              000000523385                                                                                                                                                                    
0010001300337A49065795162614122603POSTO COMBUSTIVEL             000000738337                                                                                                                                                                    
0010001300338A83761682927130664077AUTO PECAS BRASIL             000000128694                                                                                                                                                                    
0010001300339A25731868368585562357MATERIAL DE CONSTRUCAO        000000181143                                                                                                                                                                    
0010001300340A78499584047916241952EMPRESA TESTE LTDA            000000849984                                                                                                                                                                    
0010001300341A23088711762863250723PAPELARIA ESCOLAR             000000568607                                                                                                                                                                    
0010001300342A63335655635395882656PADARIA SAO JOSE              000000746485                                                                                                                                                                    
0010001300343A37831631101767106662MERCADO CENTRAL LTDA          000000210843                                                                                                                                                                    
0010001300344A31008570178003587307RESTAURANTE SABOR             000000027660                                                                                                                                                                    
0010001300345A94006867998175639283OFICINA MECANICA              000000490210                                                                                                                                                                    
0010001300346A48106326683853404105CONSTRUTORA PARAIBA           000000751859                                                                                                                                                                    
0010001300347A92616789052540049290TRANSPORTES EXPRESS           000000806627                                                                                                                                                                    
0010001300348A98974907423295840936EMPRESA TESTE LTDA            000000131514                                                                                                                                                                    
0010001300349A73640796557270088327ATACADO BRASIL                000000361349                                                                                                                                                                    
0010001300350A67720470222747278908ATACADO BRASIL                000000955051                                                                                                                                                                    
0010001300351A38004041554844517880LOJA DE INFORMATICA           000000172755                                                                                                                                                                    
0010001300352A25604722657062773717POSTO COMBUSTIVEL             000000205937                                                                                                                                                                    
0010001300353A95121177531793664455EMPRESA TESTE LTDA            000000527086                                                                                                                                                                    
0010001300354A86897759576087576723HOTEL PRAIA AZUL              000000161784                                                                                                                                                                    
0010001300355A95938452993829752269CLINICA MEDICA VIDA           000000354119                                                                                                                                                                    
0010001300356A11498297228207553595HOTEL PRAIA AZUL              000000277611                                                                                                                                                                    
0010001300357A91471646050903627124JOAO DA SILVA                 000000522330ERRO_LAYOUT                                                                                                                                                         
0010001300358A70912885071264286362FARMACIA POPULAR              000000843876                                                                                                                                                                    
0010001300359A77976082939219702223LOJA DE INFORMATICA           000000475675                                                                                                                                                                    
0010001300360A22702678318708579362PADARIA SAO JOSE              000000461059                                                                                                                                                                    
0010001300361A74273088905180753870AUTO PECAS BRASIL             000000356817                                                                                                                                                                    
0010001300362A49543707705820452427ACADEMIA CORPO ATIVO          000000769964                                                                                                                                                                    
0010001300363A62772027947721628018CONSTRUTORA PARAIBA           000000137218                                                                                                                                                                    
0010001300364A90622236489911824608PAPELARIA ESCOLAR             000000111441                                                                                                                                                                    
0010001300365A69799508719382926396MERCADO CENTRAL LTDA          000000280564                                                                                                                                                                    
0010001300366A33020040293396822381MERCADO CENTRAL LTDA          000000053163                                                                                                                                                                    
0010001300367A82779505375080306019CLINICA MEDICA VIDA           000000438546                                                                                                                                                                    
0010001300368A34215316163892862847PADARIA SAO JOSE              000000522569                                                                                                                                                                    
0010001300369A74835229586176858602RESTAURANTE SABOR             000000921877                                                                                                                                                                    
0010001300370A19174862195047825992EMPRESA TESTE LTDA            000000991248                                                                                                                                                                    
0010001300371A74664036864388990235FARMACIA POPULAR              000000225695                                                                                                                                                                    
0010001300372A16509765492194282029MARIA OLIVEIRA                000000295123                                                                                                                                                                    
0010001300373A89058103618160320832JOAO DA SILVA                 000000888424                                                                                                                                                                    
0010001300374A60313643287777672933CONSTRUTORA PARAIBA           000000383813                                                                                                                                                                    
0010001300375A17389426735438430588HOTEL PRAIA AZUL              000000589207                                                                                                                                                                    
0010001300376A90474359573773610505LOJA DE INFORMATICA           000000077203                                                                                                                                                                    
0010001300377A74642104974639612326PAPELARIA ESCOLAR             000000293408                                                                                                                                                                    
0010001300378A21271756520082021113SUPERMERCADO IDEAL            000000101477                                                                                                                                                                    
0010001300379A90041995978380549579OFICINA MECANICA              000000791738                                                                                                                                                                    
0010001300380A87458946078228264102ATACADO BRASIL                000000420984ERRO_LAYOUT                                                                                                                                                         
0010001300381A10835699429365130578SUPERMERCADO IDEAL            000000748355                                                                                                                                                                    
0010001300382A80170784618116163550ATACADO BRASIL                000000479287                                                                                                                                                                    
0010001300383A49471992291435491094CLINICA MEDICA VIDA           000000334102                                                                                                                                                                    
0010001300384A62436750305467828381HOTEL PRAIA AZUL              000000352813ERRO_LAYOUT                                                                                                                                                         
0010001300385A93189541844082673129RESTAURANTE SABOR             000000743267                                                                                                                                                                    
0010001300386A70870392106255633903JOAO DA SILVA                 000000386351                                                                                                                                                                    
0010001300387@22429534183797038634TRANSPORTES EXPRESS           000000612156                                                                                                                                                                    
0010001300388A76351271111000480019POSTO COMBUSTIVEL             000000687536                                                                                                                                                                    
0010001300389A39102217943663961308MARIA OLIVEIRA                000000611968                                                                                                                                                                    
0010001300390A86932368670977339668CLINICA MEDICA VIDA           000000812333                                                                                                                                                                    
0010001300391A35460017911790221980FARMACIA POPULAR              000000033204                                                                                                                                                                    
0010001300392A13519349765351546090MATERIAL DE CONSTRUCAO        000000329030                                                                                                                                                                    
0010001300393A68133645923947196293AUTO PECAS BRASIL             000000430411                                                                                                                                                                    
0010001300394A98082691958666378803RESTAURANTE SABOR             000000915315                                                                                                                                                                    
0010001300395A41465999174720400031ATACADO BRASIL                000000217513                                                                                                                                                                    
0010001300396A92611363417680228888CONSTRUTORA PARAIBA           000000329093                                                                                                                                                                    
0010001300397A68534884111806977844PAPELARIA ESCOLAR             000000359055ERRO_LAYOUT                                                                                                                                                         
0010001300398@76594158792579824994AUTO PECAS BRASIL             000000258594                                                                                                                                                                    
0010001300399A33953081763794699341LOJA DE INFORMATICA           000000808734                                                                                                                                                                    
0010001300400A41449871264260041944RESTAURANTE SABOR             000000332541                                                                                                                                                                    
0010001300401A90221259218124301729POSTO COMBUSTIVEL             000000301869                                                                                                                                                                    
0010001300402A49595495735131065785MARIA OLIVEIRA                000000301702ERRO_LAYOUT                                                                                                                                                         
0010001300403A58994036753171976076RESTAURANTE SABOR             000000224481                                                                                                                                                                    
0010001300404A99059989517653162632POSTO COMBUSTIVEL             000000978446ERRO_LAYOUT                                                                                                                                                         
0010001300405A33457275855043577929MERCADO CENTRAL LTDA          000000645684                                                                                                                                                                    
0010001300406A39271856164572432359FARMACIA POPULAR              000000053331                                                                                                                                                                    
0010001300407A40214744338738814457MARIA OLIVEIRA                000000105165                                                                                                                                                                    
0010001300408A12535819235411684520PAPELARIA ESCOLAR             000000974331                                                                                                                                                                    
0010001300409A52817986592468689944MARIA OLIVEIRA                000000952140                                                                                                                                                                    
0010001300410A88070682863363843935MARIA OLIVEIRA                000000957690                                                                                                                                                                    
0010001300411A68569607410415404063PADARIA SAO JOSE              000000979388                                                                                                                                                                    
0010001300412A47064437204694557242HOTEL PRAIA AZUL              000000632163                                                                                                                                                                    
0010001300413A70589468159985406460PAPELARIA ESCOLAR             000000549887                                                                                                                                                                    
