00100000                                                                                                                                                                                                                                        
0010001300001A64477533744130526390LOJA DE INFORMATICA           000000968714                                                                                                                                                                    
0010001300002A65413583399313963248LOJA DE INFORMATICA           000000820677                                                                                                                                                                    
0010001300003A78955530833468520337RESTAURANTE SABOR             000000965083                                                                                                                                                                    
0010001300004A26008394392824515229ATACADO BRASIL                000000220266                                                                                                                                                                    
0010001300005A35850811330680519935AUTO PECAS BRASIL             000000794677                                                                                                                                                                    
0010001300006A63230866331322954018FARMACIA POPULAR              000000901208                                                                                                                                                                    
0010001300007A78359767973255346975AUTO PECAS BRASIL             000000041789                                                                                                                                                                    
0010001300008A80349093385901576520CONSTRUTORA PARAIBA           000000917353                                                                                                                                                                    
0010001300009A62875090257483388840JOAO DA SILVA                 000000478757                                                                                                                                                                    
0010001300010A83574963170164139343TRANSPORTES EXPRESS           000000447587                                                                                                                                                                    
0010001300011A82612715730744090490HOTEL PRAIA AZUL              000000671960                                                                                                                                                                    
0010001300012A16587768463819602038ATACADO BRASIL                000000982087                                                                                                                                                                    
0010001300013A41577808732475375176TRANSPORTES EXPRESS           000000085955                                                                                                                                                                    
0010001300014A66211896688329464506ATACADO BRASIL                000000646318                                                                                                                                                                    
0010001300015A53764019291025167281AUTO PECAS BRASIL             000000142648                                                                                                                                                                    
0010001300016A56051419508140154537MERCADO CENTRAL LTDA          000000680111                                                                                                                                                                    
0010001300017A14790349849168583184PADARIA SAO JOSE              000000705254                                                                                                                                                                    
0010001300018A62348792205686058064AUTO PECAS BRASIL             000000596534                                                                                                                                                                    
0010001300019A56492919538239833725ATACADO BRASIL                000000884875                                                                                                                                                                    
0010001300020A89659548683733139933CONSTRUTORA PARAIBA           000000052616                                                                                                                                                                    
0010001300021A12866284356789849795ATACADO BRASIL                000000512087                                                                                                                                                                    
0010001300022A86032914120482787580AUTO PECAS BRASIL             000000745558                                                                                                                                                                    
0010001300023A68016774826780544160EMPRESA TESTE LTDA            000000593997                                                                                                                                                                    
0010001300024A93120168047404896587HOTEL PRAIA AZUL              000000846076                                                                                                                                                                    
0010001300025A75196066554609926318CLINICA MEDICA VIDA           000000134921                                                                                                                                                                    
0010001300026A54517810840678215893JOAO DA SILVA                 000000102154                                                                                                                                                                    
0010001300027A73763013984672719088JOAO DA SILVA                 000000107627                                                                                                                                                                    
0010001300028A42270734686836532363SUPERMERCADO IDEAL            000000431585                                                                                                                                                                    
0010001300029A89435608087852232738EMPRESA TESTE LTDA            000000350105                                                                                                                                                                    
0010001300030A96443738432684571574CLINICA MEDICA VIDA           000000235867                                                                                                                                                                    
0010001300031A19414586627294342019CONSTRUTORA PARAIBA           000000914776                                                                                                                                                                    
0010001300032A66823810543675304507RESTAURANTE SABOR             000000210775                                                                                                                                                                    
0010001300033A13804217418195396558CLINICA MEDICA VIDA           000000805147                                                                                                                                                                    
0010001300034A38949530515020846528MERCADO CENTRAL LTDA          000000251013                                                                                                                                                                    
0010001300035A43206075669834754630OFICINA MECANICA              000000359433ERRO_LAYOUT                                                                                                                                                         
0010001300036A82909868137818481162TRANSPORTES EXPRESS           000000691362                                                                                                                                                                    
0010001300037A11154939509464458386ATACADO BRASIL                000000920903                                                                                                                                                                    
0010001300038A71252193917948293370TRANSPORTES EXPRESS           000000656552                                                                                                                                                                    
0010001300039A16226911256274769959CONSTRUTORA PARAIBA           000000225017ERRO_LAYOUT                                                                                                                                                         
0010001300040A36854055415509291461RESTAURANTE SABOR             000000100384                                                                                                                                                                    
0010001300041A52975675670262949117PAPELARIA ESCOLAR             000000727003                                                                                                                                                                    
0010001300042A86962677675076688991EMPRESA TESTE LTDA            000000910733                                                                                                                                                                    
0010001300043A15300210873572922599FARMACIA POPULAR              000000822406                                                                                                                                                                    
0010001300044A28880102169320652112AUTO PECAS BRASIL             000000297109                                                                                                                                                                    
0010001300045A71349510400683798923LOJA DE INFORMATICA           000000677188                                                                                                                                                                    
0010001300046A70796286264570665916ACADEMIA CORPO ATIVO          000000319461                                                                                                                                                                    
0010001300047A88453038951624596763SUPERMERCADO IDEAL            000000120581                                                                                                                                                                    
0010001300048A83676805207637495378AUTO PECAS BRASIL             000000644754                                                                                                                                                                    
0010001300049A63390182731303442448ACADEMIA CORPO ATIVO          000000534982                                                                                                                                                                    
0010001300050A82669696406871982910RESTAURANTE SABOR             000000293172                                                                                                                                                                    
0010001300051A16481470892733633747AUTO PECAS BRASIL             000000807008                                                                                                                                                                    
0010001300052A16280039191227924000AUTO PECAS BRASIL             000000325517                                                                                                                                                                    
0010001300053A77613545539852773119OFICINA MECANICA              000000056604                                                                                                                                                                    
0010001300054A95217670793001572866TRANSPORTES EXPRESS           000000723337                                                                                                                                                                    
0010001300055A87829446946357387760RESTAURANTE SABOR             000000827639                                                                                                                                                                    
0010001300056A70747995557205156864RESTAURANTE SABOR             000000082111                                                                                                                                                                    
0010001300057A15680181987533204784PADARIA SAO JOSE              000000356053                                                                                                                                                                    
0010001300058A40254925259103576239POSTO COMBUSTIVEL             000000905985                                                                                                                                                                    
0010001300059A11609894831491604414TRANSPORTES EXPRESS           000000386651                                                                                                                                                                    
0010001300060A86283575555893476193CLINICA MEDICA VIDA           000000990273                                                                                                                                                                    
0010001300061A72104366355996724498PADARIA SAO JOSE              000000995455                                                                                                                                                                    
0010001300062A24265359523082118838TRANSPORTES EXPRESS           000000857828                                                                                                                                                                    
0010001300063A21654158640443787690FARMACIA POPULAR              000000935395                                                                                                                                                                    
0010001300064A32746614476916442313CONSTRUTORA PARAIBA           000000462102                                                                                                                                                                    
0010001300065A77885869698287311260MATERIAL DE CONSTRUCAO        000000268454                                                                                                                                                                    
0010001300066A25622472288135772855MARIA OLIVEIRA                000000904324                                                                                                                                                                    
0010001300067A57199359419462121137AUTO PECAS BRASIL             000000613946                                                                                                                                                                    
0010001300068A26639158796590531189MERCADO CENTRAL LTDA          000000545120                                                                                                                                                                    
0010001300069A26640937740200999275AUTO PECAS BRASIL             000000703974                                                                                                                                                                    
0010001300070A63764653369797377392MARIA OLIVEIRA                000000652597                                                                                                                                                                    
0010001300071A51422352588060842080ATACADO BRASIL                000000192174                                                                                                                                                                    
0010001300072A45434902855807021082MARIA OLIVEIRA                000000221522                                                                                                                                                                    
0010001300073A22254391287606246339TRANSPORTES EXPRESS           000000416784                                                                                                                                                                    
0010001300074A59849075599730187396MERCADO CENTRAL LTDA          000000883573                                                                                                                                                                    
0010001300075A92547146971937482848ATACADO BRASIL                000000522690                                                                                                                                                                    
0010001300076A92401660325021089148PAPELARIA ESCOLAR             000000536962                                                                                                                                                                    
0010001300077A52511645325787164011ATACADO BRASIL                000000656220                                                                                                                                                                    
0010001300078A78720113008366107994CLINICA MEDICA VIDA           000000768140                                                                                                                                                                    
0010001300079A71898402721869796781HOTEL PRAIA AZUL              000000500364                                                                                                                                                                    
0010001300080A48718859874334563607CLINICA MEDICA VIDA           000000090910                                                                                                                                                                    
0010001300081A62437034902294332412TRANSPORTES EXPRESS           000000070392                                                                                                                                                                    
0010001300082A99790051251700227105MARIA OLIVEIRA                000000976346                                                                                                                                                                    
0010001300083A45787727019709290566FARMACIA POPULAR              000000669738                                                                                                                                                                    
0010001300084A11778892412332456035PAPELARIA ESCOLAR             000000902193                                                                                                                                                                    
0010001300085A79395265861793973019ATACADO BRASIL                000000417128                                                                                                                                                                    
0010001300086A56580869555531339332SUPERMERCADO IDEAL            000000018702                                                                                                                                                                    
0010001300087A32670616909292507871CONSTRUTORA PARAIBA           000000985047                                                                                                                                                                    
0010001300088@16105116635434885474FARMACIA POPULAR              000000052213                                                                                                                                                                    
0010001300089A49472534159113976963MERCADO CENTRAL LTDA          000000101434                                                                                                                                                                    
0010001300090A42372302893589979738MARIA OLIVEIRA                000000770104                                                                                                                                                                    
0010001300091A83744423053557180344OFICINA MECANICA              000000884999                                                                                                                                                                    
0010001300092A50878014383588087756PADARIA SAO JOSE              000000880017                                                                                                                                                                    
0010001300093A88993251227294699075OFICINA MECANICA              000000499627                                                                                                                                                                    
0010001300094A29425240103535977266HOTEL PRAIA AZUL              000000437965                                                                                                                                                                    
0010001300095A22716217381868130431JOAO DA SILVA                 000000566270                                                                                                                                                                    
0010001300096A76234654252145285468MARIA OLIVEIRA                000000315745                                                                                                                                                                    
0010001300097A34300620541100059391ATACADO BRASIL                000000444862                                                                                                                                                                    
0010001300098A73534654525690438807EMPRESA TESTE LTDA            000000150547                                                                                                                                                                    
0010001300099A97641407683561219081MATERIAL DE CONSTRUCAO        000000431249                                                                                                                                                                    
0010001300100A35396554154965240125MERCADO CENTRAL LTDA          000000996075                                                                                                                                                                    
0010001300101A53078155842350453405ACADEMIA CORPO ATIVO          000000423752                                                                                                                                                                    
0010001300102A41751608058391746595MERCADO CENTRAL LTDA          000000361280                                                                                                                                                                    
0010001300103A89397916664961974234HOTEL PRAIA AZUL              000000910040                                                                                                                                                                    
0010001300104A29671363816433957107MARIA OLIVEIRA                000000033534                                                                                                                                                                    
0010001300105A61023003063894005820HOTEL PRAIA AZUL              000000967540                                                                                                                                                                    
0010001300106A15751925412504812474JOAO DA SILVA                 000000909896                                                                                                                                                                    
0010001300107A15158949622460517692MATERIAL DE CONSTRUCAO        000000033667                                                                                                                                                                    
0010001300108A80064781401778014265FARMACIA POPULAR              000000228405                                                                                                                                                                    
0010001300109A50666900707252580033SUPERMERCADO IDEAL            000000326544                                                                                                                                                                    
0010001300110A79353181860718039970RESTAURANTE SABOR             000000635057                                                                                                                                                                    
0010001300111A39693698665024874566MERCADO CENTRAL LTDA          000000036866                                                                                                                                                                    
0010001300112A67251623045084102635SUPERMERCADO IDEAL            000000519910                                                                                                                                                                    
0010001300113A88722705032507062245SUPERMERCADO IDEAL            000000084937                                                                                                                                                                    
0010001300114A81996144755786300588ACADEMIA CORPO ATIVO          000000020846                                                                                                                                                                    
0010001300115A82554238401046839072HOTEL PRAIA AZUL              000000442421                                                                                                                                                                    
0010001300116A29925757260426825757SUPERMERCADO IDEAL            000000287262                                                                                                                                                                    
0010001300117@76164442800647687775EMPRESA TESTE LTDA            000000652646                                                                                                                                                                    
0010001300118A15884262046150006628CLINICA MEDICA VIDA           000000415750                                                                                                                                                                    
0010001300119A68507537146370666355EMPRESA TESTE LTDA            000000289875                                                                                                                                                                    
0010001300120A18932573838702843676TRANSPORTES EXPRESS           000000331884                                                                                                                                                                    
0010001300121A96517421705333272196TRANSPORTES EXPRESS           000000816802                                                                                                                                                                    
0010001300122A36487221925458719594AUTO PECAS BRASIL             000000463256                                                                                                                                                                    
0010001300123A73614630584321754381MERCADO CENTRAL LTDA          000000709035                                                                                                                                                                    
0010001300124A83274110452774650533MERCADO CENTRAL LTDA          000000186678                                                                                                                                                                    
0010001300125A94397951823208154937HOTEL PRAIA AZUL              000000204540                                                                                                                                                                    
0010001300126A74428099397375334257RESTAURANTE SABOR             000000001191                                                                                                                                                                    
0010001300127A28473385476722332475PADARIA SAO JOSE              000000678196                                                                                                                                                                    
0010001300128A42740558045943449600POSTO COMBUSTIVEL             000000321052                                                                                                                                                                    
0010001300129@68716697320394242442ATACADO BRASIL                000000888985                                                                                                                                                                    
0010001300130A13614711554893779113JOAO DA SILVA                 000000230172                                                                                                                                                                    
0010001300131A75395526759964690321ATACADO BRASIL                000000668175                                                                                                                                                                    
0010001300132A70631527948500902896ACADEMIA CORPO ATIVO          000000874082                                                                                                                                                                    
0010001300133A99565362705280705435TRANSPORTES EXPRESS           000000569265                                                                                                                                                                    
0010001300134A89395302520029319594ATACADO BRASIL                000000510300ERRO_LAYOUT                                                                                                                                                         
0010001300135A41336907426326861856JOAO DA SILVA                 000000219797                                                                                                                                                                    
0010001300136A39169976864464255975PADARIA SAO JOSE              000000396553                                                                                                                                                                    
0010001300137A74585871633623070075JOAO DA SILVA                 000000679757                                                                                                                                                                    
0010001300138A69159011432196959777OFICINA MECANICA              000000390334                                                                                                                                                                    
0010001300139A92846523469085254208OFICINA MECANICA              000000824417                                                                                                                                                                    
0010001300140A52186723825153870051RESTAURANTE SABOR             000000739527                                                                                                                                                                    
0010001300141A81887240369339049037ACADEMIA CORPO ATIVO          000000224876                                                                                                                                                                    
0010001300142A39145658026408474314POSTO COMBUSTIVEL             000000783641                                                                                                                                                                    
0010001300143A54614375186780428135AUTO PECAS BRASIL             000000019043                                                                                                                                                                    
0010001300144A19320583999832749238FARMACIA POPULAR              000000135330                                                                                                                                                                    
0010001300145A50090389476509790186MATERIAL DE CONSTRUCAO        000000388746                                                                                                                                                                    
0010001300146A14771881362277862038SUPERMERCADO IDEAL            000000171675                                                                                                                                                                    
0010001300147A54147393075553733647FARMACIA POPULAR              000000725939                                                                                                                                                                    
0010001300148@83842748033285479444POSTO COMBUSTIVEL             000000879122                                                                                                                                                                    
0010001300149A77225432653597056233FARMACIA POPULAR              000000102907                                                                                                                                                                    
0010001300150A97992723959237188702SUPERMERCADO IDEAL            000000691632                                                                                                                                                                    
0010001300151A73160695809521755245PADARIA SAO JOSE              000000152655                                                                                                                                                                    
0010001300152A59025700361749778268RESTAURANTE SABOR             000000459788                                                                                                                                                                    
0010001300153A28491770751744491389PAPELARIA ESCOLAR             000000159715                                                                                                                                                                    
0010001300154A66435756643942642389EMPRESA TESTE LTDA            000000063918                                                                                                                                                                    
0010001300155A49558821384102112689ACADEMIA CORPO ATIVO          000000551250                                                                                                                                                                    
0010001300156A15032928256516888190MATERIAL DE CONSTRUCAO        000000687171                                                                                                                                                                    
0010001300157A88201075338928771189CLINICA MEDICA VIDA           000000878744                                                                                                                                                                    
0010001300158A76640872489514615499CLINICA MEDICA VIDA           000000256594                                                                                                                                                                    
0010001300159A42573267245214545968FARMACIA POPULAR              000000530126                                                                                                                                                                    
0010001300160A41810430869255542879ATACADO BRASIL                000000467877                                                                                                                                                                    
0010001300161A91711175514773117055ATACADO BRASIL                000000220564                                                                                                                                                                    
0010001300162A93416248405306367347ATACADO BRASIL                000000157021                                                                                                                                                                    
0010001300163A19458117882538003619MATERIAL DE CONSTRUCAO        000000220713                                                                                                                                                                    
0010001300164A34877142739808887824SUPERMERCADO IDEAL            000000261693                                                                                                                                                                    
0010001300165A66025437578245613637CLINICA MEDICA VIDA           000000874412                                                                                                                                                                    
0010001300166A95441789721136701523FARMACIA POPULAR              000000503335                                                                                                                                                                    
0010001300167A83324300872196133743FARMACIA POPULAR              000000768449                                                                                                                                                                    
0010001300168A35085895726486902446MERCADO CENTRAL LTDA          000000608026                                                                                                                                                                    
0010001300169A19643395162114076351CONSTRUTORA PARAIBA           000000987852                                                                                                                                                                    
0010001300170A76349776036699135709JOAO DA SILVA                 000000699389                                                                                                                                                                    
0010001300171A87043004931757347456CLINICA MEDICA VIDA           000000760002                                                                                                                                                                    
0010001300172A84847915278102334201CONSTRUTORA PARAIBA           000000486322                                                                                                                                                                    
0010001300173A36451159512262172199PAPELARIA ESCOLAR             000000092559                                                                                                                                                                    
0010001300174A66383911318024123386CONSTRUTORA PARAIBA           000000461858                                                                                                                                                                    
0010001300175A81082211627357819027MATERIAL DE CONSTRUCAO        000000703368                                                                                                                                                                    
0010001300176A18894107120539831143PAPELARIA ESCOLAR             000000070994                                                                                                                                                                    
0010001300177A21230446989059116152OFICINA MECANICA              000000683835                                                                                                                                                                    
0010001300178A54970352515718813725TRANSPORTES EXPRESS           000000525832                                                                                                                                                                    
0010001300179A98310520424951338058HOTEL PRAIA AZUL              000000238833                                                                                                                                                                    
0010001300180A47502249734780941248AUTO PECAS BRASIL             000000725872                                                                                                                                                                    
0010001300181A15176708634958393766TRANSPORTES EXPRESS           000000165598                                                                                                                                                                    
0010001300182A33174424321035415453CONSTRUTORA PARAIBA           000000123149                                                                                                                                                                    
0010001300183A41528908355244015945FARMACIA POPULAR              000000158881                                                                                                                                                                    
0010001300184A74051420511739270927AUTO PECAS BRASIL             000000408554                                                                                                                                                                    
0010001300185A85791704929459349703PAPELARIA ESCOLAR             000000287141                                                                                                                                                                    
0010001300186A21172307033806954631CLINICA MEDICA VIDA           000000562683                                                                                                                                                                    
0010001300187A29942073588457762267SUPERMERCADO IDEAL            000000608610                                                                                                                                                                    
0010001300188A65735699088617235295FARMACIA POPULAR              000000990390                                                                                                                                                                    
0010001300189A83265746517128688984PADARIA SAO JOSE              000000277352                                                                                                                                                                    
0010001300190A94844292650631846686OFICINA MECANICA              000000499012                                                                                                                                                                    
0010001300191A15954641720548087136JOAO DA SILVA                 000000487766                                                                                                                                                                    
0010001300192A59933729200012337379FARMACIA POPULAR              000000532904                                                                                                                                                                    
0010001300193A24611300636743038140JOAO DA SILVA                 000000607165                                                                                                                                                                    
0010001300194@98761943674154507969ATACADO BRASIL                000000449661                                                                                                                                                                    
0010001300195A38932675312767180896POSTO COMBUSTIVEL             000000676298                                                                                                                                                                    
0010001300196A22729845873377392160ACADEMIA CORPO ATIVO          000000068043                                                                                                                                                                    
0010001300197A88717483357206816505JOAO DA SILVA                 000000325640                                                                                                                                                                    
0010001300198A79277353033830961129FARMACIA POPULAR              000000361586                                                                                                                                                                    
0010001300199A76544042332991825208OFICINA MECANICA              000000286588                                                                                                                                                                    
0010001300200A62321314218139069544ACADEMIA CORPO ATIVO          000000246358                                                                                                                                                                    
0010001300201A95198541377497889158CONSTRUTORA PARAIBA           000000105304                                                                                                                                                                    
0010001300202A66474681534031310069RESTAURANTE SABOR             000000756750                                                                                                                                                                    
0010001300203A94373048360945668566MATERIAL DE CONSTRUCAO        000000478800                                                                                                                                                                    
0010001300204A31204511032843017886SUPERMERCADO IDEAL            000000731622                                                                                                                                                                    
0010001300205A28640025062534379287RESTAURANTE SABOR             000000011748                                                                                                                                                                    
0010001300206A23690264912474044774RESTAURANTE SABOR             000000883390                                                                                                                                                                    
0010001300207A22762928276550915802ACADEMIA CORPO ATIVO          000000113630                                                                                                                                                                    
0010001300208A35057044436664221870PAPELARIA ESCOLAR             000000395768                                                                                                                                                                    
0010001300209A29744890581100031599MARIA OLIVEIRA                000000522247                                                                                                                                                                    
0010001300210@26092099749172215515MARIA OLIVEIRA                000000026626                                                                                                                                                                    
0010001300211A64434993616744376101OFICINA MECANICA              000000555575                                                                                                                                                                    
0010001300212A63999752839989461798HOTEL PRAIA AZUL              000000229783                                                                                                                                                                    
0010001300213A62879990743173058191POSTO COMBUSTIVEL             000000334405                                                                                                                                                                    
0010001300214A82751297112494158756ACADEMIA CORPO ATIVO          000000191714                                                                                                                                                                    
0010001300215A31794784168341536583MERCADO CENTRAL LTDA          000000318560                                                                                                                                                                    
0010001300216A58238863543591556006POSTO COMBUSTIVEL             000000804136                                                                                                                                                                    
0010001300217A87283293499089476650HOTEL PRAIA AZUL              000000602604                                                                                                                                                                    
0010001300218A22100217648162639686MATERIAL DE CONSTRUCAO        000000421655                                                                                                                                                                    
0010001300219A39509196129604133232AUTO PECAS BRASIL             000000983416                                                                                                                                                                    
0010001300220A88185938695055635305EMPRESA TESTE LTDA            000000332321                                                                                                                                                                    
0010001300221A57662678714797749904HOTEL PRAIA AZUL              000000956572                                                                                                                                                                    
0010001300222A18884404864321702271OFICINA MECANICA              000000773957                                                                                                                                                                    
0010001300223A57919794599811574178EMPRESA TESTE LTDA            000000013751                                                                                                                                                                    
0010001300224A69189481446886005530MERCADO CENTRAL LTDA          000000682502                                                                                                                                                                    
0010001300225A15372968905005605193ATACADO BRASIL                000000679710                                                                                                                                                                    
0010001300226A66517992844943844133AUTO PECAS BRASIL             000000026177                                                                                                                                                                    
0010001300227A90718442008973441419CLINICA MEDICA VIDA           000000240435                                                                                                                                                                    
0010001300228A38230292334733143998EMPRESA TESTE LTDA            000000288872                                                                                                                                                                    
0010001300229A86228139594454947209MATERIAL DE CONSTRUCAO        000000932457                                                                                                                                                                    
0010001300230A98643069692670002222HOTEL PRAIA AZUL              000000631863                                                                                                                                                                    
0010001300231A35761317979612134899ATACADO BRASIL                000000604379                                                                                                                                                                    
0010001300232A45771465066872221669JOAO DA SILVA                 000000818842ERRO_LAYOUT                                                                                                                                                         
0010001300233A57085228684436921580MARIA OLIVEIRA                000000378235                                                                                                                                                                    
0010001300234A85165274654145150737OFICINA MECANICA              000000049734                                                                                                                                                                    
0010001300235A23725247716707376961HOTEL PRAIA AZUL              000000100708                                                                                                                                                                    
0010001300236A77378796050882448804MARIA OLIVEIRA                000000275533                                                                                                                                                                    
0010001300237A97244929429907061312OFICINA MECANICA              000000780548                                                                                                                                                                    
0010001300238A93532245948311966909TRANSPORTES EXPRESS           000000341882                                                                                                                                                                    
0010001300239A85040653478265821940POSTO COMBUSTIVEL             000000285669                                                                                                                                                                    
0010001300240A84072005966705576016FARMACIA POPULAR              000000570119                                                                                                                                                                    
0010001300241A18468082411174846352CLINICA MEDICA VIDA           000000808310                                                                                                                                                                    
0010001300242A82024797200306316446MARIA OLIVEIRA                000000720820                                                                                                                                                                    
0010001300243A53769668717245435426ATACADO BRASIL                000000479675                                                                                                                                                                    
0010001300244A75107574653453959196MARIA OLIVEIRA                000000352686                                                                                                                                                                    
0010001300245A35466891412343364798FARMACIA POPULAR              000000028882                                                                                                                                                                    
0010001300246A52588605156890263219CONSTRUTORA PARAIBA           000000914044                                                                                                                                                                    
0010001300247A16653950776390070859MERCADO CENTRAL LTDA          000000145357                                                                                                                                                                    
0010001300248A66311179918505661276CONSTRUTORA PARAIBA           000000658999                                                                                                                                                                    
0010001300249A81199911717889792012TRANSPORTES EXPRESS           000000877059                                                                                                                                                                    
0010001300250A16642309158965679756OFICINA MECANICA              000000647673                                                                                                                                                                    
0010001300251A99179435615393183281OFICINA MECANICA              000000675298                                                                                                                                                                    
0010001300252A78183471231445731237TRANSPORTES EXPRESS           000000345950                                                                                                                                                                    
0010001300253A92573101710724489698FARMACIA POPULAR              000000612088                                                                                                                                                                    
0010001300254A55886531564939127754FARMACIA POPULAR              000000484195                                                                                                                                                                    
0010001300255A84124165844352663367MERCADO CENTRAL LTDA          000000028313                                                                                                                                                                    
0010001300256A73743997638050681528POSTO COMBUSTIVEL             000000521336                                                                                                                                                                    
0010001300257A62935759023592977210PADARIA SAO JOSE              000000263464ERRO_LAYOUT                                                                                                                                                         
0010001300258A32650349846097961530EMPRESA TESTE LTDA            000000105702                                                                                                                                                                    
0010001300259A29353993550264338046TRANSPORTES EXPRESS           000000679613                                                                                                                                                                    
0010001300260A69666988649424580263MATERIAL DE CONSTRUCAO        000000201580ERRO_LAYOUT                                                                                                                                                         
0010001300261A20186576310194324354FARMACIA POPULAR              000000994545                                                                                                                                                                    
0010001300262A42998796873482651499JOAO DA SILVA                 000000641903                                                                                                                                                                    
0010001300263A69949899386581439610PAPELARIA ESCOLAR             000000966226                                                                                                                                                                    
0010001300264A24671008966699155957AUTO PECAS BRASIL             000000323783                                                                                                                                                                    
0010001300265A74839815937732414049POSTO COMBUSTIVEL             000000663926                                                                                                                                                                    
0010001300266A61708468856235613519TRANSPORTES EXPRESS           000000335529                                                                                                                                                                    
0010001300267A75531368648319954359TRANSPORTES EXPRESS           000000797450                                                                                                                                                                    
0010001300268A64573546940616456801PAPELARIA ESCOLAR             000000042814                                                                                                                                                                    
0010001300269A59023954984827717956AUTO PECAS BRASIL             000000571024                                                                                                                                                                    
0010001300270A71383870571447035109OFICINA MECANICA              000000907284                                                                                                                                                                    
0010001300271A62632993337038603996POSTO COMBUSTIVEL             000000231700                                                                                                                                                                    
0010001300272A71483387960964986244PAPELARIA ESCOLAR             000000111810                                                                                                                                                                    
0010001300273A21726696317598053345RESTAURANTE SABOR             000000476252                                                                                                                                                                    
0010001300274A61654783777481255333CLINICA MEDICA VIDA           000000971499                                                                                                                                                                    
0010001300275A26966300941883496252LOJA DE INFORMATICA           000000922755                                                                                                                                                                    
0010001300276A24885977423245941849OFICINA MECANICA              000000702337                                                                                                                                                                    
0010001300277A64513237900861700419POSTO COMBUSTIVEL             000000448561                                                                                                                                                                    
0010001300278A95921549657942276247ACADEMIA CORPO ATIVO          000000264904                                                                                                                                                                    
0010001300279A18377479821815129758MARIA OLIVEIRA                000000004010                                                                                                                                                                    
0010001300280A80753644474554915239OFICINA MECANICA              000000435286                                                                                                                                                                    
0010001300281@72550854216794117671PAPELARIA ESCOLAR             000000580261                                                                                                                                                                    
0010001300282A59198332618719808820FARMACIA POPULAR              000000815134                                                                                                                                                                    
0010001300283A69395416223465852246RESTAURANTE SABOR             000000446331                                                                                                                                                                    
0010001300284A90438451689700049560CLINICA MEDICA VIDA           000000932756                                                                                                                                                                    
0010001300285A95192298105913571403MARIA OLIVEIRA                000000176978                                                                                                                                                                    
0010001300286A51111026445868016180LOJA DE INFORMATICA           000000967676                                                                                                                                                                    
0010001300287A43158562183296973994FARMACIA POPULAR              000000937594ERRO_LAYOUT                                                                                                                                                         
0010001300288A80738600399125556306PADARIA SAO JOSE              000000193613                                                                                                                                                                    
0010001300289A48677178575254148843CONSTRUTORA PARAIBA           000000929658                                                                                                                                                                    
0010001300290A93908096926465194853FARMACIA POPULAR              000000423615                                                                                                                                                                    
0010001300291A60033651947189949266PAPELARIA ESCOLAR             000000986260                                                                                                                                                                    
0010001300292A59053706955510471910AUTO PECAS BRASIL             000000210616                                                                                                                                                                    
0010001300293A59036254463392882766EMPRESA TESTE LTDA            000000660648                                                                                                                                                                    
0010001300294A50527028392388442465TRANSPORTES EXPRESS           000000119304                                                                                                                                                                    
0010001300295A26541119953134948013PADARIA SAO JOSE              000000508813                                                                                                                                                                    
0010001300296A70681109285212175636AUTO PECAS BRASIL             000000311636                                                                                                                                                                    
0010001300297A36666883077562825319PADARIA SAO JOSE              000000237772                                                                                                                                                                    
0010001300298A23783424322690058590RESTAURANTE SABOR             000000800849                                                                                                                                                                    
0010001300299A85191566825741153870TRANSPORTES EXPRESS           000000584749                                                                                                                                                                    
0010001300300A44700666262691063608OFICINA MECANICA              000000547709                                                                                                                                                                    
0010001300301A40649776259185978334MERCADO CENTRAL LTDA          000000226033                                                                                                                                                                    
0010001300302A56035298650872691237JOAO DA SILVA                 000000553458                                                                                                                                                                    
0010001300303A71011589430493486583POSTO COMBUSTIVEL             000000029051                                                                                                                                                                    
0010001300304A36777733514896959196CLINICA MEDICA VIDA           000000499927                                                                                                                                                                    
0010001300305A71745179830619655617ACADEMIA CORPO ATIVO          000000460727                                                                                                                                                                    
0010001300306A94666321619548886375MARIA OLIVEIRA                000000403660                                                                                                                                                                    
0010001300307A60558360100325538379POSTO COMBUSTIVEL             000000156686                                                                                                                                                                    
0010001300308A12293341992914807736ATACADO BRASIL                000000039506                                                                                                                                                                    
0010001300309A52727404105735207752ACADEMIA CORPO ATIVO          000000328543                                                                                                                                                                    
0010001300310A40668200086945172908LOJA DE INFORMATICA           000000109645                                                                                                                                                                    
0010001300311A45452593120175147259ATACADO BRASIL                000000453074                                                                                                                                                                    
0010001300312A89529013688440000930POSTO COMBUSTIVEL             000000006458                                                                                                                                                                    
0010001300313A83100770233531070219EMPRESA TESTE LTDA            000000703528                                                                                                                                                                    
0010001300314A88434075844969316290MERCADO CENTRAL LTDA          000000319167                                                                                                                                                                    
0010001300315A34449779208482318519FARMACIA POPULAR              000000516265                                                                                                                                                                    
0010001300316A64609026269716187452PADARIA SAO JOSE              000000021145                                                                                                                                                                    
0010001300317A62001340326557773751CONSTRUTORA PARAIBA           000000642900                                                                                                                                                                    
0010001300318A70433175067854834477MERCADO CENTRAL LTDA          000000398138                                                                                                                                                                    
0010001300319A64327523676347721851EMPRESA TESTE LTDA            000000367838                                                                                                                                                                    
0010001300320A37191140901937162257AUTO PECAS BRASIL             000000498352                                                                                                                                                                    
0010001300321A14982997011520845403CLINICA MEDICA VIDA           000000093035                                                                                                                                                                    
0010001300322A14927673643797612476RESTAURANTE SABOR             000000531548                                                                                                                                                                    
0010001300323A21412023904231649930RESTAURANTE SABOR             000000116781ERRO_LAYOUT                                                                                                                                                         
0010001300324A63562236201342162238MERCADO CENTRAL LTDA          000000326866                                                                                                                                                                    
0010001300325A16611923608609966045POSTO COMBUSTIVEL             000000610811                                                                                                                                                                    
0010001300326A89817064797476797972AUTO PECAS BRASIL             000000569093                                                                                                                                                                    
0010001300327A44264394893596068795CONSTRUTORA PARAIBA           000000575814                                                                                                                                                                    
0010001300328A87012194215823491805CONSTRUTORA PARAIBA           000000447149                                                                                                                                                                    
0010001300329A19545451371825926044PAPELARIA ESCOLAR             000000269837                                                                                                                                                                    
0010001300330A26323640947231532623CONSTRUTORA PARAIBA           000000868086                                                                                                                                                                    
0010001300331A89522695140018163266SUPERMERCADO IDEAL            000000899353                                                                                                                                                                    
0010001300332A41608837303259698097AUTO PECAS BRASIL             000000683918                                                                                                                                                                    
0010001300333A21144443857879568844MATERIAL DE CONSTRUCAO        000000973232                                                                                                                                                                    
0010001300334A61422926785430025209CONSTRUTORA PARAIBA           000000288954                                                                                                                                                                    
0010001300335A16278998465614746084FARMACIA POPULAR              000000023060                                                                                                                                                                    
0010001300336A65466683019017466025JOAO DA SILVA                 000000274529                                                                                                                                                                    
0010001300337A96221438669251096641CLINICA MEDICA VIDA           000000049989                                                                                                                                                                    
0010001300338A37290265343934859300AUTO PECAS BRASIL             000000055422                                                                                                                                                                    
0010001300339A35412514430962017896SUPERMERCADO IDEAL            000000847109                                                                                                                                                                    
0010001300340A36876507670105419560PADARIA SAO JOSE              000000216870                                                                                                                                                                    
0010001300341A37600863000386087390TRANSPORTES EXPRESS           000000642990                                                                                                                                                                    
0010001300342A15976310222831703866POSTO COMBUSTIVEL             000000871622                                                                                                                                                                    
0010001300343A89910379939954356401MARIA OLIVEIRA                000000273113                                                                                                                                                                    
0010001300344A51206778286999216490AUTO PECAS BRASIL             000000343373                                                                                                                                                                    
0010001300345A88586377790404532417AUTO PECAS BRASIL             000000055068                                                                                                                                                                    
0010001300346A61076589556952790230OFICINA MECANICA              000000101339                                                                                                                                                                    
0010001300347A98716905297286964875HOTEL PRAIA AZUL              000000455542                                                                                                                                                                    
0010001300348A68016240196359895613MARIA OLIVEIRA                000000664326                                                                                                                                                                    
0010001300349A25199539334009946306JOAO DA SILVA                 000000639797                                                                                                                                                                    
0010001300350A68224107268335019810POSTO COMBUSTIVEL             000000925453                                                                                                                                                                    
0010001300351A59818327759531118344EMPRESA TESTE LTDA            000000271015                                                                                                                                                                    
0010001300352A41345034043303137662MERCADO CENTRAL LTDA          000000961500                                                                                                                                                                    
0010001300353A54027799124636777668EMPRESA TESTE LTDA            000000829655                                                                                                                                                                    
0010001300354A95002793019336878341EMPRESA TESTE LTDA            000000735365                                                                                                                                                                    
0010001300355A54903240252784292480TRANSPORTES EXPRESS           000000325652ERRO_LAYOUT                                                                                                                                                         
0010001300356A42488455163244223695OFICINA MECANICA              000000969202                                                                                                                                                                    
0010001300357A17895532079987794017MARIA OLIVEIRA                000000432888                                                                                                                                                                    
0010001300358A40601071370000313951PADARIA SAO JOSE              000000198636                                                                                                                                                                    
0010001300359A33238311403563071825OFICINA MECANICA              000000892371                                                                                                                                                                    
0010001300360A87248078252766077770CLINICA MEDICA VIDA           000000334797                                                                                                                                                                    
0010001300361A57465779106607385576OFICINA MECANICA              000000918660                                                                                                                                                                    
0010001300362A94159439571171018429PADARIA SAO JOSE              000000163268                                                                                                                                                                    
0010001300363A34388092883201402019CLINICA MEDICA VIDA           000000284036                                                                                                                                                                    
0010001300364A73552724050448443404OFICINA MECANICA              000000417589                                                                                                                                                                    
0010001300365A15804906558500401582PADARIA SAO JOSE              000000540025ERRO_LAYOUT                                                                                                                                                         
0010001300366A87510412964645445113AUTO PECAS BRASIL             000000449056                                                                                                                                                                    
0010001300367A72863574286421872714OFICINA MECANICA              000000810100                                                                                                                                                                    
0010001300368A29520855640509353174EMPRESA TESTE LTDA            000000771006                                                                                                                                                                    
0010001300369A29890699185146900364SUPERMERCADO IDEAL            000000657984                                                                                                                                                                    
0010001300370A32973364232171970972ATACADO BRASIL                000000517061                                                                                                                                                                    
0010001300371A42946368162603956861POSTO COMBUSTIVEL             000000187327                                                                                                                                                                    
0010001300372A52451607563167191796ATACADO BRASIL                000000225000                                                                                                                                                                    
0010001300373A61517312161264445027LOJA DE INFORMATICA           000000708829                                                                                                                                                                    
0010001300374A60873230163742029100MATERIAL DE CONSTRUCAO        000000302654                                                                                                                                                                    
0010001300375A93129892774499556878FARMACIA POPULAR              000000648572                                                                                                                                                                    
0010001300376A87479957203523220380SUPERMERCADO IDEAL            000000379702                                                                                                                                                                    
0010001300377A13968451805939916524CLINICA MEDICA VIDA           000000898853                                                                                                                                                                    
0010001300378A64200853165843815075FARMACIA POPULAR              000000977339                                                                                                                                                                    
0010001300379A34711683189387233023EMPRESA TESTE LTDA            000000369169                                                                                                                                                                    
0010001300380A37489100835790258040LOJA DE INFORMATICA           000000828216                                                                                                                                                                    
0010001300381A97137942579816342990HOTEL PRAIA AZUL              000000848596                                                                                                                                                                    
0010001300382A18673942559975354758OFICINA MECANICA              000000499038                                                                                                                                                                    
0010001300383A71259612609168961608MERCADO CENTRAL LTDA          000000018119ERRO_LAYOUT                                                                                                                                                         
0010001300384A25112546218118304018PADARIA SAO JOSE              000000188330                                                                                                                                                                    
0010001300385A87654310057306700006ACADEMIA CORPO ATIVO          000000381140                                                                                                                                                                    
0010001300386A13299505219977265776TRANSPORTES EXPRESS           000000625378                                                                                                                                                                    
0010001300387A32587290259482216870AUTO PECAS BRASIL             000000160838                                                                                                                                                                    
0010001300388A48714581035388347688SUPERMERCADO IDEAL            000000981020                                                                                                                                                                    
0010001300389A40029622757152372076TRANSPORTES EXPRESS           000000780052                                                                                                                                                                    
0010001300390@42217813610268162817MERCADO CENTRAL LTDA          000000309400                                                                                                                                                                    
0010001300391A48856276083332666554MARIA OLIVEIRA                000000279725                                                                                                                                                                    
0010001300392A72585473217522869717PAPELARIA ESCOLAR             000000903838                                                                                                                                                                    
0010001300393A92894911110296276262ATACADO BRASIL                000000849237                                                                                                                                                                    
0010001300394A58678507705256221716CLINICA MEDICA VIDA           000000105396                                                                                                                                                                    
0010001300395A68635030015651285473PAPELARIA ESCOLAR             000000313113                                                                                                                                                                    
0010001300396A50401578919214163978OFICINA MECANICA              000000831722                                                                                                                                                                    
0010001300397A91433538668798847877MARIA OLIVEIRA                000000217808                                                                                                                                                                    
0010001300398A78571443726827099264HOTEL PRAIA AZUL              000000740079                                                                                                                                                                    
0010001300399A11596645378608000783ACADEMIA CORPO ATIVO          000000466120                                                                                                                                                                    
0010001300400A75810089976222096061FARMACIA POPULAR              000000184637                                                                                                                                                                    
0010001300401A96758796536379067654MERCADO CENTRAL LTDA          000000371303                                                                                                                                                                    
0010001300402A53178929351923372972SUPERMERCADO IDEAL            000000476227                                                                                                                                                                    
0010001300403A78798607967482469809TRANSPORTES EXPRESS           000000669973                                                                                                                                                                    
0010001300404A44658520732256007528ACADEMIA CORPO ATIVO          000000450466                                                                                                                                                                    
0010001300405A39206350903642697076JOAO DA SILVA                 000000652874                                                                                                                                                                    
0010001300406A97803731419492599335PAPELARIA ESCOLAR             000000454752                                                                                                                                                                    
0010001300407@65569909210952105328PAPELARIA ESCOLAR             000000457936                                                                                                                                                                    
0010001300408A94292458709035569434CLINICA MEDICA VIDA           000000593814                                                                                                                                                                    
0010001300409A21918059931678891111HOTEL PRAIA AZUL              000000304598                                                                                                                                                                    
0010001300410A77920698692138700094POSTO COMBUSTIVEL             000000407761                                                                                                                                                                    
0010001300411A31644034067136658220EMPRESA TESTE LTDA            000000627803                                                                                                                                                                    
0010001300412A22214340728807539393MARIA OLIVEIRA                000000149018                                                                                                                                                                    
0010001300413A48572965758924532836ACADEMIA CORPO ATIVO          000000118671                                                                                                                                                                    
