00100000                                                                                                                                                                                                                                        
0010001300001A30356663001410483785JOAO DA SILVA                 000000585550                                                                                                                                                                    
0010001300002A20020847266883578154AUTO PECAS BRASIL             000000457652                                                                                                                                                                    
0010001300003A39408021886911791291ATACADO BRASIL                000000670567                                                                                                                                                                    
0010001300004A58425468124149308858JOAO DA SILVA                 000000321107                                                                                                                                                                    
0010001300005A39161795434924485721OFICINA MECANICA              000000122748                                                                                                                                                                    
0010001300006A28782743223883500867CONSTRUTORA PARAIBA           000000637320                                                                                                                                                                    
0010001300007A59963958172396750591RESTAURANTE SABOR             000000462686                                                                                                                                                                    
0010001300008A73282640582405789502PAPELARIA ESCOLAR             000000303840ERRO_LAYOUT                                                                                                                                                         
0010001300009A29393426153337337676MERCADO CENTRAL LTDA          000000448212                                                                                                                                                                    
0010001300010A72725991991447953304ATACADO BRASIL                000000072973                                                                                                                                                                    
0010001300011A34259293067354189714POSTO COMBUSTIVEL             000000874850ERRO_LAYOUT                                                                                                                                                         
0010001300012A29683706945236144786ACADEMIA CORPO ATIVO          000000256062                                                                                                                                                                    
0010001300013A86678171997017179794ATACADO BRASIL                000000241311                                                                                                                                                                    
0010001300014A39759697873174293551JOAO DA SILVA                 000000219454                                                                                                                                                                    
0010001300015A35048763605396442998CLINICA MEDICA VIDA           000000384607                                                                                                                                                                    
0010001300016A17325784063823406288ATACADO BRASIL                000000685306                                                                                                                                                                    
0010001300017A65002372452207324527AUTO PECAS BRASIL             000000189724                                                                                                                                                                    
0010001300018A98651256091895619452MATERIAL DE CONSTRUCAO        000000922494                                                                                                                                                                    
0010001300019A10557002986504954725EMPRESA TESTE LTDA            000000266395                                                                                                                                                                    
0010001300020A98722936201340851481RESTAURANTE SABOR             000000876465                                                                                                                                                                    
0010001300021A70958748376006219041ACADEMIA CORPO ATIVO          000000285663ERRO_LAYOUT                                                                                                                                                         
0010001300022A77408155874883197446MATERIAL DE CONSTRUCAO        000000038835                                                                                                                                                                    
0010001300023A97822201710155432592CLINICA MEDICA VIDA           000000041886                                                                                                                                                                    
0010001300024A83472099896811043285MATERIAL DE CONSTRUCAO        000000560049                                                                                                                                                                    
0010001300025A52612534694327637953CONSTRUTORA PARAIBA           000000902072                                                                                                                                                                    
0010001300026A75946448501694908766MATERIAL DE CONSTRUCAO        000000244433ERRO_LAYOUT                                                                                                                                                         
0010001300027A47285241165060611264RESTAURANTE SABOR             000000215680                                                                                                                                                                    
0010001300028A81887275086482571749PAPELARIA ESCOLAR             000000947948                                                                                                                                                                    
0010001300029A97240207831256970721MERCADO CENTRAL LTDA          000000967424                                                                                                                                                                    
0010001300030A47265716585161421323MERCADO CENTRAL LTDA          000000740144                                                                                                                                                                    
0010001300031A71128292910799213292CLINICA MEDICA VIDA           000000670273                                                                                                                                                                    
0010001300032A44871856542853192644MARIA OLIVEIRA                000000496916                                                                                                                                                                    
0010001300033A24851784206301472269ATACADO BRASIL                000000692407                                                                                                                                                                    
0010001300034A74678892552392376959MATERIAL DE CONSTRUCAO        000000840928                                                                                                                                                                    
0010001300035A20850257057794234864CONSTRUTORA PARAIBA           000000335932                                                                                                                                                                    
0010001300036A36980094720027191903FARMACIA POPULAR              000000430205                                                                                                                                                                    
0010001300037A12189900208445651629POSTO COMBUSTIVEL             000000564263                                                                                                                                                                    
0010001300038A71461113852060511797PAPELARIA ESCOLAR             000000961852                                                                                                                                                                    
0010001300039A73080103757939251608MERCADO CENTRAL LTDA          000000986693                                                                                                                                                                    
0010001300040A53996132641259131477RESTAURANTE SABOR             000000728062                                                                                                                                                                    
0010001300041@25496488464596833083PADARIA SAO JOSE              000000890861                                                                                                                                                                    
0010001300042A94157964627232519362PAPELARIA ESCOLAR             000000533711                                                                                                                                                                    
0010001300043A88550933554749213657HOTEL PRAIA AZUL              000000067189                                                                                                                                                                    
0010001300044A81558346303388816703JOAO DA SILVA                 000000669275                                                                                                                                                                    
0010001300045A15390202152237060647OFICINA MECANICA              000000710391                                                                                                                                                                    
0010001300046A63046708167400040869AUTO PECAS BRASIL             000000487896                                                                                                                                                                    
0010001300047A14185745752445180375POSTO COMBUSTIVEL             000000225024                                                                                                                                                                    
0010001300048A81927567976627891459AUTO PECAS BRASIL             000000130101                                                                                                                                                                    
0010001300049A52812401160339893242HOTEL PRAIA AZUL              000000423262                                                                                                                                                                    
0010001300050A19113041692764648805RESTAURANTE SABOR             000000861589                                                                                                                                                                    
0010001300051A62289310365525475982POSTO COMBUSTIVEL             000000574128                                                                                                                                                                    
0010001300052A10041810417016660444MARIA OLIVEIRA                000000782700                                                                                                                                                                    
0010001300053A15012507857295692246MATERIAL DE CONSTRUCAO        000000387644                                                                                                                                                                    
0010001300054A29279351188340425086FARMACIA POPULAR              000000811934                                                                                                                                                                    
0010001300055A28351799521774148959MARIA OLIVEIRA                000000761979                                                                                                                                                                    
0010001300056A66084562447836858615CLINICA MEDICA VIDA           000000509988                                                                                                                                                                    
0010001300057A76118891304723029912ATACADO BRASIL                000000776658                                                                                                                                                                    
0010001300058A34082299983363206706MATERIAL DE CONSTRUCAO        000000968911                                                                                                                                                                    
0010001300059A51825740134188692327HOTEL PRAIA AZUL              000000745828                                                                                                                                                                    
0010001300060A39500177961762451990OFICINA MECANICA              000000120589                                                                                                                                                                    
0010001300061A76344781981892574572AUTO PECAS BRASIL             000000852013                                                                                                                                                                    
0010001300062A63072032808507166150POSTO COMBUSTIVEL             000000467089                                                                                                                                                                    
0010001300063@64226943874717609070ATACADO BRASIL                000000945219                                                                                                                                                                    
0010001300064A41858240816422059248RESTAURANTE SABOR             000000954080                                                                                                                                                                    
0010001300065A26791307680611442012ACADEMIA CORPO ATIVO          000000196722                                                                                                                                                                    
0010001300066A49529070393234276152HOTEL PRAIA AZUL              000000057922                                                                                                                                                                    
0010001300067A74481797018633392149MERCADO CENTRAL LTDA          000000585462                                                                                                                                                                    
0010001300068A67310682658559956764LOJA DE INFORMATICA           000000973583                                                                                                                                                                    
0010001300069A22924527240056814019POSTO COMBUSTIVEL             000000064343                                                                                                                                                                    
0010001300070A45504899837206724800OFICINA MECANICA              000000395434                                                                                                                                                                    
0010001300071A24633208736986910856MARIA OLIVEIRA                000000307875                                                                                                                                                                    
0010001300072A80959504020261547921MATERIAL DE CONSTRUCAO        000000369327                                                                                                                                                                    
0010001300073@65351259334911314324MERCADO CENTRAL LTDA          000000163415                                                                                                                                                                    
0010001300074A78041397971163006565MERCADO CENTRAL LTDA          000000460507                                                                                                                                                                    
0010001300075A16009861751864933603TRANSPORTES EXPRESS           000000915869                                                                                                                                                                    
0010001300076A60932856529083713369PADARIA SAO JOSE              000000730224                                                                                                                                                                    
0010001300077A86688356932958913358CLINICA MEDICA VIDA           000000961407                                                                                                                                                                    
0010001300078A59576623406940752770AUTO PECAS BRASIL             000000536678                                                                                                                                                                    
0010001300079A21604376915971530437RESTAURANTE SABOR             000000952675ERRO_LAYOUT                                                                                                                                                         
0010001300080A73859953140494133483SUPERMERCADO IDEAL            000000978340                                                                                                                                                                    
0010001300081A18087110817264336719SUPERMERCADO IDEAL            000000774203                                                                                                                                                                    
0010001300082A34202327279242938820EMPRESA TESTE LTDA            000000415615                                                                                                                                                                    
0010001300083A20598646739561687983ACADEMIA CORPO ATIVO          000000535162                                                                                                                                                                    
0010001300084@83706021398200801923POSTO COMBUSTIVEL             000000928918                                                                                                                                                                    
0010001300085A71528440815646984766MARIA OLIVEIRA                000000866392                                                                                                                                                                    
0010001300086A91826748211575135797JOAO DA SILVA                 000000409863                                                                                                                                                                    
0010001300087A26750517691698553230ACADEMIA CORPO ATIVO          000000744619                                                                                                                                                                    
0010001300088A59860380964516557971MARIA OLIVEIRA                000000695435                                                                                                                                                                    
0010001300089A68748881067167057691EMPRESA TESTE LTDA            000000249197                                                                                                                                                                    
0010001300090A14176989983831542940SUPERMERCADO IDEAL            000000162345                                                                                                                                                                    
0010001300091A73308481101934336264MATERIAL DE CONSTRUCAO        000000456678                                                                                                                                                                    
0010001300092A64789432156405629243LOJA DE INFORMATICA           000000687949                                                                                                                                                                    
0010001300093A34429426074430395545PADARIA SAO JOSE              000000291306                                                                                                                                                                    
0010001300094A33566471317762915335ACADEMIA CORPO ATIVO          000000234628                                                                                                                                                                    
0010001300095A26850873024544547974MATERIAL DE CONSTRUCAO        000000576973                                                                                                                                                                    
0010001300096A47115338995120743268PAPELARIA ESCOLAR             000000932773                                                                                                                                                                    
0010001300097A19579281115945787152ACADEMIA CORPO ATIVO          000000475193                                                                                                                                                                    
0010001300098@13445684178999252737FARMACIA POPULAR              000000396633                                                                                                                                                                    
0010001300099@53992708600622620627OFICINA MECANICA              000000348487                                                                                                                                                                    
0010001300100A17540325970765767957ACADEMIA CORPO ATIVO          000000125030                                                                                                                                                                    
0010001300101A18125190573464838251OFICINA MECANICA              000000698026                                                                                                                                                                    
0010001300102A83450828172725231740JOAO DA SILVA                 000000381960                                                                                                                                                                    
0010001300103A46099170083724197647CLINICA MEDICA VIDA           000000992332                                                                                                                                                                    
0010001300104A84453233944342854892CONSTRUTORA PARAIBA           000000557525                                                                                                                                                                    
0010001300105A15336528219687744445SUPERMERCADO IDEAL            000000810062                                                                                                                                                                    
0010001300106A76211389049217831541PADARIA SAO JOSE              000000978188                                                                                                                                                                    
0010001300107A89652371800783113401CONSTRUTORA PARAIBA           000000625787                                                                                                                                                                    
0010001300108@81467409379701368030FARMACIA POPULAR              000000328976                                                                                                                                                                    
0010001300109A65985717508917395010PADARIA SAO JOSE              000000351085                                                                                                                                                                    
0010001300110A16379593954452504524OFICINA MECANICA              000000091737                                                                                                                                                                    
0010001300111A16700440609833762235HOTEL PRAIA AZUL              000000210608                                                                                                                                                                    
0010001300112A99973895453458092899POSTO COMBUSTIVEL             000000616622                                                                                                                                                                    
0010001300113A14019169107850476817PADARIA SAO JOSE              000000476512                                                                                                                                                                    
0010001300114@50543831690969625212POSTO COMBUSTIVEL             000000846546                                                                                                                                                                    
0010001300115A21923342795276516314EMPRESA TESTE LTDA            000000654843                                                                                                                                                                    
0010001300116A74425494172894204173PADARIA SAO JOSE              000000117538                                                                                                                                                                    
0010001300117A64195011164234459788TRANSPORTES EXPRESS           000000800472                                                                                                                                                                    
0010001300118A54211515948012960334CONSTRUTORA PARAIBA           000000080782                                                                                                                                                                    
0010001300119A61097874539736517240FARMACIA POPULAR              000000158611                                                                                                                                                                    
0010001300120A31050269169459262984POSTO COMBUSTIVEL             000000946909                                                                                                                                                                    
0010001300121A79613962790801080902MARIA OLIVEIRA                000000777579                                                                                                                                                                    
0010001300122@19408908764317196244JOAO DA SILVA                 000000112518                                                                                                                                                                    
0010001300123A22746481652732833156PADARIA SAO JOSE              000000611271                                                                                                                                                                    
0010001300124A18166899454812972036CLINICA MEDICA VIDA           000000585593                                                                                                                                                                    
0010001300125A15026176516846109059PAPELARIA ESCOLAR             000000630389ERRO_LAYOUT                                                                                                                                                         
0010001300126A69882900611563660442LOJA DE INFORMATICA           000000580804                                                                                                                                                                    
0010001300127A43379334348587668059CONSTRUTORA PARAIBA           000000540458                                                                                                                                                                    
0010001300128A39541979277226622303JOAO DA SILVA                 000000763283                                                                                                                                                                    
0010001300129A89756905691608209013PAPELARIA ESCOLAR             000000845701                                                                                                                                                                    
0010001300130A84558059506611495581MERCADO CENTRAL LTDA          000000280877                                                                                                                                                                    
0010001300131A31999406433934622554LOJA DE INFORMATICA           000000747103                                                                                                                                                                    
0010001300132A47357648406323911845MARIA OLIVEIRA                000000579822                                                                                                                                                                    
0010001300133A23670422251508255777MARIA OLIVEIRA                000000355675                                                                                                                                                                    
0010001300134A50976787951905139187ATACADO BRASIL                000000755764                                                                                                                                                                    
0010001300135A77465115791095468626HOTEL PRAIA AZUL              000000619073                                                                                                                                                                    
0010001300136A40156067096030397018MERCADO CENTRAL LTDA          000000815780                                                                                                                                                                    
0010001300137A28440288524128540245MERCADO CENTRAL LTDA          000000430993                                                                                                                                                                    
0010001300138A91439444624352456497LOJA DE INFORMATICA           000000438425                                                                                                                                                                    
0010001300139A44858966086473510955EMPRESA TESTE LTDA            000000168672                                                                                                                                                                    
0010001300140A82047773703827984086MATERIAL DE CONSTRUCAO        000000869851                                                                                                                                                                    
0010001300141A61204097919968467836SUPERMERCADO IDEAL            000000530386                                                                                                                                                                    
0010001300142A94227501765190379447AUTO PECAS BRASIL             000000415901                                                                                                                                                                    
0010001300143A12927362030534840693MATERIAL DE CONSTRUCAO        000000858093                                                                                                                                                                    
0010001300144A88721040362953549527ATACADO BRASIL                000000863690                                                                                                                                                                    
0010001300145A60255950699021187202CLINICA MEDICA VIDA           000000078587                                                                                                                                                                    
0010001300146A68516082320768001561JOAO DA SILVA                 000000903951                                                                                                                                                                    
0010001300147A12741840058337677356FARMACIA POPULAR              000000235077                                                                                                                                                                    
0010001300148A79084662937117575431OFICINA MECANICA              000000437621                                                                                                                                                                    
0010001300149A59563606181169553171RESTAURANTE SABOR             000000750286                                                                                                                                                                    
0010001300150@26080081578382402077TRANSPORTES EXPRESS           000000409823                                                                                                                                                                    
0010001300151A13893771515077300807LOJA DE INFORMATICA           000000602716                                                                                                                                                                    
0010001300152A34039913841316715443ATACADO BRASIL                000000597588                                                                                                                                                                    
0010001300153A79245417392924250298LOJA DE INFORMATICA           000000680883                                                                                                                                                                    
0010001300154A54234104521100727543OFICINA MECANICA              000000041481                                                                                                                                                                    
0010001300155A35560163538333519767HOTEL PRAIA AZUL              000000920233                                                                                                                                                                    
0010001300156A44071502907152806273JOAO DA SILVA                 000000494780                                                                                                                                                                    
0010001300157A74364332657156201057POSTO COMBUSTIVEL             000000098692                                                                                                                                                                    
0010001300158A68777769043415200413MERCADO CENTRAL LTDA          000000936059                                                                                                                                                                    
0010001300159A55932530029258873620ACADEMIA CORPO ATIVO          000000570617                                                                                                                                                                    
0010001300160A85974207173922695962JOAO DA SILVA                 000000721341                                                                                                                                                                    
0010001300161A99563379416343141567AUTO PECAS BRASIL             000000604718                                                                                                                                                                    
0010001300162A84453582079749818571FARMACIA POPULAR              000000387017                                                                                                                                                                    
0010001300163A93286278009443363564OFICINA MECANICA              000000592124                                                                                                                                                                    
0010001300164A39321305924292245893JOAO DA SILVA                 000000454522                                                                                                                                                                    
0010001300165A53959951950430489870CONSTRUTORA PARAIBA           000000643112                                                                                                                                                                    
0010001300166A50172948845604800319CLINICA MEDICA VIDA           000000435035                                                                                                                                                                    
0010001300167A31008191449381575757TRANSPORTES EXPRESS           000000565148                                                                                                                                                                    
0010001300168A55563658707850257448FARMACIA POPULAR              000000949873                                                                                                                                                                    
0010001300169A86051606516958685319AUTO PECAS BRASIL             000000642900                                                                                                                                                                    
0010001300170A65330167449539181241ACADEMIA CORPO ATIVO          000000665715                                                                                                                                                                    
0010001300171A27542209567787698715PADARIA SAO JOSE              000000949150                                                                                                                                                                    
0010001300172A19170494772279790639JOAO DA SILVA                 000000441020                                                                                                                                                                    
0010001300173A57297975701605713173OFICINA MECANICA              000000909788                                                                                                                                                                    
0010001300174A28773807035522174628CONSTRUTORA PARAIBA           000000692726                                                                                                                                                                    
0010001300175A57433807571209062624POSTO COMBUSTIVEL             000000477025                                                                                                                                                                    
0010001300176A61225593912603461491AUTO PECAS BRASIL             000000291156                                                                                                                                                                    
0010001300177A58746229537171619164FARMACIA POPULAR              000000651564                                                                                                                                                                    
0010001300178A99042120756853116682TRANSPORTES EXPRESS           000000878784                                                                                                                                                                    
0010001300179A79146046740293028430MATERIAL DE CONSTRUCAO        000000898462                                                                                                                                                                    
0010001300180A21753315056076973543TRANSPORTES EXPRESS           000000442629ERRO_LAYOUT                                                                                                                                                         
0010001300181A74023009193829809999SUPERMERCADO IDEAL            000000787743                                                                                                                                                                    
0010001300182A48028275401906390765JOAO DA SILVA                 000000578184                                                                                                                                                                    
0010001300183A56288357241550504069FARMACIA POPULAR              000000777807                                                                                                                                                                    
0010001300184A99396323202245910669PADARIA SAO JOSE              000000413533                                                                                                                                                                    
0010001300185A24616376670233388813PAPELARIA ESCOLAR             000000468777                                                                                                                                                                    
0010001300186A78466382338259004441CLINICA MEDICA VIDA           000000789609                                                                                                                                                                    
0010001300187A40332906345630915150AUTO PECAS BRASIL             000000908672ERRO_LAYOUT                                                                                                                                                         
0010001300188A33657973570356852152SUPERMERCADO IDEAL            000000340365                                                                                                                                                                    
0010001300189A30838766325917542022POSTO COMBUSTIVEL             000000134473                                                                                                                                                                    
0010001300190A74137358236626391187PADARIA SAO JOSE              000000478238                                                                                                                                                                    
0010001300191A51546755240846997669MATERIAL DE CONSTRUCAO        000000707315                                                                                                                                                                    
0010001300192A29330370314269736916MERCADO CENTRAL LTDA          000000690450ERRO_LAYOUT                                                                                                                                                         
0010001300193A63076153935719943744PADARIA SAO JOSE              000000097863                                                                                                                                                                    
0010001300194A56602592742957610009TRANSPORTES EXPRESS           000000036638                                                                                                                                                                    
0010001300195A35428131743313067174ATACADO BRASIL                000000241579ERRO_LAYOUT                                                                                                                                                         
0010001300196A75195041445368531845PAPELARIA ESCOLAR             000000872709                                                                                                                                                                    
0010001300197A63000842195199611523PADARIA SAO JOSE              000000850846                                                                                                                                                                    
0010001300198A55418122663466728476HOTEL PRAIA AZUL              000000809451                                                                                                                                                                    
0010001300199A51442162020154171702ATACADO BRASIL                000000830148                                                                                                                                                                    
0010001300200A71078523678932877098RESTAURANTE SABOR             000000058796                                                                                                                                                                    
0010001300201A90857959443980473297FARMACIA POPULAR              000000715721                                                                                                                                                                    
0010001300202A87064192406150801254ACADEMIA CORPO ATIVO          000000253170                                                                                                                                                                    
0010001300203A64117404162250335909LOJA DE INFORMATICA           000000427187                                                                                                                                                                    
0010001300204A81060068345974517122RESTAURANTE SABOR             000000620912                                                                                                                                                                    
0010001300205A70686304075831306919MATERIAL DE CONSTRUCAO        000000676268                                                                                                                                                                    
0010001300206A85045934755773743620HOTEL PRAIA AZUL              000000541983                                                                                                                                                                    
0010001300207A36462191595994402629TRANSPORTES EXPRESS           000000782644                                                                                                                                                                    
0010001300208A99830630384366134265ACADEMIA CORPO ATIVO          000000648539                                                                                                                                                                    
0010001300209A39252391063739552976EMPRESA TESTE LTDA            000000120440                                                                                                                                                                    
0010001300210A57228740633727078136MATERIAL DE CONSTRUCAO        000000181416                                                                                                                                                                    
0010001300211A85398937539121874772POSTO COMBUSTIVEL             000000483101                                                                                                                                                                    
0010001300212A74458998320362766288HOTEL PRAIA AZUL              000000443144                                                                                                                                                                    
0010001300213A76102301777174794826OFICINA MECANICA              000000306346ERRO_LAYOUT                                                                                                                                                         
0010001300214A77864950689152349062HOTEL PRAIA AZUL              000000090167                                                                                                                                                                    
0010001300215A92617262800271015388SUPERMERCADO IDEAL            000000849541                                                                                                                                                                    
0010001300216A43098951263140806556JOAO DA SILVA                 000000046229                                                                                                                                                                    
0010001300217A87068758277073530131TRANSPORTES EXPRESS           000000700344                                                                                                                                                                    
0010001300218A20997037615987634426CONSTRUTORA PARAIBA           000000191155                                                                                                                                                                    
0010001300219A48476341222668125575RESTAURANTE SABOR             000000339170                                                                                                                                                                    
0010001300220A16275486326268589661POSTO COMBUSTIVEL             000000909258                                                                                                                                                                    
0010001300221A84575474874235154669CONSTRUTORA PARAIBA           000000467035                                                                                                                                                                    
0010001300222@10146146482169413276POSTO COMBUSTIVEL             000000661921                                                                                                                                                                    
0010001300223A78153960120923772741PADARIA SAO JOSE              000000286253                                                                                                                                                                    
0010001300224A40602374186402360835RESTAURANTE SABOR             000000899576                                                                                                                                                                    
0010001300225A96557000330595241439CONSTRUTORA PARAIBA           000000444212                                                                                                                                                                    
0010001300226A58314913456373756243ATACADO BRASIL                000000208111                                                                                                                                                                    
0010001300227A16370236154133732315MATERIAL DE CONSTRUCAO        000000130435                                                                                                                                                                    
0010001300228A37019842589701001164ACADEMIA CORPO ATIVO          000000067152                                                                                                                                                                    
0010001300229A40483887734002233694POSTO COMBUSTIVEL             000000215762                                                                                                                                                                    
0010001300230@45842160910592718398ACADEMIA CORPO ATIVO          000000243384                                                                                                                                                                    
0010001300231A77881169207019114952RESTAURANTE SABOR             000000465958                                                                                                                                                                    
0010001300232A61079767023765288871PAPELARIA ESCOLAR             000000895801                                                                                                                                                                    
0010001300233A15952226780519290014AUTO PECAS BRASIL             000000698048                                                                                                                                                                    
0010001300234A47060894011432189066HOTEL PRAIA AZUL              000000458960ERRO_LAYOUT                                                                                                                                                         
0010001300235@14736399697161693530RESTAURANTE SABOR             000000956885                                                                                                                                                                    
0010001300236A40026716045499928497ATACADO BRASIL                000000031395                                                                                                                                                                    
0010001300237A79885268565185023729EMPRESA TESTE LTDA            000000986150                                                                                                                                                                    
0010001300238@65990118525704934432POSTO COMBUSTIVEL             000000413582                                                                                                                                                                    
0010001300239A37200965860353114372EMPRESA TESTE LTDA            000000481882                                                                                                                                                                    
0010001300240A72133288300042160826TRANSPORTES EXPRESS           000000524861                                                                                                                                                                    
0010001300241A43382483060138444725MARIA OLIVEIRA                000000228714                                                                                                                                                                    
0010001300242A63192610713888615299ACADEMIA CORPO ATIVO          000000557962                                                                                                                                                                    
0010001300243A72345535394684287845AUTO PECAS BRASIL             000000335828                                                                                                                                                                    
0010001300244A65534292169682785645PAPELARIA ESCOLAR             000000796252                                                                                                                                                                    
0010001300245A87030975661270684460FARMACIA POPULAR              000000684252                                                                                                                                                                    
0010001300246A80856478874777458500POSTO COMBUSTIVEL             000000993402                                                                                                                                                                    
0010001300247A48519891482633969096CLINICA MEDICA VIDA           000000731659ERRO_LAYOUT                                                                                                                                                         
0010001300248A39653031226647682100CONSTRUTORA PARAIBA           000000702833                                                                                                                                                                    
0010001300249A14363303807390179909HOTEL PRAIA AZUL              000000414140                                                                                                                                                                    
0010001300250A55035832334444764186CONSTRUTORA PARAIBA           000000732043                                                                                                                                                                    
0010001300251A33162959624487904531HOTEL PRAIA AZUL              000000909727                                                                                                                                                                    
0010001300252A84492561582856728708ACADEMIA CORPO ATIVO          000000066824                                                                                                                                                                    
0010001300253A35842014124810960253JOAO DA SILVA                 000000064759                                                                                                                                                                    
0010001300254A35712281990474360965CONSTRUTORA PARAIBA           000000152241                                                                                                                                                                    
0010001300255A27073952196862968987MARIA OLIVEIRA                000000376227                                                                                                                                                                    
0010001300256A66764698655073981222POSTO COMBUSTIVEL             000000059330                                                                                                                                                                    
0010001300257A74755775639478426359MARIA OLIVEIRA                000000913509                                                                                                                                                                    
0010001300258A11993985908451159853AUTO PECAS BRASIL             000000776985                                                                                                                                                                    
0010001300259A78796579004009506425FARMACIA POPULAR              000000633809                                                                                                                                                                    
0010001300260A44806026588476178227CLINICA MEDICA VIDA           000000332396ERRO_LAYOUT                                                                                                                                                         
0010001300261A75377572474431082769MATERIAL DE CONSTRUCAO        000000483295                                                                                                                                                                    
0010001300262A22856883589253702814ACADEMIA CORPO ATIVO          000000378155                                                                                                                                                                    
0010001300263A93320787813214374478HOTEL PRAIA AZUL              000000749021                                                                                                                                                                    
0010001300264A66021527519208557638EMPRESA TESTE LTDA            000000191094                                                                                                                                                                    
0010001300265A90873858136122554820CLINICA MEDICA VIDA           000000975745                                                                                                                                                                    
0010001300266A52900818643723612968PAPELARIA ESCOLAR             000000192074                                                                                                                                                                    
0010001300267A10174608452909211689SUPERMERCADO IDEAL            000000601857                                                                                                                                                                    
0010001300268A25225481212711054000AUTO PECAS BRASIL             000000135042                                                                                                                                                                    
0010001300269A93182170475734158174AUTO PECAS BRASIL             000000493942                                                                                                                                                                    
0010001300270A70169958678815581238JOAO DA SILVA                 000000164311                                                                                                                                                                    
0010001300271A69946637805175209462PAPELARIA ESCOLAR             000000885419ERRO_LAYOUT                                                                                                                                                         
0010001300272A48290689216754036620RESTAURANTE SABOR             000000505544                                                                                                                                                                    
0010001300273A41233816713123743915CLINICA MEDICA VIDA           000000070772                                                                                                                                                                    
0010001300274A33351968925572900198OFICINA MECANICA              000000066290                                                                                                                                                                    
0010001300275A57785108644299890916TRANSPORTES EXPRESS           000000789560                                                                                                                                                                    
0010001300276A74064089039153713650OFICINA MECANICA              000000352417                                                                                                                                                                    
0010001300277A39515424124215194401SUPERMERCADO IDEAL            000000230906                                                                                                                                                                    
0010001300278A53692985201794098190SUPERMERCADO IDEAL            000000724459ERRO_LAYOUT                                                                                                                                                         
0010001300279A75603485557642155997JOAO DA SILVA                 000000911969                                                                                                                                                                    
0010001300280A81910008748154978799AUTO PECAS BRASIL             000000006120                                                                                                                                                                    
0010001300281A40748850166075844337SUPERMERCADO IDEAL            000000573606                                                                                                                                                                    
0010001300282A43155775739292366889OFICINA MECANICA              000000996796                                                                                                                                                                    
0010001300283A93511275016464827330RESTAURANTE SABOR             000000109015                                                                                                                                                                    
0010001300284A70880172373196791855PADARIA SAO JOSE              000000430580                                                                                                                                                                    
0010001300285A59145607948999340430RESTAURANTE SABOR             000000279107                                                                                                                                                                    
0010001300286A15920645477445191569MATERIAL DE CONSTRUCAO        000000717796                                                                                                                                                                    
0010001300287A84696036972430748122PAPELARIA ESCOLAR             000000051603                                                                                                                                                                    
0010001300288A75298556518773549336ACADEMIA CORPO ATIVO          000000422803                                                                                                                                                                    
0010001300289A64269645879259446343JOAO DA SILVA                 000000783568                                                                                                                                                                    
0010001300290A90029694026780928669MERCADO CENTRAL LTDA          000000682209                                                                                                                                                                    
0010001300291A89691050210707961866JOAO DA SILVA                 000000114260                                                                                                                                                                    
0010001300292A80534783123714005214RESTAURANTE SABOR             000000623521                                                                                                                                                                    
0010001300293A70019040754078778545TRANSPORTES EXPRESS           000000083335                                                                                                                                                                    
0010001300294A69253624544790380293PAPELARIA ESCOLAR             000000850829ERRO_LAYOUT                                                                                                                                                         
0010001300295A82952814839953963108CONSTRUTORA PARAIBA           000000203378                                                                                                                                                                    
0010001300296A70794513993084293391ACADEMIA CORPO ATIVO          000000254103                                                                                                                                                                    
0010001300297A55059600234755653619HOTEL PRAIA AZUL              000000428363                                                                                                                                                                    
0010001300298A82913944405171869738HOTEL PRAIA AZUL              000000937699                                                                                                                                                                    
0010001300299A78112657947667817538PADARIA SAO JOSE              000000526483                                                                                                                                                                    
0010001300300A16362800848829087774PADARIA SAO JOSE              000000229294                                                                                                                                                                    
0010001300301A33799434509671460489PAPELARIA ESCOLAR             000000929210                                                                                                                                                                    
0010001300302A37646811723839145135LOJA DE INFORMATICA           000000328537                                                                                                                                                                    
0010001300303A85913958342359418837LOJA DE INFORMATICA           000000009194                                                                                                                                                                    
0010001300304A69998007018230114452SUPERMERCADO IDEAL            000000788156                                                                                                                                                                    
0010001300305A84274350854457617654RESTAURANTE SABOR             000000906382                                                                                                                                                                    
0010001300306A95622328414577720696TRANSPORTES EXPRESS           000000171904                                                                                                                                                                    
0010001300307A48296090130861864888OFICINA MECANICA              000000995697                                                                                                                                                                    
0010001300308A74320328606962567216FARMACIA POPULAR              000000429690                                                                                                                                                                    
0010001300309A84083502599512628735PAPELARIA ESCOLAR             000000787658                                                                                                                                                                    
0010001300310A64156020603054838832HOTEL PRAIA AZUL              000000120530                                                                                                                                                                    
0010001300311A20268377607376697420MATERIAL DE CONSTRUCAO        000000787974                                                                                                                                                                    
0010001300312A69617033590973369446TRANSPORTES EXPRESS           000000382661                                                                                                                                                                    
0010001300313@56617748047222418027ATACADO BRASIL                000000472379                                                                                                                                                                    
0010001300314A97576064496985632470OFICINA MECANICA              000000947129                                                                                                                                                                    
0010001300315A62980743110399263770MATERIAL DE CONSTRUCAO        000000122226                                                                                                                                                                    
0010001300316A95077750612070383051POSTO COMBUSTIVEL             000000275292                                                                                                                                                                    
0010001300317A34352152721759025238ACADEMIA CORPO ATIVO          000000502254                                                                                                                                                                    
0010001300318A74148029489857682238RESTAURANTE SABOR             000000291255                                                                                                                                                                    
0010001300319A29910657044136741948FARMACIA POPULAR              000000532345                                                                                                                                                                    
0010001300320A74844239934837468402MATERIAL DE CONSTRUCAO        000000387224                                                                                                                                                                    
0010001300321A21452533030323637987PAPELARIA ESCOLAR             000000792775                                                                                                                                                                    
0010001300322A99145853332857992273RESTAURANTE SABOR             000000348342                                                                                                                                                                    
0010001300323A92877095207706389978PAPELARIA ESCOLAR             000000889652                                                                                                                                                                    
0010001300324A32522399404474851571PADARIA SAO JOSE              000000853615                                                                                                                                                                    
0010001300325A89757953973044828301JOAO DA SILVA                 000000335318                                                                                                                                                                    
0010001300326A36529187886006395308CONSTRUTORA PARAIBA           000000337830                                                                                                                                                                    
0010001300327A53614014552339872441MARIA OLIVEIRA                000000338286ERRO_LAYOUT                                                                                                                                                         
0010001300328A85025808263176843391FARMACIA POPULAR              000000290816                                                                                                                                                                    
0010001300329A45520281611202196511LOJA DE INFORMATICA           000000428705                                                                                                                                                                    
0010001300330A81383907822062815488MERCADO CENTRAL LTDA          000000141375                                                                                                                                                                    
0010001300331A39700507053825317597FARMACIA POPULAR              000000983387                                                                                                                                                                    
0010001300332A34649180139441824266AUTO PECAS BRASIL             000000390022                                                                                                                                                                    
0010001300333A43046127275735878662OFICINA MECANICA              000000642386                                                                                                                                                                    
0010001300334A55605972084716224852HOTEL PRAIA AZUL              000000703218                                                                                                                                                                    
0010001300335A84158428497969479532CONSTRUTORA PARAIBA           000000850025                                                                                                                                                                    
0010001300336A37739644472047948978MERCADO CENTRAL LTDA          000000623385                                                                                                                                                                    
0010001300337A26901403112785395609ATACADO BRASIL                000000513993                                                                                                                                                                    
0010001300338A38629910274049860685RESTAURANTE SABOR             000000199691                                                                                                                                                                    
0010001300339A14566509131871536792HOTEL PRAIA AZUL              000000977338                                                                                                                                                                    
0010001300340A36852121998868833473HOTEL PRAIA AZUL              000000672474                                                                                                                                                                    
0010001300341A81345353573570207669CONSTRUTORA PARAIBA           000000432024                                                                                                                                                                    
0010001300342A75840469108596423822HOTEL PRAIA AZUL              000000522909                                                                                                                                                                    
0010001300343A61842980022198773468ACADEMIA CORPO ATIVO          000000011776                                                                                                                                                                    
0010001300344A22207311313321458787MATERIAL DE CONSTRUCAO        000000738566                                                                                                                                                                    
0010001300345A76419372499481890690PADARIA SAO JOSE              000000991166                                                                                                                                                                    
0010001300346A23658277879010361209EMPRESA TESTE LTDA            000000018154                                                                                                                                                                    
0010001300347A91930166629129793116FARMACIA POPULAR              000000745291                                                                                                                                                                    
0010001300348A54360019085382571194SUPERMERCADO IDEAL            000000470532                                                                                                                                                                    
0010001300349A49814320198752442243LOJA DE INFORMATICA           000000404652                                                                                                                                                                    
0010001300350A47183095950667905164CLINICA MEDICA VIDA           000000319170                                                                                                                                                                    
0010001300351A73186647867632263282MERCADO CENTRAL LTDA          000000071075                                                                                                                                                                    
0010001300352A55048364140810518951AUTO PECAS BRASIL             000000612524                                                                                                                                                                    
0010001300353A36605760137817157050POSTO COMBUSTIVEL             000000840582                                                                                                                                                                    
0010001300354A89611193809150660397EMPRESA TESTE LTDA            000000751591                                                                                                                                                                    
0010001300355A99419558465839884854MATERIAL DE CONSTRUCAO        000000703270                                                                                                                                                                    
0010001300356A56131880834547283173JOAO DA SILVA                 000000518981                                                                                                                                                                    
0010001300357A60024618909890446928AUTO PECAS BRASIL             000000724333                                                                                                                                                                    
0010001300358A24875710800763646979OFICINA MECANICA              000000205407                                                                                                                                                                    
0010001300359A54122439617586466208CLINICA MEDICA VIDA           000000657196                                                                                                                                                                    
0010001300360A67958474205562077913ATACADO BRASIL                000000227562                                                                                                                                                                    
0010001300361A47336863475312845639EMPRESA TESTE LTDA            000000836343                                                                                                                                                                    
0010001300362A25717648488015337979TRANSPORTES EXPRESS           000000635547                                                                                                                                                                    
0010001300363A36718896893415926613EMPRESA TESTE LTDA            000000817446                                                                                                                                                                    
0010001300364A19864014642087777635ACADEMIA CORPO ATIVO          000000407080                                                                                                                                                                    
0010001300365A88257212863418045389MATERIAL DE CONSTRUCAO        000000819444                                                                                                                                                                    
0010001300366A69479581360094887979HOTEL PRAIA AZUL              000000920142                                                                                                                                                                    
0010001300367A48952865889244210075HOTEL PRAIA AZUL              000000179038                                                                                                                                                                    
0010001300368A30004961461320807020RESTAURANTE SABOR             000000108548                                                                                                                                                                    
0010001300369A14451823506618631794TRANSPORTES EXPRESS           000000722033                                                                                                                                                                    
0010001300370A20447470801173418889ATACADO BRASIL                000000390148                                                                                                                                                                    
0010001300371A13979900300014886604TRANSPORTES EXPRESS           000000586534                                                                                                                                                                    
0010001300372A97861085735539170638MERCADO CENTRAL LTDA          000000444051                                                                                                                                                                    
0010001300373A31432962131314830595PAPELARIA ESCOLAR             000000413937                                                                                                                                                                    
0010001300374A74098807928331095148OFICINA MECANICA              000000979505                                                                                                                                                                    
0010001300375A57299699328760858956MATERIAL DE CONSTRUCAO        000000822877                                                                                                                                                                    
0010001300376A61480315772232734004LOJA DE INFORMATICA           000000105464                                                                                                                                                                    
0010001300377A46948927558693819850MATERIAL DE CONSTRUCAO        000000504874                                                                                                                                                                    
0010001300378A40602037756217767259OFICINA MECANICA              000000012618                                                                                                                                                                    
0010001300379A29167997344577589755ACADEMIA CORPO ATIVO          000000721987                                                                                                                                                                    
0010001300380A95795555954523069655ATACADO BRASIL                000000574848                                                                                                                                                                    
0010001300381A63715905923162270629ACADEMIA CORPO ATIVO          000000554375                                                                                                                                                                    
0010001300382A31236789276751095652ACADEMIA CORPO ATIVO          000000508062                                                                                                                                                                    
0010001300383A79805924359002071076SUPERMERCADO IDEAL            000000048822                                                                                                                                                                    
0010001300384A28839293774608322789LOJA DE INFORMATICA           000000987019                                                                                                                                                                    
0010001300385A48473399045372525064MARIA OLIVEIRA                000000827646                                                                                                                                                                    
0010001300386A60963289336502722945HOTEL PRAIA AZUL              000000256681                                                                                                                                                                    
0010001300387A72830851087903225268JOAO DA SILVA                 000000548502ERRO_LAYOUT                                                                                                                                                         
0010001300388A25165766079012622542EMPRESA TESTE LTDA            000000360051                                                                                                                                                                    
0010001300389A83218943047401039816EMPRESA TESTE LTDA            000000242276                                                                                                                                                                    
0010001300390A15248702702830814513POSTO COMBUSTIVEL             000000461945                                                                                                                                                                    
0010001300391A58965126418719532656MARIA OLIVEIRA                000000044236                                                                                                                                                                    
0010001300392A89979827908715215518LOJA DE INFORMATICA           000000035664                                                                                                                                                                    
0010001300393A95606200932811357873HOTEL PRAIA AZUL              000000144571                                                                                                                                                                    
0010001300394A76891459202781265640JOAO DA SILVA                 000000425966ERRO_LAYOUT                                                                                                                                                         
0010001300395A22576455807836290913CONSTRUTORA PARAIBA           000000325335                                                                                                                                                                    
0010001300396A61459645116210425119CLINICA MEDICA VIDA           000000253851                                                                                                                                                                    
0010001300397A87682296812622069189AUTO PECAS BRASIL             000000423147                                                                                                                                                                    
0010001300398A37434708804004627615PADARIA SAO JOSE              000000319287                                                                                                                                                                    
0010001300399A18937692695601037802ATACADO BRASIL                000000765088                                                                                                                                                                    
0010001300400A51241615968282538428EMPRESA TESTE LTDA            000000820451                                                                                                                                                                    
0010001300401A61148987684230239791PADARIA SAO JOSE              000000273395                                                                                                                                                                    
0010001300402A98238670844435973922TRANSPORTES EXPRESS           000000420974                                                                                                                                                                    
0010001300403A23459319889607426341POSTO COMBUSTIVEL             000000374405                                                                                                                                                                    
0010001300404A96885181020337326860JOAO DA SILVA                 000000286597                                                                                                                                                                    
0010001300405A97147453412818714199PAPELARIA ESCOLAR             000000837946                                                                                                                                                                    
0010001300406A73034718370468766076PADARIA SAO JOSE              000000883178                                                                                                                                                                    
0010001300407A48820984439459349557JOAO DA SILVA                 000000720917                                                                                                                                                                    
0010001300408A16944824255947890063MATERIAL DE CONSTRUCAO        000000053503                                                                                                                                                                    
0010001300409A94477779345939334449MATERIAL DE CONSTRUCAO        000000221094                                                                                                                                                                    
0010001300410A27867617995703393757CONSTRUTORA PARAIBA           000000426121                                                                                                                                                                    
0010001300411A30340252271953212565JOAO DA SILVA                 000000241086                                                                                                                                                                    
0010001300412A95347675082663745647LOJA DE INFORMATICA           000000398273                                                                                                                                                                    
0010001300413A20136779150468184213OFICINA MECANICA              000000057403                                                                                                                                                                    
